{
	"data": {
		"bytecode": {
			"linkReferences": {},
			"object": "6010805460ff1990811690915560128054909116905560a060408190526000608081905262000031916019916200027f565b50601a805461ffff19166001179055670de0b6b3a7640000601b556064601c55600a601d556005601e553480156200006857600080fd5b5060408051808201825260128152714173746172205765623320446f6d61696e7360701b6020808301918252835180850190945260038452621055d160ea1b908401528151919291620000be916000916200027f565b508051620000d49060019060208401906200027f565b505050620000f1620000eb6200010260201b60201c565b62000106565b620000fc3362000158565b62000362565b3390565b600b80546001600160a01b038381166001600160a01b0319831681179093556040519116919082907f8be0079c531659141344cd1fd0a4f28419497f9722a3daafe3b4186f6b6457e090600090a35050565b6200017381600c6200017660201b620033c81790919060201c565b50565b620001828282620001fa565b15620001d55760405162461bcd60e51b815260206004820152601f60248201527f526f6c65733a206163636f756e7420616c72656164792068617320726f6c650060448201526064015b60405180910390fd5b6001600160a01b0316600090815260209190915260409020805460ff19166001179055565b60006001600160a01b0382166200025f5760405162461bcd60e51b815260206004820152602260248201527f526f6c65733a206163636f756e7420697320746865207a65726f206164647265604482015261737360f01b6064820152608401620001cc565b506001600160a01b03166000908152602091909152604090205460ff1690565b8280546200028d9062000325565b90600052602060002090601f016020900481019282620002b15760008555620002fc565b82601f10620002cc57805160ff1916838001178555620002fc565b82800160010185558215620002fc579182015b82811115620002fc578251825591602001919060010190620002df565b506200030a9291506200030e565b5090565b5b808211156200030a57600081556001016200030f565b600181811c908216806200033a57607f821691505b602082108114156200035c57634e487b7160e01b600052602260045260246000fd5b50919050565b615acc80620003726000396000f3fe6080604052600436106104e15760003560e01c80636bc2290f11610281578063b3f9e4cb1161015a578063ce92b33e116100cc578063ec129eea11610085578063ec129eea14610f77578063eceb7d5214610f97578063f25eb5c114610fb7578063f2fde38b14610fcc578063f5c1f76e14610fec578063f6283ad41461100c57600080fd5b8063ce92b33e14610e8c578063d231563014610eac578063d439daa214610ec1578063e5f9da8814610ef9578063e985e9c514610f19578063ea7b25be14610f6257600080fd5b8063bc7c8ceb1161011e578063bc7c8ceb14610dcf578063bcba4c1b14610dfd578063c479a80414610e1d578063c6438cb814610e3d578063c7bc6d6814610e52578063c87b56dd14610e6c57600080fd5b8063b3f9e4cb14610d21578063b85afd2814610d41578063b88d4fde14610d6f578063bb5b27e114610d8f578063bc7b6d6214610daf57600080fd5b80638da5cb5b116101f357806398d5fdca116101b757806398d5fdca14610c565780639cbf529d14610c6b578063a22cb46514610c8b578063a736868b14610cab578063ab3b87fe14610ce1578063ad59e22614610d0157600080fd5b80638da5cb5b14610bc35780638f704aec14610be157806391b7f5ed14610c0157806395d89b4114610c2157806398a6024314610c3657600080fd5b806377e9d00b1161024557806377e9d00b14610b0357806379f8072214610b235780637ce4538314610b435780637e37479e14610b635780637ef09bca14610b835780638a4c757714610ba357600080fd5b80636bc2290f14610a795780636e2db8d714610a8e57806370a0823114610aae578063715018a614610ace57806376f909ae14610ae357600080fd5b80633dd1eb61116103be5780634f558e7911610330578063573f5dae116102e9578063573f5dae146109c45780635d893ba0146109de5780636352211e146109f85780636506437014610a18578063672b9f8114610a2b57806369e2f0fb14610a5957600080fd5b80634f558e79146109045780634f6ccce71461092457806350382c1a1461094457806350b3a14414610964578063559f74141461098457806355f804b3146109a457600080fd5b8063434d8aca11610382578063434d8aca1461085a5780634500d4491461087a57806347c816991461088f5780634a72584d146108af5780634aaf4a12146108cf5780634cd637b5146108ef57600080fd5b80633dd1eb61146107ba578063426932c7146107da57806342842e0e146107fa57806342966c681461081a578063430c20811461083a57600080fd5b80631ed40559116104575780632dc50d9a1161041b5780632dc50d9a1461071d5780632f745c591461073d578063310bd74b1461075d578063358deb1c1461077d578063384e9a55146107925780633ccfd60b146107b257600080fd5b80631ed40559146106885780632319afde1461069d57806323b872dd146106bd57806323bbde56146106dd57806327f18975146106fd57600080fd5b8063095ea7b3116104a9578063095ea7b3146105cf5780630bb78ec1146105f1578063157c61381461061157806318160ddd146106265780631bd8cc1a1461063b5780631be5e7ed1461066857600080fd5b806301ffc9a7146104e65780630302e9531461051b57806305d60ffb1461053a57806306fdde0314610575578063081812fc14610597575b600080fd5b3480156104f257600080fd5b50610506610501366004614ca3565b61102c565b60405190151581526020015b60405180910390f35b34801561052757600080fd5b50601a5461050690610100900460ff1681565b34801561054657600080fd5b50610567610555366004614cdc565b600f6020526000908152604090205481565b604051908152602001610512565b34801561058157600080fd5b5061058a61103d565b6040516105129190614d4f565b3480156105a357600080fd5b506105b76105b2366004614d62565b6110cf565b6040516001600160a01b039091168152602001610512565b3480156105db57600080fd5b506105ef6105ea366004614d7b565b61115c565b005b3480156105fd57600080fd5b5061058a61060c366004614d62565b611272565b34801561061d57600080fd5b5061056761130c565b34801561063257600080fd5b50600854610567565b34801561064757600080fd5b5061065b610656366004614df0565b611328565b6040516105129190614e93565b34801561067457600080fd5b5061058a610683366004614ee7565b61141e565b34801561069457600080fd5b506105ef611469565b3480156106a957600080fd5b506105ef6106b8366004614f1e565b6114a7565b3480156106c957600080fd5b506105ef6106d8366004614f5f565b61155c565b3480156106e957600080fd5b506105ef6106f836600461503d565b611597565b34801561070957600080fd5b506105ef610718366004615071565b6115eb565b34801561072957600080fd5b506105676107383660046150e4565b611613565b34801561074957600080fd5b50610567610758366004614d7b565b611648565b34801561076957600080fd5b506105ef610778366004614d62565b6116de565b34801561078957600080fd5b50601d54610567565b34801561079e57600080fd5b506105ef6107ad366004614d62565b6116fe565b6105ef61173f565b3480156107c657600080fd5b506105ef6107d5366004614cdc565b61178f565b3480156107e657600080fd5b506105ef6107f5366004614df0565b6117c5565b34801561080657600080fd5b506105ef610815366004614f5f565b611853565b34801561082657600080fd5b506105ef610835366004614d62565b61186e565b34801561084657600080fd5b50610506610855366004614d7b565b611985565b34801561086657600080fd5b5061058a61087536600461503d565b611991565b34801561088657600080fd5b506105ef6119b5565b34801561089b57600080fd5b506105ef6108aa366004615106565b6119fc565b3480156108bb57600080fd5b506105ef6108ca366004615167565b611a1c565b3480156108db57600080fd5b506105b76108ea36600461503d565b611a42565b3480156108fb57600080fd5b50610567611a87565b34801561091057600080fd5b5061050661091f366004614d62565b611a98565b34801561093057600080fd5b5061056761093f366004614d62565b611aa3565b34801561095057600080fd5b506105ef61095f36600461503d565b611b36565b34801561097057600080fd5b5061056761097f36600461503d565b611b69565b34801561099057600080fd5b506105ef61099f3660046151b9565b611ba9565b3480156109b057600080fd5b506105ef6109bf36600461503d565b611bfc565b3480156109d057600080fd5b506010546105069060ff1681565b3480156109ea57600080fd5b50601a546105069060ff1681565b348015610a0457600080fd5b506105b7610a13366004614d62565b611c39565b6105ef610a263660046151ee565b611cb0565b348015610a3757600080fd5b50610a4b610a463660046150e4565b612299565b604051610512929190615251565b348015610a6557600080fd5b506105ef610a74366004614cdc565b6122b1565b348015610a8557600080fd5b50601c54610567565b348015610a9a57600080fd5b506105ef610aa9366004614d7b565b6122e4565b348015610aba57600080fd5b50610567610ac9366004614cdc565b612325565b348015610ada57600080fd5b506105ef6123ac565b348015610aef57600080fd5b50610567610afe366004614d62565b6123e0565b348015610b0f57600080fd5b506105ef610b1e36600461527f565b61240b565b348015610b2f57600080fd5b506105b7610b3e36600461503d565b61262a565b348015610b4f57600080fd5b506105ef610b5e3660046151b9565b612674565b348015610b6f57600080fd5b5061058a610b7e366004614cdc565b6126c5565b348015610b8f57600080fd5b50610506610b9e366004614cdc565b61280d565b348015610baf57600080fd5b506105ef610bbe366004614d62565b61281a565b348015610bcf57600080fd5b50600b546001600160a01b03166105b7565b348015610bed57600080fd5b506105ef610bfc3660046152f2565b612869565b348015610c0d57600080fd5b506105ef610c1c366004614d62565b6128a1565b348015610c2d57600080fd5b5061058a6128d0565b348015610c4257600080fd5b506105ef610c5136600461531e565b6128df565b348015610c6257600080fd5b50601b54610567565b348015610c7757600080fd5b506105ef610c8636600461503d565b61290d565b348015610c9757600080fd5b506105ef610ca636600461537a565b61295c565b348015610cb757600080fd5b50610567610cc6366004614cdc565b6001600160a01b03166000908152600f602052604090205490565b348015610ced57600080fd5b506105ef610cfc366004614d7b565b612a21565b348015610d0d57600080fd5b506105ef610d1c36600461503d565b612a47565b348015610d2d57600080fd5b506105b7610d3c366004614d62565b612aa0565b348015610d4d57600080fd5b50610d61610d5c366004614df0565b612adc565b6040516105129291906153a4565b348015610d7b57600080fd5b506105ef610d8a3660046153c9565b612bfe565b348015610d9b57600080fd5b5061058a610daa366004614d62565b612c39565b348015610dbb57600080fd5b506105ef610dca366004615430565b612cdb565b348015610ddb57600080fd5b50610def610dea366004614cdc565b612cf8565b604051610512929190615453565b348015610e0957600080fd5b5061058a610e18366004614d62565b612edb565b348015610e2957600080fd5b506105ef610e383660046154aa565b612ef4565b348015610e4957600080fd5b50610567612f11565b348015610e5e57600080fd5b506012546105069060ff1681565b348015610e7857600080fd5b5061058a610e87366004614d62565b612f22565b348015610e9857600080fd5b506105ef610ea7366004615071565b61308c565b348015610eb857600080fd5b50601e54610567565b348015610ecd57600080fd5b50610506610edc366004614cdc565b6001600160a01b03166000908152600f6020526040902054151590565b348015610f0557600080fd5b50610506610f1436600461503d565b6130ac565b348015610f2557600080fd5b50610506610f343660046154e6565b6001600160a01b03918216600090815260056020908152604080832093909416825291909152205460ff1690565b348015610f6e57600080fd5b506105ef6130e9565b348015610f8357600080fd5b506105ef610f92366004615071565b613127565b348015610fa357600080fd5b506105ef610fb2366004615510565b613147565b348015610fc357600080fd5b506105ef613184565b348015610fd857600080fd5b506105ef610fe7366004614cdc565b6131cc565b348015610ff857600080fd5b5061065b611007366004614f1e565b613264565b34801561101857600080fd5b506105066110273660046151b9565b613310565b600061103782613444565b92915050565b60606000805461104c9061552b565b80601f01602080910402602001604051908101604052809291908181526020018280546110789061552b565b80156110c55780601f1061109a576101008083540402835291602001916110c5565b820191906000526020600020905b8154815290600101906020018083116110a857829003601f168201915b5050505050905090565b60006110da82613469565b6111405760405162461bcd60e51b815260206004820152602c60248201527f4552433732313a20617070726f76656420717565727920666f72206e6f6e657860448201526b34b9ba32b73a103a37b5b2b760a11b60648201526084015b60405180910390fd5b506000908152600460205260409020546001600160a01b031690565b600061116782611c39565b9050806001600160a01b0316836001600160a01b031614156111d55760405162461bcd60e51b815260206004820152602160248201527f4552433732313a20617070726f76616c20746f2063757272656e74206f776e656044820152603960f91b6064820152608401611137565b336001600160a01b03821614806111f157506111f18133610f34565b6112635760405162461bcd60e51b815260206004820152603860248201527f4552433732313a20617070726f76652063616c6c6572206973206e6f74206f7760448201527f6e6572206e6f7220617070726f76656420666f7220616c6c00000000000000006064820152608401611137565b61126d8383613486565b505050565b6014602052600090815260409020805461128b9061552b565b80601f01602080910402602001604051908101604052809291908181526020018280546112b79061552b565b80156113045780601f106112d957610100808354040283529160200191611304565b820191906000526020600020905b8154815290600101906020018083116112e757829003601f168201915b505050505081565b6000611323601c5461131d601b5490565b906134f4565b905090565b6060826001600160401b0381111561134257611342614f9b565b60405190808252806020026020018201604052801561137557816020015b60608152602001906001900390816113605790505b50905060005b83811015611416576113e685858381811061139857611398615566565b90506020028101906113aa919061557c565b8080601f016020809104026020016040519081016040528093929190818152602001838380828437600092019190915250879250613500915050565b8282815181106113f8576113f8615566565b6020026020010181905250808061140e906155d8565b91505061137b565b509392505050565b606061146184848080601f016020809104026020016040519081016040528093929190818152602001838380828437600092019190915250869250613500915050565b949350505050565b600b546001600160a01b031633146114935760405162461bcd60e51b8152600401611137906155f3565b601a805460ff19811660ff90911615179055565b6114b03361280d565b6114cc5760405162461bcd60e51b815260040161113790615628565b60005b8181101561126d578282828181106114e9576114e9615566565b90506020028101906114fb919061557c565b601185858581811061150f5761150f615566565b9050602002810190611521919061557c565b60405161152f929190615672565b908152604051908190036020019020611549929091614b4a565b5080611554816155d8565b9150506114cf565b611567335b82613535565b6115835760405162461bcd60e51b815260040161113790615682565b61158c8161361b565b61126d838383613688565b60006115a282611b69565b9050336115af8183613535565b6115cb5760405162461bcd60e51b8152600401611137906156d3565b50600090815260166020526040902080546001600160a01b031916905550565b806115f533611561565b6115fe57600080fd5b61160b8686868686613833565b505050505050565b60008161161f846123e0565b1161162957600080fd5b60008381526013602052604090206116419083613896565b9392505050565b600061165383612325565b82106116b55760405162461bcd60e51b815260206004820152602b60248201527f455243373231456e756d657261626c653a206f776e657220696e646578206f7560448201526a74206f6620626f756e647360a81b6064820152608401611137565b506001600160a01b03919091166000908152600660209081526040808320938352929052205490565b806116e833611561565b6116f157600080fd5b6116fa8261361b565b5050565b336117098183613535565b6117255760405162461bcd60e51b8152600401611137906156d3565b6001600160a01b0316600090815260176020526040902055565b600b546001600160a01b031633146117695760405162461bcd60e51b8152600401611137906155f3565b60405133904780156108fc02916000818181858888f1935050505061178d57600080fd5b565b600b546001600160a01b031633146117b95760405162461bcd60e51b8152600401611137906155f3565b6117c2816138a2565b50565b6117ce3361280d565b6117ea5760405162461bcd60e51b815260040161113790615628565b60005b8281101561184d5781600f600086868581811061180c5761180c615566565b90506020020160208101906118219190614cdc565b6001600160a01b0316815260208101919091526040016000205580611845816155d8565b9150506117ed565b50505050565b61126d83838360405180602001604052806000815250612bfe565b61187733611561565b6118dc5760405162461bcd60e51b815260206004820152603060248201527f4552433732314275726e61626c653a2063616c6c6572206973206e6f74206f7760448201526f1b995c881b9bdc88185c1c1c9bdd995960821b6064820152608401611137565b600081815260146020526040902080546118f59061552b565b15905061191357600081815260146020526040812061191391614bca565b336000908152601760205260409020541561193957336000908152601760205260408120555b6000818152601660205260409020546001600160a01b03161561197357600081815260166020526040902080546001600160a01b03191690555b61197c8161361b565b6117c2816138ad565b60006116418383613535565b80516020818301810180516011825292820191909301209152805461128b9061552b565b600b546001600160a01b031633146119df5760405162461bcd60e51b8152600401611137906155f3565b601a805461ff001981166101009182900460ff1615909102179055565b80611a0633611561565b611a0f57600080fd5b61160b8686868686613954565b80611a2633611561565b611a2f57600080fd5b611a3b85858585613a33565b5050505050565b600080611a4e83613ad3565b9050600081604051602001611a639190615723565b6040516020818303038152906040528051906020012060001c905061146181611c39565b6000611323601e5461131d601b5490565b600061103782613469565b6000611aae60085490565b8210611b115760405162461bcd60e51b815260206004820152602c60248201527f455243373231456e756d657261626c653a20676c6f62616c20696e646578206f60448201526b7574206f6620626f756e647360a01b6064820152608401611137565b60088281548110611b2457611b24615566565b90600052602060002001549050919050565b6117c281604051602001611b4a9190615723565b6040516020818303038152906040528051906020012060001c82613c2d565b6000815160001415611b7a57600080fd5b81604051602001611b8b9190615723565b60408051601f19818403018152919052805160209091012092915050565b611bb23361280d565b611bce5760405162461bcd60e51b815260040161113790615628565b818160118484604051611be2929190615672565b90815260405190819003602001902061126d929091614b4a565b600b546001600160a01b03163314611c265760405162461bcd60e51b8152600401611137906155f3565b80516116fa906019906020840190614c04565b6000818152600260205260408120546001600160a01b0316806110375760405162461bcd60e51b815260206004820152602960248201527f4552433732313a206f776e657220717565727920666f72206e6f6e657869737460448201526832b73a103a37b5b2b760b91b6064820152608401611137565b601a5460ff16611d025760405162461bcd60e51b815260206004820152601a60248201527f53616c65206d7573742062652061637469766520746f206275790000000000006044820152606401611137565b8051611d205760405162461bcd60e51b81526004016111379061573f565b611d29816130ac565b1515600114611d7a5760405162461bcd60e51b815260206004820152601a60248201527f546f70206c6576656c20646f6d61696e206e6f742065786973740000000000006044820152606401611137565b611d8382613c59565b15611dd05760405162461bcd60e51b815260206004820152601a60248201527f446f6d61696e732063616e6e6f7420636f6e7461696e20646f740000000000006044820152606401611137565b815180611e1a5760405162461bcd60e51b8152602060048201526018602482015277446f6d61696e206d757374206265206e6f6e2d656d70747960401b6044820152606401611137565b6002811015611e795760405162461bcd60e51b815260206004820152602560248201527f446f6d61696e207265717569726573206174206c656173742032206368617261604482015264637465727360d81b6064820152608401611137565b60125460ff16151560011415611f87576000601184604051611e9b9190615723565b90815260200160405180910390208054611eb49061552b565b80601f0160208091040260200160405190810160405280929190818152602001828054611ee09061552b565b8015611f2d5780601f10611f0257610100808354040283529160200191611f2d565b820191906000526020600020905b815481529060010190602001808311611f1057829003601f168201915b505050505090508051600014611f855760405162461bcd60e51b815260206004820152601d60248201527f54686973206e616d6520697320616c72656164792072657365727665640000006044820152606401611137565b505b60105460ff1615156001141561206557336000908152600f6020526040902054806120005760405162461bcd60e51b815260206004820152602360248201527f5468652061646472657373206973206e6f7420696e207468652057686974656c6044820152621a5cdd60ea1b6064820152608401611137565b61200933612325565b8110156120635760405162461bcd60e51b815260206004820152602260248201527f4578636565646564206d617820617661696c61626c6520746f20707572636861604482015261736560f01b6064820152608401611137565b505b806002141561211457601a5460ff6101009091041615156001146120e65760405162461bcd60e51b815260206004820152603260248201527f322043686172616374657220646f6d61696e206e616d6573206e65656420746f60448201527120626520616c6c6f77656420746f2062757960701b6064820152608401611137565b6120f5601c5461131d601b5490565b3410156121145760405162461bcd60e51b815260040161113790615781565b806003141561214b5761212c601d5461131d601b5490565b34101561214b5760405162461bcd60e51b815260040161113790615781565b806004141561218257612163601e5461131d601b5490565b3410156121825760405162461bcd60e51b815260040161113790615781565b600581106121ac57601b543410156121ac5760405162461bcd60e51b815260040161113790615781565b60006121b784613ad3565b905060006121c484613ad3565b905081816040516020016121d99291906157d6565b604051602081830303815290604052915060006121f583611b69565b905061220081613469565b156122455760405162461bcd60e51b8152602060048201526015602482015274446f6d61696e20616c72656164792065786973747360581b6044820152606401611137565b61224f3382613cb8565b6122598184613cd2565b807fc5beef08f693b11c316c0c8394a377a0033c9cf701b8cd8afd79cecef60c3952846040516122899190614d4f565b60405180910390a2505050505050565b6060806122a68484613d5b565b909590945092505050565b600b546001600160a01b031633146122db5760405162461bcd60e51b8152600401611137906155f3565b6117c281613d7c565b6122ed3361280d565b6123095760405162461bcd60e51b815260040161113790615628565b6001600160a01b039091166000908152600f6020526040902055565b60006001600160a01b0382166123905760405162461bcd60e51b815260206004820152602a60248201527f4552433732313a2062616c616e636520717565727920666f7220746865207a65604482015269726f206164647265737360b01b6064820152608401611137565b506001600160a01b031660009081526003602052604090205490565b600b546001600160a01b031633146123d65760405162461bcd60e51b8152600401611137906155f3565b61178d6000613d87565b60006123eb82613469565b6123f457600080fd5b600082815260136020526040902061103790613dd9565b6124143361280d565b6124305760405162461bcd60e51b815260040161113790615628565b6001600160a01b03831661247b5760405162461bcd60e51b8152602060048201526012602482015271151bc81859191c995cdcc81a5cc81b9d5b1b60721b6044820152606401611137565b80516124995760405162461bcd60e51b81526004016111379061573f565b6124a2816130ac565b15156001146124f35760405162461bcd60e51b815260206004820152601a60248201527f546f70206c6576656c20646f6d61696e206e6f742065786973740000000000006044820152606401611137565b815161253c5760405162461bcd60e51b8152602060048201526018602482015277446f6d61696e206d757374206265206e6f6e2d656d70747960401b6044820152606401611137565b61254582613c59565b156125875760405162461bcd60e51b8152602060048201526012602482015271111bdb585a5b881b9bdd081cdd5c1c1bdc9d60721b6044820152606401611137565b600061259283613ad3565b9050600061259f83613ad3565b905081816040516020016125b49291906157d6565b604051602081830303815290604052915060006125d083611b69565b90506125db81613469565b156126205760405162461bcd60e51b8152602060048201526015602482015274446f6d61696e20616c72656164792065786973747360581b6044820152606401611137565b61224f8682613cb8565b60008061263683611b69565b905061264181613469565b61264e5750600092915050565b6000818152601660205260409020546001600160a01b0316806116415750309392505050565b61267d3361280d565b6126995760405162461bcd60e51b815260040161113790615628565b601182826040516126ab929190615672565b908152602001604051809103902060006116fa9190614bca565b6001600160a01b038116600090815260176020526040902054606090806126fe5760405162461bcd60e51b815260040161113790615812565b6127088382613535565b61276e5760405162461bcd60e51b815260206004820152603160248201527f526576657273655265736f6c7665723a204143434f554e545f49535f4e4f545f60448201527020a8282927ab22a22fa7a92fa7aba722a960791b6064820152608401611137565b600081815260146020526040902080546127879061552b565b80601f01602080910402602001604051908101604052809291908181526020018280546127b39061552b565b80156128005780601f106127d557610100808354040283529160200191612800565b820191906000526020600020905b8154815290600101906020018083116127e357829003601f168201915b5050505050915050919050565b6000611037600c83613de3565b8061282433611561565b61282d57600080fd5b8161284a5760405162461bcd60e51b815260040161113790615812565b50600090815260166020526040902080546001600160a01b0319169055565b600b546001600160a01b031633146128935760405162461bcd60e51b8152600401611137906155f3565b601c92909255601d55601e55565b600b546001600160a01b031633146128cb5760405162461bcd60e51b8152600401611137906155f3565b601b55565b60606001805461104c9061552b565b816128e933611561565b6128f257600080fd5b61184d84848460405180602001604052806000815250613e66565b600061291882611b69565b9050336129258183613535565b6129415760405162461bcd60e51b8152600401611137906156d3565b6001600160a01b031660009081526017602052604090205550565b6001600160a01b0382163314156129b55760405162461bcd60e51b815260206004820152601960248201527f4552433732313a20617070726f766520746f2063616c6c6572000000000000006044820152606401611137565b3360008181526005602090815260408083206001600160a01b03871680855290835292819020805460ff191686151590811790915590519081529192917f17307eab39ab6107e8899845ad3d59bd9653f200f220920489ca2b5937696c31910160405180910390a35050565b80612a2b33611561565b612a3457600080fd5b61126d612a4083611c39565b8484613688565b600b546001600160a01b03163314612a715760405162461bcd60e51b8152600401611137906155f3565b6000612a7c82611b69565b6000818152601860209081526040909120845192935061126d929091850190614c04565b6000612aab82613469565b612ab757506000919050565b6000828152601660205260409020546001600160a01b03168061103757503092915050565b606080836001600160401b03811115612af757612af7614f9b565b604051908082528060200260200182016040528015612b2a57816020015b6060815260200190600190039081612b155790505b509150836001600160401b03811115612b4557612b45614f9b565b604051908082528060200260200182016040528015612b7857816020015b6060815260200190600190039081612b635790505b50905060005b84811015612bf557612ba8868683818110612b9b57612b9b615566565b9050602002013585613d5b565b848381518110612bba57612bba615566565b60200260200101848481518110612bd357612bd3615566565b6020026020010182905282905250508080612bed906155d8565b915050612b7e565b50935093915050565b612c083383613535565b612c245760405162461bcd60e51b815260040161113790615682565b612c2d8261361b565b61184d84848484614033565b6000818152600a60205260409020805460609190612c569061552b565b80601f0160208091040260200160405190810160405280929190818152602001828054612c829061552b565b8015612ccf5780601f10612ca457610100808354040283529160200191612ccf565b820191906000526020600020905b815481529060010190602001808311612cb257829003601f168201915b50505050509050919050565b81612ce533611561565b612cee57600080fd5b61126d8383614066565b6060806000612d0684612325565b905060008111612d325760405162461bcd60e51b81526020600482015260006024820152604401611137565b6000816001600160401b03811115612d4c57612d4c614f9b565b604051908082528060200260200182016040528015612d75578160200160208202803683370190505b5090506000826001600160401b03811115612d9257612d92614f9b565b604051908082528060200260200182016040528015612dc557816020015b6060815260200190600190039081612db05790505b50905060005b83811015612ecf576000612ddf8883611648565b600081815260146020526040812080549293509091612dfd9061552b565b80601f0160208091040260200160405190810160405280929190818152602001828054612e299061552b565b8015612e765780601f10612e4b57610100808354040283529160200191612e76565b820191906000526020600020905b815481529060010190602001808311612e5957829003601f168201915b5050505050905081858481518110612e9057612e90615566565b60200260200101818152505080848481518110612eaf57612eaf615566565b602002602001018190525050508080612ec7906155d8565b915050612dcb565b50909590945092505050565b6015602052600090815260409020805461128b9061552b565b81612efe33611561565b612f0757600080fd5b61126d83836140a6565b6000611323601d5461131d601b5490565b6060612f2d82613469565b612f915760405162461bcd60e51b815260206004820152602f60248201527f4552433732314d657461646174613a2055524920717565727920666f72206e6f60448201526e3732bc34b9ba32b73a103a37b5b2b760891b6064820152608401611137565b60008281526014602052604081208054612faa9061552b565b80601f0160208091040260200160405190810160405280929190818152602001828054612fd69061552b565b80156130235780601f10612ff857610100808354040283529160200191613023565b820191906000526020600020905b81548152906001019060200180831161300657829003601f168201915b505050505090506000613034614152565b9050805160001415613047575092915050565b81511561307957808260405160200161306192919061585a565b60405160208183030381529060405292505050919050565b8084604051602001613061929190615889565b8061309633611561565b61309f57600080fd5b61160b8686868686614161565b600080806130b984611b69565b60008181526018602052604090208054919250906130d69061552b565b1590506130e257600191505b5092915050565b600b546001600160a01b031633146131135760405162461bcd60e51b8152600401611137906155f3565b6012805460ff19811660ff90911615179055565b8061313133611561565b61313a57600080fd5b61160b86868686866141cf565b600b546001600160a01b031633146131715760405162461bcd60e51b8152600401611137906155f3565b6010805460ff1916911515919091179055565b33600081815260176020526040902054806131b15760405162461bcd60e51b815260040161113790615812565b506001600160a01b0316600090815260176020526040812055565b600b546001600160a01b031633146131f65760405162461bcd60e51b8152600401611137906155f3565b6001600160a01b03811661325b5760405162461bcd60e51b815260206004820152602660248201527f4f776e61626c653a206e6577206f776e657220697320746865207a65726f206160448201526564647265737360d01b6064820152608401611137565b6117c281613d87565b6060816001600160401b0381111561327e5761327e614f9b565b6040519080825280602002602001820160405280156132b157816020015b606081526020019060019003908161329c5790505b50905060005b828110156130e2576132e08484838181106132d4576132d4615566565b90506020020135612c39565b8282815181106132f2576132f2615566565b60200260200101819052508080613308906155d8565b9150506132b7565b60008060118484604051613325929190615672565b9081526020016040518091039020805461333e9061552b565b80601f016020809104026020016040519081016040528092919081815260200182805461336a9061552b565b80156133b75780601f1061338c576101008083540402835291602001916133b7565b820191906000526020600020905b81548152906001019060200180831161339a57829003601f168201915b505092511515979650505050505050565b6133d28282613de3565b1561341f5760405162461bcd60e51b815260206004820152601f60248201527f526f6c65733a206163636f756e7420616c72656164792068617320726f6c65006044820152606401611137565b6001600160a01b0316600090815260209190915260409020805460ff19166001179055565b60006001600160e01b0319821663780e9d6360e01b14806110375750611037826141e5565b6000908152600260205260409020546001600160a01b0316151590565b600081815260046020526040902080546001600160a01b0319166001600160a01b03841690811790915581906134bb82611c39565b6001600160a01b03167f8c5be1e5ebec7d5bd14f71427d1e84f3dd0314c0f7b2291e5b200ac8c7c3b92560405160405180910390a45050565b600061164182846158ab565b6060611641836040516020016135169190615723565b6040516020818303038152906040528051906020012060001c83614235565b600061354082613469565b6135a15760405162461bcd60e51b815260206004820152602c60248201527f4552433732313a206f70657261746f7220717565727920666f72206e6f6e657860448201526b34b9ba32b73a103a37b5b2b760a11b6064820152608401611137565b60006135ac83611c39565b9050806001600160a01b0316846001600160a01b031614806135e75750836001600160a01b03166135dc846110cf565b6001600160a01b0316145b8061146157506001600160a01b0380821660009081526005602090815260408083209388168352929052205460ff16611461565b613624816142f4565b60405160200161363691815260200190565b60408051601f1981840301815282825280516020918201206000858152600e9092529181209190915582917f185c30856dadb58bf097c1f665a52ada7029752dbcad008ea3fefc73bee8c9fe9190a250565b826001600160a01b031661369b82611c39565b6001600160a01b0316146137035760405162461bcd60e51b815260206004820152602960248201527f4552433732313a207472616e73666572206f6620746f6b656e2074686174206960448201526839903737ba1037bbb760b91b6064820152608401611137565b6001600160a01b0382166137655760405162461bcd60e51b8152602060048201526024808201527f4552433732313a207472616e7366657220746f20746865207a65726f206164646044820152637265737360e01b6064820152608401611137565b613770838383614320565b61377b600082613486565b6001600160a01b03831660009081526003602052604081208054600192906137a49084906158ca565b90915550506001600160a01b03821660009081526003602052604081208054600192906137d29084906158e1565b909155505060008181526002602052604080822080546001600160a01b0319166001600160a01b0386811691821790925591518493918716917fddf252ad1be2c89b69c2b068fc378daa952ba7f163c4a11628f55a4df523b3ef91a4505050565b60005b8481101561160b5761388486868381811061385357613853615566565b9050602002013585858481811061386c5761386c615566565b905060200281019061387e919061557c565b85613a33565b8061388e816155d8565b915050613836565b6000611641838361432b565b6117c2600c826133c8565b60006138b882611c39565b90506138c681600084614320565b6138d1600083613486565b6001600160a01b03811660009081526003602052604081208054600192906138fa9084906158ca565b909155505060008281526002602052604080822080546001600160a01b0319169055518391906001600160a01b038416907fddf252ad1be2c89b69c2b068fc378daa952ba7f163c4a11628f55a4df523b3ef908390a45050565b60008585604051602001613969929190615672565b60408051601f198184030181528282528051602091820120601f89018290048202840182019092528783529092506139bd9183918990899081908401838280828437600092019190915250613c2d92505050565b61160b8187878080601f01602080910402602001604051908101604052809392919081815260200183838082843760009201919091525050604080516020601f8b018190048102820181019092528981529250899150889081908401838280828437600092019190915250889250614355915050565b613a3c84614490565b613a885760405162461bcd60e51b815260206004820152601c60248201527f5265636f726453746f726167653a204b45595f4e4f545f464f554e44000000006044820152606401611137565b61184d84613a9586612c39565b85858080601f016020809104026020016040519081016040528093929190818152602001838380828437600092019190915250879250614355915050565b60606000829050600081516001600160401b03811115613af557613af5614f9b565b6040519080825280601f01601f191660200182016040528015613b1f576020820181803683370190505b50905060005b8251811015611416576041838281518110613b4257613b42615566565b016020015160f81c10801590613b725750605a838281518110613b6757613b67615566565b016020015160f81c11155b15613bd457828181518110613b8957613b89615566565b602001015160f81c60f81b60f81c6020613ba391906158f9565b60f81b828281518110613bb857613bb8615566565b60200101906001600160f81b031916908160001a905350613c1b565b828181518110613be657613be6615566565b602001015160f81c60f81b828281518110613c0357613c03615566565b60200101906001600160f81b031916908160001a9053505b80613c25816155d8565b915050613b25565b613c3682614490565b6116fa576000828152600a60209081526040909120825161126d92840190614c04565b805160009060018381019184010182805b82841015613caf57835160ff16602e811415613c8e57613c8b6001846158e1565b92505b613c996001866158e1565b9450508080613ca7906155d8565b915050613c6a565b50949350505050565b6116fa8282604051806020016040528060008152506144b6565b613cdb82613469565b613d3c5760405162461bcd60e51b815260206004820152602c60248201527f4552433732314d657461646174613a2055524920736574206f66206e6f6e657860448201526b34b9ba32b73a103a37b5b2b760a11b6064820152608401611137565b6000828152601460209081526040909120825161126d92840190614c04565b606080613d6784612c39565b9150613d738484614235565b90509250929050565b6117c2600c826144e9565b600b80546001600160a01b038381166001600160a01b0319831681179093556040519116919082907f8be0079c531659141344cd1fd0a4f28419497f9722a3daafe3b4186f6b6457e090600090a35050565b6000611037825490565b60006001600160a01b038216613e465760405162461bcd60e51b815260206004820152602260248201527f526f6c65733a206163636f756e7420697320746865207a65726f206164647265604482015261737360f01b6064820152608401611137565b506001600160a01b03166000908152602091909152604090205460ff1690565b6001600160a01b038416613e7957600080fd5b8151613e8457600080fd5b613e8d82613c59565b15613e9757600080fd5b613ea083613469565b613ea957600080fd5b6000613eb483613ad3565b905060008160146000878152602001908152602001600020604051602001613edd92919061591e565b60405160208183030381529060405290506000613ef982611b69565b90506000613fa1601460008981526020019081526020016000208054613f1e9061552b565b80601f0160208091040260200160405190810160405280929190818152602001828054613f4a9061552b565b8015613f975780601f10613f6c57610100808354040283529160200191613f97565b820191906000526020600020905b815481529060010190602001808311613f7a57829003601f168201915b5050505050613c59565b90508060011415613fc6576000878152601360205260409020613fc4908361456b565b505b845115613fdd57613fd88883876144b6565b613fe7565b613fe78883613cb8565b613ff18284613cd2565b817fc5beef08f693b11c316c0c8394a377a0033c9cf701b8cd8afd79cecef60c3952846040516140219190614d4f565b60405180910390a25050505050505050565b61403e848484613688565b61404a84848484614577565b61184d5760405162461bcd60e51b8152600401611137906159de565b61406f82613469565b61407857600080fd5b60009182526016602052604090912080546001600160a01b0319166001600160a01b03909216919091179055565b60006140b182613ad3565b9050600081601460008681526020019081526020016000206040516020016140da92919061591e565b604051602081830303815290604052905060006140f682611b69565b60008681526013602052604090209091506141119082614675565b506000818152601460205260409020805461412b9061552b565b15905061414957600081815260146020526040812061414991614bca565b611a3b816138ad565b60606019805461104c9061552b565b60005b8481101561160b576141bd86868381811061418157614181615566565b9050602002810190614193919061557c565b8686858181106141a5576141a5615566565b90506020028101906141b7919061557c565b86613954565b806141c7816155d8565b915050614164565b6141d88161361b565b611a3b8585858585614161565b60006001600160e01b031982166380ac58cd60e01b148061421657506001600160e01b03198216635b5e139f60e01b145b8061103757506301ffc9a760e01b6001600160e01b0319831614611037565b6060600d6000614244846142f4565b81526020019081526020016000206000848152602001908152602001600020805461426e9061552b565b80601f016020809104026020016040519081016040528092919081815260200182805461429a9061552b565b80156142e75780601f106142bc576101008083540402835291602001916142e7565b820191906000526020600020905b8154815290600101906020018083116142ca57829003601f168201915b5050505050905092915050565b6000818152600e60205260408120541561431c576000828152600e6020526040902054611037565b5090565b61126d838383614681565b600082600001828154811061434257614342615566565b9060005260206000200154905092915050565b600d6000614362836142f4565b81526020019081526020016000206000858152602001908152602001600020805461438c9061552b565b151590506143e357826040516143a29190615723565b6040518091039020817f7ae4f661958fbecc2f77be6b0eb280d2a6f604b29e1e7221c82b9da0c4af7f86856040516143da9190614d4f565b60405180910390a35b81600d60006143f1846142f4565b815260200190815260200160002060008681526020019081526020016000209080519060200190614423929190614c04565b50816040516144329190615723565b6040518091039020836040516144489190615723565b6040518091039020827f851ffe8e74d5015261dba0a1f9e1b0e5d42c5af5d2ad1908fee897c7d80a0d928686604051614482929190615251565b60405180910390a450505050565b6000818152600a6020526040812080548291906144ac9061552b565b9050119050919050565b6144c08383614739565b6144cd6000848484614577565b61126d5760405162461bcd60e51b8152600401611137906159de565b6144f38282613de3565b6145495760405162461bcd60e51b815260206004820152602160248201527f526f6c65733a206163636f756e7420646f6573206e6f74206861766520726f6c6044820152606560f81b6064820152608401611137565b6001600160a01b0316600090815260209190915260409020805460ff19169055565b60006116418383614878565b60006001600160a01b0384163b1561466a57604051630a85bd0160e11b81526001600160a01b0385169063150b7a02906145bb903390899088908890600401615a30565b6020604051808303816000875af19250505080156145f6575060408051601f3d908101601f191682019092526145f391810190615a63565b60015b614650573d808015614624576040519150601f19603f3d011682016040523d82523d6000602084013e614629565b606091505b5080516146485760405162461bcd60e51b8152600401611137906159de565b805181602001fd5b6001600160e01b031916630a85bd0160e11b149050611461565b506001949350505050565b600061164183836148c7565b6001600160a01b0383166146dc576146d781600880546000838152600960205260408120829055600182018355919091527ff3f7a9fe364faab93b216da50a3214154f22a0a2b415b23a84c8169e8b636ee30155565b6146ff565b816001600160a01b0316836001600160a01b0316146146ff576146ff83826149ba565b6001600160a01b0382166147165761126d81614a57565b826001600160a01b0316826001600160a01b03161461126d5761126d8282614b06565b6001600160a01b03821661478f5760405162461bcd60e51b815260206004820181905260248201527f4552433732313a206d696e7420746f20746865207a65726f20616464726573736044820152606401611137565b61479881613469565b156147e55760405162461bcd60e51b815260206004820152601c60248201527f4552433732313a20746f6b656e20616c7265616479206d696e746564000000006044820152606401611137565b6147f160008383614320565b6001600160a01b038216600090815260036020526040812080546001929061481a9084906158e1565b909155505060008181526002602052604080822080546001600160a01b0319166001600160a01b03861690811790915590518392907fddf252ad1be2c89b69c2b068fc378daa952ba7f163c4a11628f55a4df523b3ef908290a45050565b60008181526001830160205260408120546148bf57508154600181810184556000848152602080822090930184905584548482528286019093526040902091909155611037565b506000611037565b600081815260018301602052604081205480156149b05760006148eb6001836158ca565b85549091506000906148ff906001906158ca565b905081811461496457600086600001828154811061491f5761491f615566565b906000526020600020015490508087600001848154811061494257614942615566565b6000918252602080832090910192909255918252600188019052604090208390555b855486908061497557614975615a80565b600190038181906000526020600020016000905590558560010160008681526020019081526020016000206000905560019350505050611037565b6000915050611037565b600060016149c784612325565b6149d191906158ca565b600083815260076020526040902054909150808214614a24576001600160a01b03841660009081526006602090815260408083208584528252808320548484528184208190558352600790915290208190555b5060009182526007602090815260408084208490556001600160a01b039094168352600681528383209183525290812055565b600854600090614a69906001906158ca565b60008381526009602052604081205460088054939450909284908110614a9157614a91615566565b906000526020600020015490508060088381548110614ab257614ab2615566565b6000918252602080832090910192909255828152600990915260408082208490558582528120556008805480614aea57614aea615a80565b6001900381819060005260206000200160009055905550505050565b6000614b1183612325565b6001600160a01b039093166000908152600660209081526040808320868452825280832085905593825260079052919091209190915550565b828054614b569061552b565b90600052602060002090601f016020900481019282614b785760008555614bbe565b82601f10614b915782800160ff19823516178555614bbe565b82800160010185558215614bbe579182015b82811115614bbe578235825591602001919060010190614ba3565b5061431c929150614c78565b508054614bd69061552b565b6000825580601f10614be6575050565b601f0160209004906000526020600020908101906117c29190614c78565b828054614c109061552b565b90600052602060002090601f016020900481019282614c325760008555614bbe565b82601f10614c4b57805160ff1916838001178555614bbe565b82800160010185558215614bbe579182015b82811115614bbe578251825591602001919060010190614c5d565b5b8082111561431c5760008155600101614c79565b6001600160e01b0319811681146117c257600080fd5b600060208284031215614cb557600080fd5b813561164181614c8d565b80356001600160a01b0381168114614cd757600080fd5b919050565b600060208284031215614cee57600080fd5b61164182614cc0565b60005b83811015614d12578181015183820152602001614cfa565b8381111561184d5750506000910152565b60008151808452614d3b816020860160208601614cf7565b601f01601f19169290920160200192915050565b6020815260006116416020830184614d23565b600060208284031215614d7457600080fd5b5035919050565b60008060408385031215614d8e57600080fd5b614d9783614cc0565b946020939093013593505050565b60008083601f840112614db757600080fd5b5081356001600160401b03811115614dce57600080fd5b6020830191508360208260051b8501011115614de957600080fd5b9250929050565b600080600060408486031215614e0557600080fd5b83356001600160401b03811115614e1b57600080fd5b614e2786828701614da5565b909790965060209590950135949350505050565b600082825180855260208086019550808260051b84010181860160005b84811015614e8657601f19868403018952614e74838351614d23565b98840198925090830190600101614e58565b5090979650505050505050565b6020815260006116416020830184614e3b565b60008083601f840112614eb857600080fd5b5081356001600160401b03811115614ecf57600080fd5b602083019150836020828501011115614de957600080fd5b600080600060408486031215614efc57600080fd5b83356001600160401b03811115614f1257600080fd5b614e2786828701614ea6565b60008060208385031215614f3157600080fd5b82356001600160401b03811115614f4757600080fd5b614f5385828601614da5565b90969095509350505050565b600080600060608486031215614f7457600080fd5b614f7d84614cc0565b9250614f8b60208501614cc0565b9150604084013590509250925092565b634e487b7160e01b600052604160045260246000fd5b600082601f830112614fc257600080fd5b81356001600160401b0380821115614fdc57614fdc614f9b565b604051601f8301601f19908116603f0116810190828211818310171561500457615004614f9b565b8160405283815286602085880101111561501d57600080fd5b836020870160208301376000602085830101528094505050505092915050565b60006020828403121561504f57600080fd5b81356001600160401b0381111561506557600080fd5b61146184828501614fb1565b60008060008060006060868803121561508957600080fd5b85356001600160401b03808211156150a057600080fd5b6150ac89838a01614da5565b909750955060208801359150808211156150c557600080fd5b506150d288828901614da5565b96999598509660400135949350505050565b600080604083850312156150f757600080fd5b50508035926020909101359150565b60008060008060006060868803121561511e57600080fd5b85356001600160401b038082111561513557600080fd5b61514189838a01614ea6565b9097509550602088013591508082111561515a57600080fd5b506150d288828901614ea6565b6000806000806060858703121561517d57600080fd5b8435935060208501356001600160401b0381111561519a57600080fd5b6151a687828801614ea6565b9598909750949560400135949350505050565b600080602083850312156151cc57600080fd5b82356001600160401b038111156151e257600080fd5b614f5385828601614ea6565b6000806040838503121561520157600080fd5b82356001600160401b038082111561521857600080fd5b61522486838701614fb1565b9350602085013591508082111561523a57600080fd5b5061524785828601614fb1565b9150509250929050565b6040815260006152646040830185614d23565b82810360208401526152768185614d23565b95945050505050565b60008060006060848603121561529457600080fd5b61529d84614cc0565b925060208401356001600160401b03808211156152b957600080fd5b6152c587838801614fb1565b935060408601359150808211156152db57600080fd5b506152e886828701614fb1565b9150509250925092565b60008060006060848603121561530757600080fd5b505081359360208301359350604090920135919050565b60008060006060848603121561533357600080fd5b61533c84614cc0565b92506020840135915060408401356001600160401b0381111561535e57600080fd5b6152e886828701614fb1565b80358015158114614cd757600080fd5b6000806040838503121561538d57600080fd5b61539683614cc0565b9150613d736020840161536a565b6040815260006153b76040830185614e3b565b82810360208401526152768185614e3b565b600080600080608085870312156153df57600080fd5b6153e885614cc0565b93506153f660208601614cc0565b92506040850135915060608501356001600160401b0381111561541857600080fd5b61542487828801614fb1565b91505092959194509250565b6000806040838503121561544357600080fd5b82359150613d7360208401614cc0565b604080825283519082018190526000906020906060840190828701845b8281101561548c57815184529284019290840190600101615470565b505050838103828501526154a08186614e3b565b9695505050505050565b600080604083850312156154bd57600080fd5b8235915060208301356001600160401b038111156154da57600080fd5b61524785828601614fb1565b600080604083850312156154f957600080fd5b61550283614cc0565b9150613d7360208401614cc0565b60006020828403121561552257600080fd5b6116418261536a565b600181811c9082168061553f57607f821691505b6020821081141561556057634e487b7160e01b600052602260045260246000fd5b50919050565b634e487b7160e01b600052603260045260246000fd5b6000808335601e1984360301811261559357600080fd5b8301803591506001600160401b038211156155ad57600080fd5b602001915036819003821315614de957600080fd5b634e487b7160e01b600052601160045260246000fd5b60006000198214156155ec576155ec6155c2565b5060010190565b6020808252818101527f4f776e61626c653a2063616c6c6572206973206e6f7420746865206f776e6572604082015260600190565b6020808252602a908201527f41646d696e436f6e74726f6c3a2073656e646572206d75737420686173206d696040820152696e74696e6720726f6c6560b01b606082015260800190565b8183823760009101908152919050565b60208082526031908201527f4552433732313a207472616e736665722063616c6c6572206973206e6f74206f6040820152701ddb995c881b9bdc88185c1c1c9bdd9959607a1b606082015260800190565b60208082526030908201527f526576657273655265736f6c7665723a2053454e4445525f49535f4e4f545f4160408201526f28282927ab22a22fa7a92fa7aba722a960811b606082015260800190565b60008251615735818460208701614cf7565b9190910192915050565b60208082526022908201527f546f70206c6576656c20646f6d61696e206d757374206265206e6f6e2d656d70604082015261747960f01b606082015260800190565b60208082526035908201527f496e73756666696369656e7420546f6b656e206f7220546f6b656e2076616c7560408201527419481cd95b9d081a5cc81b9bdd0818dbdc9c9958dd605a1b606082015260800190565b600083516157e8818460208801614cf7565b601760f91b9083019081528351615806816001840160208801614cf7565b01600101949350505050565b60208082526028908201527f526576657273655265736f6c7665723a20524556455253455f5245434f52445f60408201526749535f454d50545960c01b606082015260800190565b6000835161586c818460208801614cf7565b835190830190615880818360208801614cf7565b01949350505050565b6000835161589b818460208801614cf7565b9190910191825250602001919050565b60008160001904831182151516156158c5576158c56155c2565b500290565b6000828210156158dc576158dc6155c2565b500390565b600082198211156158f4576158f46155c2565b500190565b600060ff821660ff84168060ff03821115615916576159166155c2565b019392505050565b6000835160206159318285838901614cf7565b601760f91b918401918252845460019060009080831c8184168061595657607f821691505b85821081141561597457634e487b7160e01b84526022600452602484fd5b808015615988576001811461599d576159ce565b60ff19841688870152828801860194506159ce565b60008b81526020902060005b848110156159c45781548a82018901529087019088016159a9565b5050858389010194505b50929a9950505050505050505050565b60208082526032908201527f4552433732313a207472616e7366657220746f206e6f6e20455243373231526560408201527131b2b4bb32b91034b6b83632b6b2b73a32b960711b606082015260800190565b6001600160a01b03858116825284166020820152604081018390526080606082018190526000906154a090830184614d23565b600060208284031215615a7557600080fd5b815161164181614c8d565b634e487b7160e01b600052603160045260246000fdfea2646970667358221220d46b2d7c641094e447ac1d43da637791f8694ab1c0b13b61dff147267518b48964736f6c634300080c0033",
			"opcodes": "PUSH1 0x10 DUP1 SLOAD PUSH1 0xFF NOT SWAP1 DUP2 AND SWAP1 SWAP2 SSTORE PUSH1 0x12 DUP1 SLOAD SWAP1 SWAP2 AND SWAP1 SSTORE PUSH1 0xA0 PUSH1 0x40 DUP2 SWAP1 MSTORE PUSH1 0x0 PUSH1 0x80 DUP2 SWAP1 MSTORE PUSH3 0x31 SWAP2 PUSH1 0x19 SWAP2 PUSH3 0x27F JUMP JUMPDEST POP PUSH1 0x1A DUP1 SLOAD PUSH2 0xFFFF NOT AND PUSH1 0x1 OR SWAP1 SSTORE PUSH8 0xDE0B6B3A7640000 PUSH1 0x1B SSTORE PUSH1 0x64 PUSH1 0x1C SSTORE PUSH1 0xA PUSH1 0x1D SSTORE PUSH1 0x5 PUSH1 0x1E SSTORE CALLVALUE DUP1 ISZERO PUSH3 0x68 JUMPI PUSH1 0x0 DUP1 REVERT JUMPDEST POP PUSH1 0x40 DUP1 MLOAD DUP1 DUP3 ADD DUP3 MSTORE PUSH1 0x12 DUP2 MSTORE PUSH18 0x4173746172205765623320446F6D61696E73 PUSH1 0x70 SHL PUSH1 0x20 DUP1 DUP4 ADD SWAP2 DUP3 MSTORE DUP4 MLOAD DUP1 DUP6 ADD SWAP1 SWAP5 MSTORE PUSH1 0x3 DUP5 MSTORE PUSH3 0x1055D1 PUSH1 0xEA SHL SWAP1 DUP5 ADD MSTORE DUP2 MLOAD SWAP2 SWAP3 SWAP2 PUSH3 0xBE SWAP2 PUSH1 0x0 SWAP2 PUSH3 0x27F JUMP JUMPDEST POP DUP1 MLOAD PUSH3 0xD4 SWAP1 PUSH1 0x1 SWAP1 PUSH1 0x20 DUP5 ADD SWAP1 PUSH3 0x27F JUMP JUMPDEST POP POP POP PUSH3 0xF1 PUSH3 0xEB PUSH3 0x102 PUSH1 0x20 SHL PUSH1 0x20 SHR JUMP JUMPDEST PUSH3 0x106 JUMP JUMPDEST PUSH3 0xFC CALLER PUSH3 0x158 JUMP JUMPDEST PUSH3 0x362 JUMP JUMPDEST CALLER SWAP1 JUMP JUMPDEST PUSH1 0xB DUP1 SLOAD PUSH1 0x1 PUSH1 0x1 PUSH1 0xA0 SHL SUB DUP4 DUP2 AND PUSH1 0x1 PUSH1 0x1 PUSH1 0xA0 SHL SUB NOT DUP4 AND DUP2 OR SWAP1 SWAP4 SSTORE PUSH1 0x40 MLOAD SWAP2 AND SWAP2 SWAP1 DUP3 SWAP1 PUSH32 0x8BE0079C531659141344CD1FD0A4F28419497F9722A3DAAFE3B4186F6B6457E0 SWAP1 PUSH1 0x0 SWAP1 LOG3 POP POP JUMP JUMPDEST PUSH3 0x173 DUP2 PUSH1 0xC PUSH3 0x176 PUSH1 0x20 SHL PUSH3 0x33C8 OR SWAP1 SWAP2 SWAP1 PUSH1 0x20 SHR JUMP JUMPDEST POP JUMP JUMPDEST PUSH3 0x182 DUP3 DUP3 PUSH3 0x1FA JUMP JUMPDEST ISZERO PUSH3 0x1D5 JUMPI PUSH1 0x40 MLOAD PUSH3 0x461BCD PUSH1 0xE5 SHL DUP2 MSTORE PUSH1 0x20 PUSH1 0x4 DUP3 ADD MSTORE PUSH1 0x1F PUSH1 0x24 DUP3 ADD MSTORE PUSH32 0x526F6C65733A206163636F756E7420616C72656164792068617320726F6C6500 PUSH1 0x44 DUP3 ADD MSTORE PUSH1 0x64 ADD JUMPDEST PUSH1 0x40 MLOAD DUP1 SWAP2 SUB SWAP1 REVERT JUMPDEST PUSH1 0x1 PUSH1 0x1 PUSH1 0xA0 SHL SUB AND PUSH1 0x0 SWAP1 DUP2 MSTORE PUSH1 0x20 SWAP2 SWAP1 SWAP2 MSTORE PUSH1 0x40 SWAP1 KECCAK256 DUP1 SLOAD PUSH1 0xFF NOT AND PUSH1 0x1 OR SWAP1 SSTORE JUMP JUMPDEST PUSH1 0x0 PUSH1 0x1 PUSH1 0x1 PUSH1 0xA0 SHL SUB DUP3 AND PUSH3 0x25F JUMPI PUSH1 0x40 MLOAD PUSH3 0x461BCD PUSH1 0xE5 SHL DUP2 MSTORE PUSH1 0x20 PUSH1 0x4 DUP3 ADD MSTORE PUSH1 0x22 PUSH1 0x24 DUP3 ADD MSTORE PUSH32 0x526F6C65733A206163636F756E7420697320746865207A65726F206164647265 PUSH1 0x44 DUP3 ADD MSTORE PUSH2 0x7373 PUSH1 0xF0 SHL PUSH1 0x64 DUP3 ADD MSTORE PUSH1 0x84 ADD PUSH3 0x1CC JUMP JUMPDEST POP PUSH1 0x1 PUSH1 0x1 PUSH1 0xA0 SHL SUB AND PUSH1 0x0 SWAP1 DUP2 MSTORE PUSH1 0x20 SWAP2 SWAP1 SWAP2 MSTORE PUSH1 0x40 SWAP1 KECCAK256 SLOAD PUSH1 0xFF AND SWAP1 JUMP JUMPDEST DUP3 DUP1 SLOAD PUSH3 0x28D SWAP1 PUSH3 0x325 JUMP JUMPDEST SWAP1 PUSH1 0x0 MSTORE PUSH1 0x20 PUSH1 0x0 KECCAK256 SWAP1 PUSH1 0x1F ADD PUSH1 0x20 SWAP1 DIV DUP2 ADD SWAP3 DUP3 PUSH3 0x2B1 JUMPI PUSH1 0x0 DUP6 SSTORE PUSH3 0x2FC JUMP JUMPDEST DUP3 PUSH1 0x1F LT PUSH3 0x2CC JUMPI DUP1 MLOAD PUSH1 0xFF NOT AND DUP4 DUP1 ADD OR DUP6 SSTORE PUSH3 0x2FC JUMP JUMPDEST DUP3 DUP1 ADD PUSH1 0x1 ADD DUP6 SSTORE DUP3 ISZERO PUSH3 0x2FC JUMPI SWAP2 DUP3 ADD JUMPDEST DUP3 DUP2 GT ISZERO PUSH3 0x2FC JUMPI DUP3 MLOAD DUP3 SSTORE SWAP2 PUSH1 0x20 ADD SWAP2 SWAP1 PUSH1 0x1 ADD SWAP1 PUSH3 0x2DF JUMP JUMPDEST POP PUSH3 0x30A SWAP3 SWAP2 POP PUSH3 0x30E JUMP JUMPDEST POP SWAP1 JUMP JUMPDEST JUMPDEST DUP1 DUP3 GT ISZERO PUSH3 0x30A JUMPI PUSH1 0x0 DUP2 SSTORE PUSH1 0x1 ADD PUSH3 0x30F JUMP JUMPDEST PUSH1 0x1 DUP2 DUP2 SHR SWAP1 DUP3 AND DUP1 PUSH3 0x33A JUMPI PUSH1 0x7F DUP3 AND SWAP2 POP JUMPDEST PUSH1 0x20 DUP3 LT DUP2 EQ ISZERO PUSH3 0x35C JUMPI PUSH4 0x4E487B71 PUSH1 0xE0 SHL PUSH1 0x0 MSTORE PUSH1 0x22 PUSH1 0x4 MSTORE PUSH1 0x24 PUSH1 0x0 REVERT JUMPDEST POP SWAP2 SWAP1 POP JUMP JUMPDEST PUSH2 0x5ACC DUP1 PUSH3 0x372 PUSH1 0x0 CODECOPY PUSH1 0x0 RETURN INVALID PUSH1 0x80 PUSH1 0x40 MSTORE PUSH1 0x4 CALLDATASIZE LT PUSH2 0x4E1 JUMPI PUSH1 0x0 CALLDATALOAD PUSH1 0xE0 SHR DUP1 PUSH4 0x6BC2290F GT PUSH2 0x281 JUMPI DUP1 PUSH4 0xB3F9E4CB GT PUSH2 0x15A JUMPI DUP1 PUSH4 0xCE92B33E GT PUSH2 0xCC JUMPI DUP1 PUSH4 0xEC129EEA GT PUSH2 0x85 JUMPI DUP1 PUSH4 0xEC129EEA EQ PUSH2 0xF77 JUMPI DUP1 PUSH4 0xECEB7D52 EQ PUSH2 0xF97 JUMPI DUP1 PUSH4 0xF25EB5C1 EQ PUSH2 0xFB7 JUMPI DUP1 PUSH4 0xF2FDE38B EQ PUSH2 0xFCC JUMPI DUP1 PUSH4 0xF5C1F76E EQ PUSH2 0xFEC JUMPI DUP1 PUSH4 0xF6283AD4 EQ PUSH2 0x100C JUMPI PUSH1 0x0 DUP1 REVERT JUMPDEST DUP1 PUSH4 0xCE92B33E EQ PUSH2 0xE8C JUMPI DUP1 PUSH4 0xD2315630 EQ PUSH2 0xEAC JUMPI DUP1 PUSH4 0xD439DAA2 EQ PUSH2 0xEC1 JUMPI DUP1 PUSH4 0xE5F9DA88 EQ PUSH2 0xEF9 JUMPI DUP1 PUSH4 0xE985E9C5 EQ PUSH2 0xF19 JUMPI DUP1 PUSH4 0xEA7B25BE EQ PUSH2 0xF62 JUMPI PUSH1 0x0 DUP1 REVERT JUMPDEST DUP1 PUSH4 0xBC7C8CEB GT PUSH2 0x11E JUMPI DUP1 PUSH4 0xBC7C8CEB EQ PUSH2 0xDCF JUMPI DUP1 PUSH4 0xBCBA4C1B EQ PUSH2 0xDFD JUMPI DUP1 PUSH4 0xC479A804 EQ PUSH2 0xE1D JUMPI DUP1 PUSH4 0xC6438CB8 EQ PUSH2 0xE3D JUMPI DUP1 PUSH4 0xC7BC6D68 EQ PUSH2 0xE52 JUMPI DUP1 PUSH4 0xC87B56DD EQ PUSH2 0xE6C JUMPI PUSH1 0x0 DUP1 REVERT JUMPDEST DUP1 PUSH4 0xB3F9E4CB EQ PUSH2 0xD21 JUMPI DUP1 PUSH4 0xB85AFD28 EQ PUSH2 0xD41 JUMPI DUP1 PUSH4 0xB88D4FDE EQ PUSH2 0xD6F JUMPI DUP1 PUSH4 0xBB5B27E1 EQ PUSH2 0xD8F JUMPI DUP1 PUSH4 0xBC7B6D62 EQ PUSH2 0xDAF JUMPI PUSH1 0x0 DUP1 REVERT JUMPDEST DUP1 PUSH4 0x8DA5CB5B GT PUSH2 0x1F3 JUMPI DUP1 PUSH4 0x98D5FDCA GT PUSH2 0x1B7 JUMPI DUP1 PUSH4 0x98D5FDCA EQ PUSH2 0xC56 JUMPI DUP1 PUSH4 0x9CBF529D EQ PUSH2 0xC6B JUMPI DUP1 PUSH4 0xA22CB465 EQ PUSH2 0xC8B JUMPI DUP1 PUSH4 0xA736868B EQ PUSH2 0xCAB JUMPI DUP1 PUSH4 0xAB3B87FE EQ PUSH2 0xCE1 JUMPI DUP1 PUSH4 0xAD59E226 EQ PUSH2 0xD01 JUMPI PUSH1 0x0 DUP1 REVERT JUMPDEST DUP1 PUSH4 0x8DA5CB5B EQ PUSH2 0xBC3 JUMPI DUP1 PUSH4 0x8F704AEC EQ PUSH2 0xBE1 JUMPI DUP1 PUSH4 0x91B7F5ED EQ PUSH2 0xC01 JUMPI DUP1 PUSH4 0x95D89B41 EQ PUSH2 0xC21 JUMPI DUP1 PUSH4 0x98A60243 EQ PUSH2 0xC36 JUMPI PUSH1 0x0 DUP1 REVERT JUMPDEST DUP1 PUSH4 0x77E9D00B GT PUSH2 0x245 JUMPI DUP1 PUSH4 0x77E9D00B EQ PUSH2 0xB03 JUMPI DUP1 PUSH4 0x79F80722 EQ PUSH2 0xB23 JUMPI DUP1 PUSH4 0x7CE45383 EQ PUSH2 0xB43 JUMPI DUP1 PUSH4 0x7E37479E EQ PUSH2 0xB63 JUMPI DUP1 PUSH4 0x7EF09BCA EQ PUSH2 0xB83 JUMPI DUP1 PUSH4 0x8A4C7577 EQ PUSH2 0xBA3 JUMPI PUSH1 0x0 DUP1 REVERT JUMPDEST DUP1 PUSH4 0x6BC2290F EQ PUSH2 0xA79 JUMPI DUP1 PUSH4 0x6E2DB8D7 EQ PUSH2 0xA8E JUMPI DUP1 PUSH4 0x70A08231 EQ PUSH2 0xAAE JUMPI DUP1 PUSH4 0x715018A6 EQ PUSH2 0xACE JUMPI DUP1 PUSH4 0x76F909AE EQ PUSH2 0xAE3 JUMPI PUSH1 0x0 DUP1 REVERT JUMPDEST DUP1 PUSH4 0x3DD1EB61 GT PUSH2 0x3BE JUMPI DUP1 PUSH4 0x4F558E79 GT PUSH2 0x330 JUMPI DUP1 PUSH4 0x573F5DAE GT PUSH2 0x2E9 JUMPI DUP1 PUSH4 0x573F5DAE EQ PUSH2 0x9C4 JUMPI DUP1 PUSH4 0x5D893BA0 EQ PUSH2 0x9DE JUMPI DUP1 PUSH4 0x6352211E EQ PUSH2 0x9F8 JUMPI DUP1 PUSH4 0x65064370 EQ PUSH2 0xA18 JUMPI DUP1 PUSH4 0x672B9F81 EQ PUSH2 0xA2B JUMPI DUP1 PUSH4 0x69E2F0FB EQ PUSH2 0xA59 JUMPI PUSH1 0x0 DUP1 REVERT JUMPDEST DUP1 PUSH4 0x4F558E79 EQ PUSH2 0x904 JUMPI DUP1 PUSH4 0x4F6CCCE7 EQ PUSH2 0x924 JUMPI DUP1 PUSH4 0x50382C1A EQ PUSH2 0x944 JUMPI DUP1 PUSH4 0x50B3A144 EQ PUSH2 0x964 JUMPI DUP1 PUSH4 0x559F7414 EQ PUSH2 0x984 JUMPI DUP1 PUSH4 0x55F804B3 EQ PUSH2 0x9A4 JUMPI PUSH1 0x0 DUP1 REVERT JUMPDEST DUP1 PUSH4 0x434D8ACA GT PUSH2 0x382 JUMPI DUP1 PUSH4 0x434D8ACA EQ PUSH2 0x85A JUMPI DUP1 PUSH4 0x4500D449 EQ PUSH2 0x87A JUMPI DUP1 PUSH4 0x47C81699 EQ PUSH2 0x88F JUMPI DUP1 PUSH4 0x4A72584D EQ PUSH2 0x8AF JUMPI DUP1 PUSH4 0x4AAF4A12 EQ PUSH2 0x8CF JUMPI DUP1 PUSH4 0x4CD637B5 EQ PUSH2 0x8EF JUMPI PUSH1 0x0 DUP1 REVERT JUMPDEST DUP1 PUSH4 0x3DD1EB61 EQ PUSH2 0x7BA JUMPI DUP1 PUSH4 0x426932C7 EQ PUSH2 0x7DA JUMPI DUP1 PUSH4 0x42842E0E EQ PUSH2 0x7FA JUMPI DUP1 PUSH4 0x42966C68 EQ PUSH2 0x81A JUMPI DUP1 PUSH4 0x430C2081 EQ PUSH2 0x83A JUMPI PUSH1 0x0 DUP1 REVERT JUMPDEST DUP1 PUSH4 0x1ED40559 GT PUSH2 0x457 JUMPI DUP1 PUSH4 0x2DC50D9A GT PUSH2 0x41B JUMPI DUP1 PUSH4 0x2DC50D9A EQ PUSH2 0x71D JUMPI DUP1 PUSH4 0x2F745C59 EQ PUSH2 0x73D JUMPI DUP1 PUSH4 0x310BD74B EQ PUSH2 0x75D JUMPI DUP1 PUSH4 0x358DEB1C EQ PUSH2 0x77D JUMPI DUP1 PUSH4 0x384E9A55 EQ PUSH2 0x792 JUMPI DUP1 PUSH4 0x3CCFD60B EQ PUSH2 0x7B2 JUMPI PUSH1 0x0 DUP1 REVERT JUMPDEST DUP1 PUSH4 0x1ED40559 EQ PUSH2 0x688 JUMPI DUP1 PUSH4 0x2319AFDE EQ PUSH2 0x69D JUMPI DUP1 PUSH4 0x23B872DD EQ PUSH2 0x6BD JUMPI DUP1 PUSH4 0x23BBDE56 EQ PUSH2 0x6DD JUMPI DUP1 PUSH4 0x27F18975 EQ PUSH2 0x6FD JUMPI PUSH1 0x0 DUP1 REVERT JUMPDEST DUP1 PUSH4 0x95EA7B3 GT PUSH2 0x4A9 JUMPI DUP1 PUSH4 0x95EA7B3 EQ PUSH2 0x5CF JUMPI DUP1 PUSH4 0xBB78EC1 EQ PUSH2 0x5F1 JUMPI DUP1 PUSH4 0x157C6138 EQ PUSH2 0x611 JUMPI DUP1 PUSH4 0x18160DDD EQ PUSH2 0x626 JUMPI DUP1 PUSH4 0x1BD8CC1A EQ PUSH2 0x63B JUMPI DUP1 PUSH4 0x1BE5E7ED EQ PUSH2 0x668 JUMPI PUSH1 0x0 DUP1 REVERT JUMPDEST DUP1 PUSH4 0x1FFC9A7 EQ PUSH2 0x4E6 JUMPI DUP1 PUSH4 0x302E953 EQ PUSH2 0x51B JUMPI DUP1 PUSH4 0x5D60FFB EQ PUSH2 0x53A JUMPI DUP1 PUSH4 0x6FDDE03 EQ PUSH2 0x575 JUMPI DUP1 PUSH4 0x81812FC EQ PUSH2 0x597 JUMPI JUMPDEST PUSH1 0x0 DUP1 REVERT JUMPDEST CALLVALUE DUP1 ISZERO PUSH2 0x4F2 JUMPI PUSH1 0x0 DUP1 REVERT JUMPDEST POP PUSH2 0x506 PUSH2 0x501 CALLDATASIZE PUSH1 0x4 PUSH2 0x4CA3 JUMP JUMPDEST PUSH2 0x102C JUMP JUMPDEST PUSH1 0x40 MLOAD SWAP1 ISZERO ISZERO DUP2 MSTORE PUSH1 0x20 ADD JUMPDEST PUSH1 0x40 MLOAD DUP1 SWAP2 SUB SWAP1 RETURN JUMPDEST CALLVALUE DUP1 ISZERO PUSH2 0x527 JUMPI PUSH1 0x0 DUP1 REVERT JUMPDEST POP PUSH1 0x1A SLOAD PUSH2 0x506 SWAP1 PUSH2 0x100 SWAP1 DIV PUSH1 0xFF AND DUP2 JUMP JUMPDEST CALLVALUE DUP1 ISZERO PUSH2 0x546 JUMPI PUSH1 0x0 DUP1 REVERT JUMPDEST POP PUSH2 0x567 PUSH2 0x555 CALLDATASIZE PUSH1 0x4 PUSH2 0x4CDC JUMP JUMPDEST PUSH1 0xF PUSH1 0x20 MSTORE PUSH1 0x0 SWAP1 DUP2 MSTORE PUSH1 0x40 SWAP1 KECCAK256 SLOAD DUP2 JUMP JUMPDEST PUSH1 0x40 MLOAD SWAP1 DUP2 MSTORE PUSH1 0x20 ADD PUSH2 0x512 JUMP JUMPDEST CALLVALUE DUP1 ISZERO PUSH2 0x581 JUMPI PUSH1 0x0 DUP1 REVERT JUMPDEST POP PUSH2 0x58A PUSH2 0x103D JUMP JUMPDEST PUSH1 0x40 MLOAD PUSH2 0x512 SWAP2 SWAP1 PUSH2 0x4D4F JUMP JUMPDEST CALLVALUE DUP1 ISZERO PUSH2 0x5A3 JUMPI PUSH1 0x0 DUP1 REVERT JUMPDEST POP PUSH2 0x5B7 PUSH2 0x5B2 CALLDATASIZE PUSH1 0x4 PUSH2 0x4D62 JUMP JUMPDEST PUSH2 0x10CF JUMP JUMPDEST PUSH1 0x40 MLOAD PUSH1 0x1 PUSH1 0x1 PUSH1 0xA0 SHL SUB SWAP1 SWAP2 AND DUP2 MSTORE PUSH1 0x20 ADD PUSH2 0x512 JUMP JUMPDEST CALLVALUE DUP1 ISZERO PUSH2 0x5DB JUMPI PUSH1 0x0 DUP1 REVERT JUMPDEST POP PUSH2 0x5EF PUSH2 0x5EA CALLDATASIZE PUSH1 0x4 PUSH2 0x4D7B JUMP JUMPDEST PUSH2 0x115C JUMP JUMPDEST STOP JUMPDEST CALLVALUE DUP1 ISZERO PUSH2 0x5FD JUMPI PUSH1 0x0 DUP1 REVERT JUMPDEST POP PUSH2 0x58A PUSH2 0x60C CALLDATASIZE PUSH1 0x4 PUSH2 0x4D62 JUMP JUMPDEST PUSH2 0x1272 JUMP JUMPDEST CALLVALUE DUP1 ISZERO PUSH2 0x61D JUMPI PUSH1 0x0 DUP1 REVERT JUMPDEST POP PUSH2 0x567 PUSH2 0x130C JUMP JUMPDEST CALLVALUE DUP1 ISZERO PUSH2 0x632 JUMPI PUSH1 0x0 DUP1 REVERT JUMPDEST POP PUSH1 0x8 SLOAD PUSH2 0x567 JUMP JUMPDEST CALLVALUE DUP1 ISZERO PUSH2 0x647 JUMPI PUSH1 0x0 DUP1 REVERT JUMPDEST POP PUSH2 0x65B PUSH2 0x656 CALLDATASIZE PUSH1 0x4 PUSH2 0x4DF0 JUMP JUMPDEST PUSH2 0x1328 JUMP JUMPDEST PUSH1 0x40 MLOAD PUSH2 0x512 SWAP2 SWAP1 PUSH2 0x4E93 JUMP JUMPDEST CALLVALUE DUP1 ISZERO PUSH2 0x674 JUMPI PUSH1 0x0 DUP1 REVERT JUMPDEST POP PUSH2 0x58A PUSH2 0x683 CALLDATASIZE PUSH1 0x4 PUSH2 0x4EE7 JUMP JUMPDEST PUSH2 0x141E JUMP JUMPDEST CALLVALUE DUP1 ISZERO PUSH2 0x694 JUMPI PUSH1 0x0 DUP1 REVERT JUMPDEST POP PUSH2 0x5EF PUSH2 0x1469 JUMP JUMPDEST CALLVALUE DUP1 ISZERO PUSH2 0x6A9 JUMPI PUSH1 0x0 DUP1 REVERT JUMPDEST POP PUSH2 0x5EF PUSH2 0x6B8 CALLDATASIZE PUSH1 0x4 PUSH2 0x4F1E JUMP JUMPDEST PUSH2 0x14A7 JUMP JUMPDEST CALLVALUE DUP1 ISZERO PUSH2 0x6C9 JUMPI PUSH1 0x0 DUP1 REVERT JUMPDEST POP PUSH2 0x5EF PUSH2 0x6D8 CALLDATASIZE PUSH1 0x4 PUSH2 0x4F5F JUMP JUMPDEST PUSH2 0x155C JUMP JUMPDEST CALLVALUE DUP1 ISZERO PUSH2 0x6E9 JUMPI PUSH1 0x0 DUP1 REVERT JUMPDEST POP PUSH2 0x5EF PUSH2 0x6F8 CALLDATASIZE PUSH1 0x4 PUSH2 0x503D JUMP JUMPDEST PUSH2 0x1597 JUMP JUMPDEST CALLVALUE DUP1 ISZERO PUSH2 0x709 JUMPI PUSH1 0x0 DUP1 REVERT JUMPDEST POP PUSH2 0x5EF PUSH2 0x718 CALLDATASIZE PUSH1 0x4 PUSH2 0x5071 JUMP JUMPDEST PUSH2 0x15EB JUMP JUMPDEST CALLVALUE DUP1 ISZERO PUSH2 0x729 JUMPI PUSH1 0x0 DUP1 REVERT JUMPDEST POP PUSH2 0x567 PUSH2 0x738 CALLDATASIZE PUSH1 0x4 PUSH2 0x50E4 JUMP JUMPDEST PUSH2 0x1613 JUMP JUMPDEST CALLVALUE DUP1 ISZERO PUSH2 0x749 JUMPI PUSH1 0x0 DUP1 REVERT JUMPDEST POP PUSH2 0x567 PUSH2 0x758 CALLDATASIZE PUSH1 0x4 PUSH2 0x4D7B JUMP JUMPDEST PUSH2 0x1648 JUMP JUMPDEST CALLVALUE DUP1 ISZERO PUSH2 0x769 JUMPI PUSH1 0x0 DUP1 REVERT JUMPDEST POP PUSH2 0x5EF PUSH2 0x778 CALLDATASIZE PUSH1 0x4 PUSH2 0x4D62 JUMP JUMPDEST PUSH2 0x16DE JUMP JUMPDEST CALLVALUE DUP1 ISZERO PUSH2 0x789 JUMPI PUSH1 0x0 DUP1 REVERT JUMPDEST POP PUSH1 0x1D SLOAD PUSH2 0x567 JUMP JUMPDEST CALLVALUE DUP1 ISZERO PUSH2 0x79E JUMPI PUSH1 0x0 DUP1 REVERT JUMPDEST POP PUSH2 0x5EF PUSH2 0x7AD CALLDATASIZE PUSH1 0x4 PUSH2 0x4D62 JUMP JUMPDEST PUSH2 0x16FE JUMP JUMPDEST PUSH2 0x5EF PUSH2 0x173F JUMP JUMPDEST CALLVALUE DUP1 ISZERO PUSH2 0x7C6 JUMPI PUSH1 0x0 DUP1 REVERT JUMPDEST POP PUSH2 0x5EF PUSH2 0x7D5 CALLDATASIZE PUSH1 0x4 PUSH2 0x4CDC JUMP JUMPDEST PUSH2 0x178F JUMP JUMPDEST CALLVALUE DUP1 ISZERO PUSH2 0x7E6 JUMPI PUSH1 0x0 DUP1 REVERT JUMPDEST POP PUSH2 0x5EF PUSH2 0x7F5 CALLDATASIZE PUSH1 0x4 PUSH2 0x4DF0 JUMP JUMPDEST PUSH2 0x17C5 JUMP JUMPDEST CALLVALUE DUP1 ISZERO PUSH2 0x806 JUMPI PUSH1 0x0 DUP1 REVERT JUMPDEST POP PUSH2 0x5EF PUSH2 0x815 CALLDATASIZE PUSH1 0x4 PUSH2 0x4F5F JUMP JUMPDEST PUSH2 0x1853 JUMP JUMPDEST CALLVALUE DUP1 ISZERO PUSH2 0x826 JUMPI PUSH1 0x0 DUP1 REVERT JUMPDEST POP PUSH2 0x5EF PUSH2 0x835 CALLDATASIZE PUSH1 0x4 PUSH2 0x4D62 JUMP JUMPDEST PUSH2 0x186E JUMP JUMPDEST CALLVALUE DUP1 ISZERO PUSH2 0x846 JUMPI PUSH1 0x0 DUP1 REVERT JUMPDEST POP PUSH2 0x506 PUSH2 0x855 CALLDATASIZE PUSH1 0x4 PUSH2 0x4D7B JUMP JUMPDEST PUSH2 0x1985 JUMP JUMPDEST CALLVALUE DUP1 ISZERO PUSH2 0x866 JUMPI PUSH1 0x0 DUP1 REVERT JUMPDEST POP PUSH2 0x58A PUSH2 0x875 CALLDATASIZE PUSH1 0x4 PUSH2 0x503D JUMP JUMPDEST PUSH2 0x1991 JUMP JUMPDEST CALLVALUE DUP1 ISZERO PUSH2 0x886 JUMPI PUSH1 0x0 DUP1 REVERT JUMPDEST POP PUSH2 0x5EF PUSH2 0x19B5 JUMP JUMPDEST CALLVALUE DUP1 ISZERO PUSH2 0x89B JUMPI PUSH1 0x0 DUP1 REVERT JUMPDEST POP PUSH2 0x5EF PUSH2 0x8AA CALLDATASIZE PUSH1 0x4 PUSH2 0x5106 JUMP JUMPDEST PUSH2 0x19FC JUMP JUMPDEST CALLVALUE DUP1 ISZERO PUSH2 0x8BB JUMPI PUSH1 0x0 DUP1 REVERT JUMPDEST POP PUSH2 0x5EF PUSH2 0x8CA CALLDATASIZE PUSH1 0x4 PUSH2 0x5167 JUMP JUMPDEST PUSH2 0x1A1C JUMP JUMPDEST CALLVALUE DUP1 ISZERO PUSH2 0x8DB JUMPI PUSH1 0x0 DUP1 REVERT JUMPDEST POP PUSH2 0x5B7 PUSH2 0x8EA CALLDATASIZE PUSH1 0x4 PUSH2 0x503D JUMP JUMPDEST PUSH2 0x1A42 JUMP JUMPDEST CALLVALUE DUP1 ISZERO PUSH2 0x8FB JUMPI PUSH1 0x0 DUP1 REVERT JUMPDEST POP PUSH2 0x567 PUSH2 0x1A87 JUMP JUMPDEST CALLVALUE DUP1 ISZERO PUSH2 0x910 JUMPI PUSH1 0x0 DUP1 REVERT JUMPDEST POP PUSH2 0x506 PUSH2 0x91F CALLDATASIZE PUSH1 0x4 PUSH2 0x4D62 JUMP JUMPDEST PUSH2 0x1A98 JUMP JUMPDEST CALLVALUE DUP1 ISZERO PUSH2 0x930 JUMPI PUSH1 0x0 DUP1 REVERT JUMPDEST POP PUSH2 0x567 PUSH2 0x93F CALLDATASIZE PUSH1 0x4 PUSH2 0x4D62 JUMP JUMPDEST PUSH2 0x1AA3 JUMP JUMPDEST CALLVALUE DUP1 ISZERO PUSH2 0x950 JUMPI PUSH1 0x0 DUP1 REVERT JUMPDEST POP PUSH2 0x5EF PUSH2 0x95F CALLDATASIZE PUSH1 0x4 PUSH2 0x503D JUMP JUMPDEST PUSH2 0x1B36 JUMP JUMPDEST CALLVALUE DUP1 ISZERO PUSH2 0x970 JUMPI PUSH1 0x0 DUP1 REVERT JUMPDEST POP PUSH2 0x567 PUSH2 0x97F CALLDATASIZE PUSH1 0x4 PUSH2 0x503D JUMP JUMPDEST PUSH2 0x1B69 JUMP JUMPDEST CALLVALUE DUP1 ISZERO PUSH2 0x990 JUMPI PUSH1 0x0 DUP1 REVERT JUMPDEST POP PUSH2 0x5EF PUSH2 0x99F CALLDATASIZE PUSH1 0x4 PUSH2 0x51B9 JUMP JUMPDEST PUSH2 0x1BA9 JUMP JUMPDEST CALLVALUE DUP1 ISZERO PUSH2 0x9B0 JUMPI PUSH1 0x0 DUP1 REVERT JUMPDEST POP PUSH2 0x5EF PUSH2 0x9BF CALLDATASIZE PUSH1 0x4 PUSH2 0x503D JUMP JUMPDEST PUSH2 0x1BFC JUMP JUMPDEST CALLVALUE DUP1 ISZERO PUSH2 0x9D0 JUMPI PUSH1 0x0 DUP1 REVERT JUMPDEST POP PUSH1 0x10 SLOAD PUSH2 0x506 SWAP1 PUSH1 0xFF AND DUP2 JUMP JUMPDEST CALLVALUE DUP1 ISZERO PUSH2 0x9EA JUMPI PUSH1 0x0 DUP1 REVERT JUMPDEST POP PUSH1 0x1A SLOAD PUSH2 0x506 SWAP1 PUSH1 0xFF AND DUP2 JUMP JUMPDEST CALLVALUE DUP1 ISZERO PUSH2 0xA04 JUMPI PUSH1 0x0 DUP1 REVERT JUMPDEST POP PUSH2 0x5B7 PUSH2 0xA13 CALLDATASIZE PUSH1 0x4 PUSH2 0x4D62 JUMP JUMPDEST PUSH2 0x1C39 JUMP JUMPDEST PUSH2 0x5EF PUSH2 0xA26 CALLDATASIZE PUSH1 0x4 PUSH2 0x51EE JUMP JUMPDEST PUSH2 0x1CB0 JUMP JUMPDEST CALLVALUE DUP1 ISZERO PUSH2 0xA37 JUMPI PUSH1 0x0 DUP1 REVERT JUMPDEST POP PUSH2 0xA4B PUSH2 0xA46 CALLDATASIZE PUSH1 0x4 PUSH2 0x50E4 JUMP JUMPDEST PUSH2 0x2299 JUMP JUMPDEST PUSH1 0x40 MLOAD PUSH2 0x512 SWAP3 SWAP2 SWAP1 PUSH2 0x5251 JUMP JUMPDEST CALLVALUE DUP1 ISZERO PUSH2 0xA65 JUMPI PUSH1 0x0 DUP1 REVERT JUMPDEST POP PUSH2 0x5EF PUSH2 0xA74 CALLDATASIZE PUSH1 0x4 PUSH2 0x4CDC JUMP JUMPDEST PUSH2 0x22B1 JUMP JUMPDEST CALLVALUE DUP1 ISZERO PUSH2 0xA85 JUMPI PUSH1 0x0 DUP1 REVERT JUMPDEST POP PUSH1 0x1C SLOAD PUSH2 0x567 JUMP JUMPDEST CALLVALUE DUP1 ISZERO PUSH2 0xA9A JUMPI PUSH1 0x0 DUP1 REVERT JUMPDEST POP PUSH2 0x5EF PUSH2 0xAA9 CALLDATASIZE PUSH1 0x4 PUSH2 0x4D7B JUMP JUMPDEST PUSH2 0x22E4 JUMP JUMPDEST CALLVALUE DUP1 ISZERO PUSH2 0xABA JUMPI PUSH1 0x0 DUP1 REVERT JUMPDEST POP PUSH2 0x567 PUSH2 0xAC9 CALLDATASIZE PUSH1 0x4 PUSH2 0x4CDC JUMP JUMPDEST PUSH2 0x2325 JUMP JUMPDEST CALLVALUE DUP1 ISZERO PUSH2 0xADA JUMPI PUSH1 0x0 DUP1 REVERT JUMPDEST POP PUSH2 0x5EF PUSH2 0x23AC JUMP JUMPDEST CALLVALUE DUP1 ISZERO PUSH2 0xAEF JUMPI PUSH1 0x0 DUP1 REVERT JUMPDEST POP PUSH2 0x567 PUSH2 0xAFE CALLDATASIZE PUSH1 0x4 PUSH2 0x4D62 JUMP JUMPDEST PUSH2 0x23E0 JUMP JUMPDEST CALLVALUE DUP1 ISZERO PUSH2 0xB0F JUMPI PUSH1 0x0 DUP1 REVERT JUMPDEST POP PUSH2 0x5EF PUSH2 0xB1E CALLDATASIZE PUSH1 0x4 PUSH2 0x527F JUMP JUMPDEST PUSH2 0x240B JUMP JUMPDEST CALLVALUE DUP1 ISZERO PUSH2 0xB2F JUMPI PUSH1 0x0 DUP1 REVERT JUMPDEST POP PUSH2 0x5B7 PUSH2 0xB3E CALLDATASIZE PUSH1 0x4 PUSH2 0x503D JUMP JUMPDEST PUSH2 0x262A JUMP JUMPDEST CALLVALUE DUP1 ISZERO PUSH2 0xB4F JUMPI PUSH1 0x0 DUP1 REVERT JUMPDEST POP PUSH2 0x5EF PUSH2 0xB5E CALLDATASIZE PUSH1 0x4 PUSH2 0x51B9 JUMP JUMPDEST PUSH2 0x2674 JUMP JUMPDEST CALLVALUE DUP1 ISZERO PUSH2 0xB6F JUMPI PUSH1 0x0 DUP1 REVERT JUMPDEST POP PUSH2 0x58A PUSH2 0xB7E CALLDATASIZE PUSH1 0x4 PUSH2 0x4CDC JUMP JUMPDEST PUSH2 0x26C5 JUMP JUMPDEST CALLVALUE DUP1 ISZERO PUSH2 0xB8F JUMPI PUSH1 0x0 DUP1 REVERT JUMPDEST POP PUSH2 0x506 PUSH2 0xB9E CALLDATASIZE PUSH1 0x4 PUSH2 0x4CDC JUMP JUMPDEST PUSH2 0x280D JUMP JUMPDEST CALLVALUE DUP1 ISZERO PUSH2 0xBAF JUMPI PUSH1 0x0 DUP1 REVERT JUMPDEST POP PUSH2 0x5EF PUSH2 0xBBE CALLDATASIZE PUSH1 0x4 PUSH2 0x4D62 JUMP JUMPDEST PUSH2 0x281A JUMP JUMPDEST CALLVALUE DUP1 ISZERO PUSH2 0xBCF JUMPI PUSH1 0x0 DUP1 REVERT JUMPDEST POP PUSH1 0xB SLOAD PUSH1 0x1 PUSH1 0x1 PUSH1 0xA0 SHL SUB AND PUSH2 0x5B7 JUMP JUMPDEST CALLVALUE DUP1 ISZERO PUSH2 0xBED JUMPI PUSH1 0x0 DUP1 REVERT JUMPDEST POP PUSH2 0x5EF PUSH2 0xBFC CALLDATASIZE PUSH1 0x4 PUSH2 0x52F2 JUMP JUMPDEST PUSH2 0x2869 JUMP JUMPDEST CALLVALUE DUP1 ISZERO PUSH2 0xC0D JUMPI PUSH1 0x0 DUP1 REVERT JUMPDEST POP PUSH2 0x5EF PUSH2 0xC1C CALLDATASIZE PUSH1 0x4 PUSH2 0x4D62 JUMP JUMPDEST PUSH2 0x28A1 JUMP JUMPDEST CALLVALUE DUP1 ISZERO PUSH2 0xC2D JUMPI PUSH1 0x0 DUP1 REVERT JUMPDEST POP PUSH2 0x58A PUSH2 0x28D0 JUMP JUMPDEST CALLVALUE DUP1 ISZERO PUSH2 0xC42 JUMPI PUSH1 0x0 DUP1 REVERT JUMPDEST POP PUSH2 0x5EF PUSH2 0xC51 CALLDATASIZE PUSH1 0x4 PUSH2 0x531E JUMP JUMPDEST PUSH2 0x28DF JUMP JUMPDEST CALLVALUE DUP1 ISZERO PUSH2 0xC62 JUMPI PUSH1 0x0 DUP1 REVERT JUMPDEST POP PUSH1 0x1B SLOAD PUSH2 0x567 JUMP JUMPDEST CALLVALUE DUP1 ISZERO PUSH2 0xC77 JUMPI PUSH1 0x0 DUP1 REVERT JUMPDEST POP PUSH2 0x5EF PUSH2 0xC86 CALLDATASIZE PUSH1 0x4 PUSH2 0x503D JUMP JUMPDEST PUSH2 0x290D JUMP JUMPDEST CALLVALUE DUP1 ISZERO PUSH2 0xC97 JUMPI PUSH1 0x0 DUP1 REVERT JUMPDEST POP PUSH2 0x5EF PUSH2 0xCA6 CALLDATASIZE PUSH1 0x4 PUSH2 0x537A JUMP JUMPDEST PUSH2 0x295C JUMP JUMPDEST CALLVALUE DUP1 ISZERO PUSH2 0xCB7 JUMPI PUSH1 0x0 DUP1 REVERT JUMPDEST POP PUSH2 0x567 PUSH2 0xCC6 CALLDATASIZE PUSH1 0x4 PUSH2 0x4CDC JUMP JUMPDEST PUSH1 0x1 PUSH1 0x1 PUSH1 0xA0 SHL SUB AND PUSH1 0x0 SWAP1 DUP2 MSTORE PUSH1 0xF PUSH1 0x20 MSTORE PUSH1 0x40 SWAP1 KECCAK256 SLOAD SWAP1 JUMP JUMPDEST CALLVALUE DUP1 ISZERO PUSH2 0xCED JUMPI PUSH1 0x0 DUP1 REVERT JUMPDEST POP PUSH2 0x5EF PUSH2 0xCFC CALLDATASIZE PUSH1 0x4 PUSH2 0x4D7B JUMP JUMPDEST PUSH2 0x2A21 JUMP JUMPDEST CALLVALUE DUP1 ISZERO PUSH2 0xD0D JUMPI PUSH1 0x0 DUP1 REVERT JUMPDEST POP PUSH2 0x5EF PUSH2 0xD1C CALLDATASIZE PUSH1 0x4 PUSH2 0x503D JUMP JUMPDEST PUSH2 0x2A47 JUMP JUMPDEST CALLVALUE DUP1 ISZERO PUSH2 0xD2D JUMPI PUSH1 0x0 DUP1 REVERT JUMPDEST POP PUSH2 0x5B7 PUSH2 0xD3C CALLDATASIZE PUSH1 0x4 PUSH2 0x4D62 JUMP JUMPDEST PUSH2 0x2AA0 JUMP JUMPDEST CALLVALUE DUP1 ISZERO PUSH2 0xD4D JUMPI PUSH1 0x0 DUP1 REVERT JUMPDEST POP PUSH2 0xD61 PUSH2 0xD5C CALLDATASIZE PUSH1 0x4 PUSH2 0x4DF0 JUMP JUMPDEST PUSH2 0x2ADC JUMP JUMPDEST PUSH1 0x40 MLOAD PUSH2 0x512 SWAP3 SWAP2 SWAP1 PUSH2 0x53A4 JUMP JUMPDEST CALLVALUE DUP1 ISZERO PUSH2 0xD7B JUMPI PUSH1 0x0 DUP1 REVERT JUMPDEST POP PUSH2 0x5EF PUSH2 0xD8A CALLDATASIZE PUSH1 0x4 PUSH2 0x53C9 JUMP JUMPDEST PUSH2 0x2BFE JUMP JUMPDEST CALLVALUE DUP1 ISZERO PUSH2 0xD9B JUMPI PUSH1 0x0 DUP1 REVERT JUMPDEST POP PUSH2 0x58A PUSH2 0xDAA CALLDATASIZE PUSH1 0x4 PUSH2 0x4D62 JUMP JUMPDEST PUSH2 0x2C39 JUMP JUMPDEST CALLVALUE DUP1 ISZERO PUSH2 0xDBB JUMPI PUSH1 0x0 DUP1 REVERT JUMPDEST POP PUSH2 0x5EF PUSH2 0xDCA CALLDATASIZE PUSH1 0x4 PUSH2 0x5430 JUMP JUMPDEST PUSH2 0x2CDB JUMP JUMPDEST CALLVALUE DUP1 ISZERO PUSH2 0xDDB JUMPI PUSH1 0x0 DUP1 REVERT JUMPDEST POP PUSH2 0xDEF PUSH2 0xDEA CALLDATASIZE PUSH1 0x4 PUSH2 0x4CDC JUMP JUMPDEST PUSH2 0x2CF8 JUMP JUMPDEST PUSH1 0x40 MLOAD PUSH2 0x512 SWAP3 SWAP2 SWAP1 PUSH2 0x5453 JUMP JUMPDEST CALLVALUE DUP1 ISZERO PUSH2 0xE09 JUMPI PUSH1 0x0 DUP1 REVERT JUMPDEST POP PUSH2 0x58A PUSH2 0xE18 CALLDATASIZE PUSH1 0x4 PUSH2 0x4D62 JUMP JUMPDEST PUSH2 0x2EDB JUMP JUMPDEST CALLVALUE DUP1 ISZERO PUSH2 0xE29 JUMPI PUSH1 0x0 DUP1 REVERT JUMPDEST POP PUSH2 0x5EF PUSH2 0xE38 CALLDATASIZE PUSH1 0x4 PUSH2 0x54AA JUMP JUMPDEST PUSH2 0x2EF4 JUMP JUMPDEST CALLVALUE DUP1 ISZERO PUSH2 0xE49 JUMPI PUSH1 0x0 DUP1 REVERT JUMPDEST POP PUSH2 0x567 PUSH2 0x2F11 JUMP JUMPDEST CALLVALUE DUP1 ISZERO PUSH2 0xE5E JUMPI PUSH1 0x0 DUP1 REVERT JUMPDEST POP PUSH1 0x12 SLOAD PUSH2 0x506 SWAP1 PUSH1 0xFF AND DUP2 JUMP JUMPDEST CALLVALUE DUP1 ISZERO PUSH2 0xE78 JUMPI PUSH1 0x0 DUP1 REVERT JUMPDEST POP PUSH2 0x58A PUSH2 0xE87 CALLDATASIZE PUSH1 0x4 PUSH2 0x4D62 JUMP JUMPDEST PUSH2 0x2F22 JUMP JUMPDEST CALLVALUE DUP1 ISZERO PUSH2 0xE98 JUMPI PUSH1 0x0 DUP1 REVERT JUMPDEST POP PUSH2 0x5EF PUSH2 0xEA7 CALLDATASIZE PUSH1 0x4 PUSH2 0x5071 JUMP JUMPDEST PUSH2 0x308C JUMP JUMPDEST CALLVALUE DUP1 ISZERO PUSH2 0xEB8 JUMPI PUSH1 0x0 DUP1 REVERT JUMPDEST POP PUSH1 0x1E SLOAD PUSH2 0x567 JUMP JUMPDEST CALLVALUE DUP1 ISZERO PUSH2 0xECD JUMPI PUSH1 0x0 DUP1 REVERT JUMPDEST POP PUSH2 0x506 PUSH2 0xEDC CALLDATASIZE PUSH1 0x4 PUSH2 0x4CDC JUMP JUMPDEST PUSH1 0x1 PUSH1 0x1 PUSH1 0xA0 SHL SUB AND PUSH1 0x0 SWAP1 DUP2 MSTORE PUSH1 0xF PUSH1 0x20 MSTORE PUSH1 0x40 SWAP1 KECCAK256 SLOAD ISZERO ISZERO SWAP1 JUMP JUMPDEST CALLVALUE DUP1 ISZERO PUSH2 0xF05 JUMPI PUSH1 0x0 DUP1 REVERT JUMPDEST POP PUSH2 0x506 PUSH2 0xF14 CALLDATASIZE PUSH1 0x4 PUSH2 0x503D JUMP JUMPDEST PUSH2 0x30AC JUMP JUMPDEST CALLVALUE DUP1 ISZERO PUSH2 0xF25 JUMPI PUSH1 0x0 DUP1 REVERT JUMPDEST POP PUSH2 0x506 PUSH2 0xF34 CALLDATASIZE PUSH1 0x4 PUSH2 0x54E6 JUMP JUMPDEST PUSH1 0x1 PUSH1 0x1 PUSH1 0xA0 SHL SUB SWAP2 DUP3 AND PUSH1 0x0 SWAP1 DUP2 MSTORE PUSH1 0x5 PUSH1 0x20 SWAP1 DUP2 MSTORE PUSH1 0x40 DUP1 DUP4 KECCAK256 SWAP4 SWAP1 SWAP5 AND DUP3 MSTORE SWAP2 SWAP1 SWAP2 MSTORE KECCAK256 SLOAD PUSH1 0xFF AND SWAP1 JUMP JUMPDEST CALLVALUE DUP1 ISZERO PUSH2 0xF6E JUMPI PUSH1 0x0 DUP1 REVERT JUMPDEST POP PUSH2 0x5EF PUSH2 0x30E9 JUMP JUMPDEST CALLVALUE DUP1 ISZERO PUSH2 0xF83 JUMPI PUSH1 0x0 DUP1 REVERT JUMPDEST POP PUSH2 0x5EF PUSH2 0xF92 CALLDATASIZE PUSH1 0x4 PUSH2 0x5071 JUMP JUMPDEST PUSH2 0x3127 JUMP JUMPDEST CALLVALUE DUP1 ISZERO PUSH2 0xFA3 JUMPI PUSH1 0x0 DUP1 REVERT JUMPDEST POP PUSH2 0x5EF PUSH2 0xFB2 CALLDATASIZE PUSH1 0x4 PUSH2 0x5510 JUMP JUMPDEST PUSH2 0x3147 JUMP JUMPDEST CALLVALUE DUP1 ISZERO PUSH2 0xFC3 JUMPI PUSH1 0x0 DUP1 REVERT JUMPDEST POP PUSH2 0x5EF PUSH2 0x3184 JUMP JUMPDEST CALLVALUE DUP1 ISZERO PUSH2 0xFD8 JUMPI PUSH1 0x0 DUP1 REVERT JUMPDEST POP PUSH2 0x5EF PUSH2 0xFE7 CALLDATASIZE PUSH1 0x4 PUSH2 0x4CDC JUMP JUMPDEST PUSH2 0x31CC JUMP JUMPDEST CALLVALUE DUP1 ISZERO PUSH2 0xFF8 JUMPI PUSH1 0x0 DUP1 REVERT JUMPDEST POP PUSH2 0x65B PUSH2 0x1007 CALLDATASIZE PUSH1 0x4 PUSH2 0x4F1E JUMP JUMPDEST PUSH2 0x3264 JUMP JUMPDEST CALLVALUE DUP1 ISZERO PUSH2 0x1018 JUMPI PUSH1 0x0 DUP1 REVERT JUMPDEST POP PUSH2 0x506 PUSH2 0x1027 CALLDATASIZE PUSH1 0x4 PUSH2 0x51B9 JUMP JUMPDEST PUSH2 0x3310 JUMP JUMPDEST PUSH1 0x0 PUSH2 0x1037 DUP3 PUSH2 0x3444 JUMP JUMPDEST SWAP3 SWAP2 POP POP JUMP JUMPDEST PUSH1 0x60 PUSH1 0x0 DUP1 SLOAD PUSH2 0x104C SWAP1 PUSH2 0x552B JUMP JUMPDEST DUP1 PUSH1 0x1F ADD PUSH1 0x20 DUP1 SWAP2 DIV MUL PUSH1 0x20 ADD PUSH1 0x40 MLOAD SWAP1 DUP2 ADD PUSH1 0x40 MSTORE DUP1 SWAP3 SWAP2 SWAP1 DUP2 DUP2 MSTORE PUSH1 0x20 ADD DUP3 DUP1 SLOAD PUSH2 0x1078 SWAP1 PUSH2 0x552B JUMP JUMPDEST DUP1 ISZERO PUSH2 0x10C5 JUMPI DUP1 PUSH1 0x1F LT PUSH2 0x109A JUMPI PUSH2 0x100 DUP1 DUP4 SLOAD DIV MUL DUP4 MSTORE SWAP2 PUSH1 0x20 ADD SWAP2 PUSH2 0x10C5 JUMP JUMPDEST DUP3 ADD SWAP2 SWAP1 PUSH1 0x0 MSTORE PUSH1 0x20 PUSH1 0x0 KECCAK256 SWAP1 JUMPDEST DUP2 SLOAD DUP2 MSTORE SWAP1 PUSH1 0x1 ADD SWAP1 PUSH1 0x20 ADD DUP1 DUP4 GT PUSH2 0x10A8 JUMPI DUP3 SWAP1 SUB PUSH1 0x1F AND DUP3 ADD SWAP2 JUMPDEST POP POP POP POP POP SWAP1 POP SWAP1 JUMP JUMPDEST PUSH1 0x0 PUSH2 0x10DA DUP3 PUSH2 0x3469 JUMP JUMPDEST PUSH2 0x1140 JUMPI PUSH1 0x40 MLOAD PUSH3 0x461BCD PUSH1 0xE5 SHL DUP2 MSTORE PUSH1 0x20 PUSH1 0x4 DUP3 ADD MSTORE PUSH1 0x2C PUSH1 0x24 DUP3 ADD MSTORE PUSH32 0x4552433732313A20617070726F76656420717565727920666F72206E6F6E6578 PUSH1 0x44 DUP3 ADD MSTORE PUSH12 0x34B9BA32B73A103A37B5B2B7 PUSH1 0xA1 SHL PUSH1 0x64 DUP3 ADD MSTORE PUSH1 0x84 ADD JUMPDEST PUSH1 0x40 MLOAD DUP1 SWAP2 SUB SWAP1 REVERT JUMPDEST POP PUSH1 0x0 SWAP1 DUP2 MSTORE PUSH1 0x4 PUSH1 0x20 MSTORE PUSH1 0x40 SWAP1 KECCAK256 SLOAD PUSH1 0x1 PUSH1 0x1 PUSH1 0xA0 SHL SUB AND SWAP1 JUMP JUMPDEST PUSH1 0x0 PUSH2 0x1167 DUP3 PUSH2 0x1C39 JUMP JUMPDEST SWAP1 POP DUP1 PUSH1 0x1 PUSH1 0x1 PUSH1 0xA0 SHL SUB AND DUP4 PUSH1 0x1 PUSH1 0x1 PUSH1 0xA0 SHL SUB AND EQ ISZERO PUSH2 0x11D5 JUMPI PUSH1 0x40 MLOAD PUSH3 0x461BCD PUSH1 0xE5 SHL DUP2 MSTORE PUSH1 0x20 PUSH1 0x4 DUP3 ADD MSTORE PUSH1 0x21 PUSH1 0x24 DUP3 ADD MSTORE PUSH32 0x4552433732313A20617070726F76616C20746F2063757272656E74206F776E65 PUSH1 0x44 DUP3 ADD MSTORE PUSH1 0x39 PUSH1 0xF9 SHL PUSH1 0x64 DUP3 ADD MSTORE PUSH1 0x84 ADD PUSH2 0x1137 JUMP JUMPDEST CALLER PUSH1 0x1 PUSH1 0x1 PUSH1 0xA0 SHL SUB DUP3 AND EQ DUP1 PUSH2 0x11F1 JUMPI POP PUSH2 0x11F1 DUP2 CALLER PUSH2 0xF34 JUMP JUMPDEST PUSH2 0x1263 JUMPI PUSH1 0x40 MLOAD PUSH3 0x461BCD PUSH1 0xE5 SHL DUP2 MSTORE PUSH1 0x20 PUSH1 0x4 DUP3 ADD MSTORE PUSH1 0x38 PUSH1 0x24 DUP3 ADD MSTORE PUSH32 0x4552433732313A20617070726F76652063616C6C6572206973206E6F74206F77 PUSH1 0x44 DUP3 ADD MSTORE PUSH32 0x6E6572206E6F7220617070726F76656420666F7220616C6C0000000000000000 PUSH1 0x64 DUP3 ADD MSTORE PUSH1 0x84 ADD PUSH2 0x1137 JUMP JUMPDEST PUSH2 0x126D DUP4 DUP4 PUSH2 0x3486 JUMP JUMPDEST POP POP POP JUMP JUMPDEST PUSH1 0x14 PUSH1 0x20 MSTORE PUSH1 0x0 SWAP1 DUP2 MSTORE PUSH1 0x40 SWAP1 KECCAK256 DUP1 SLOAD PUSH2 0x128B SWAP1 PUSH2 0x552B JUMP JUMPDEST DUP1 PUSH1 0x1F ADD PUSH1 0x20 DUP1 SWAP2 DIV MUL PUSH1 0x20 ADD PUSH1 0x40 MLOAD SWAP1 DUP2 ADD PUSH1 0x40 MSTORE DUP1 SWAP3 SWAP2 SWAP1 DUP2 DUP2 MSTORE PUSH1 0x20 ADD DUP3 DUP1 SLOAD PUSH2 0x12B7 SWAP1 PUSH2 0x552B JUMP JUMPDEST DUP1 ISZERO PUSH2 0x1304 JUMPI DUP1 PUSH1 0x1F LT PUSH2 0x12D9 JUMPI PUSH2 0x100 DUP1 DUP4 SLOAD DIV MUL DUP4 MSTORE SWAP2 PUSH1 0x20 ADD SWAP2 PUSH2 0x1304 JUMP JUMPDEST DUP3 ADD SWAP2 SWAP1 PUSH1 0x0 MSTORE PUSH1 0x20 PUSH1 0x0 KECCAK256 SWAP1 JUMPDEST DUP2 SLOAD DUP2 MSTORE SWAP1 PUSH1 0x1 ADD SWAP1 PUSH1 0x20 ADD DUP1 DUP4 GT PUSH2 0x12E7 JUMPI DUP3 SWAP1 SUB PUSH1 0x1F AND DUP3 ADD SWAP2 JUMPDEST POP POP POP POP POP DUP2 JUMP JUMPDEST PUSH1 0x0 PUSH2 0x1323 PUSH1 0x1C SLOAD PUSH2 0x131D PUSH1 0x1B SLOAD SWAP1 JUMP JUMPDEST SWAP1 PUSH2 0x34F4 JUMP JUMPDEST SWAP1 POP SWAP1 JUMP JUMPDEST PUSH1 0x60 DUP3 PUSH1 0x1 PUSH1 0x1 PUSH1 0x40 SHL SUB DUP2 GT ISZERO PUSH2 0x1342 JUMPI PUSH2 0x1342 PUSH2 0x4F9B JUMP JUMPDEST PUSH1 0x40 MLOAD SWAP1 DUP1 DUP3 MSTORE DUP1 PUSH1 0x20 MUL PUSH1 0x20 ADD DUP3 ADD PUSH1 0x40 MSTORE DUP1 ISZERO PUSH2 0x1375 JUMPI DUP2 PUSH1 0x20 ADD JUMPDEST PUSH1 0x60 DUP2 MSTORE PUSH1 0x20 ADD SWAP1 PUSH1 0x1 SWAP1 SUB SWAP1 DUP2 PUSH2 0x1360 JUMPI SWAP1 POP JUMPDEST POP SWAP1 POP PUSH1 0x0 JUMPDEST DUP4 DUP2 LT ISZERO PUSH2 0x1416 JUMPI PUSH2 0x13E6 DUP6 DUP6 DUP4 DUP2 DUP2 LT PUSH2 0x1398 JUMPI PUSH2 0x1398 PUSH2 0x5566 JUMP JUMPDEST SWAP1 POP PUSH1 0x20 MUL DUP2 ADD SWAP1 PUSH2 0x13AA SWAP2 SWAP1 PUSH2 0x557C JUMP JUMPDEST DUP1 DUP1 PUSH1 0x1F ADD PUSH1 0x20 DUP1 SWAP2 DIV MUL PUSH1 0x20 ADD PUSH1 0x40 MLOAD SWAP1 DUP2 ADD PUSH1 0x40 MSTORE DUP1 SWAP4 SWAP3 SWAP2 SWAP1 DUP2 DUP2 MSTORE PUSH1 0x20 ADD DUP4 DUP4 DUP1 DUP3 DUP5 CALLDATACOPY PUSH1 0x0 SWAP3 ADD SWAP2 SWAP1 SWAP2 MSTORE POP DUP8 SWAP3 POP PUSH2 0x3500 SWAP2 POP POP JUMP JUMPDEST DUP3 DUP3 DUP2 MLOAD DUP2 LT PUSH2 0x13F8 JUMPI PUSH2 0x13F8 PUSH2 0x5566 JUMP JUMPDEST PUSH1 0x20 MUL PUSH1 0x20 ADD ADD DUP2 SWAP1 MSTORE POP DUP1 DUP1 PUSH2 0x140E SWAP1 PUSH2 0x55D8 JUMP JUMPDEST SWAP2 POP POP PUSH2 0x137B JUMP JUMPDEST POP SWAP4 SWAP3 POP POP POP JUMP JUMPDEST PUSH1 0x60 PUSH2 0x1461 DUP5 DUP5 DUP1 DUP1 PUSH1 0x1F ADD PUSH1 0x20 DUP1 SWAP2 DIV MUL PUSH1 0x20 ADD PUSH1 0x40 MLOAD SWAP1 DUP2 ADD PUSH1 0x40 MSTORE DUP1 SWAP4 SWAP3 SWAP2 SWAP1 DUP2 DUP2 MSTORE PUSH1 0x20 ADD DUP4 DUP4 DUP1 DUP3 DUP5 CALLDATACOPY PUSH1 0x0 SWAP3 ADD SWAP2 SWAP1 SWAP2 MSTORE POP DUP7 SWAP3 POP PUSH2 0x3500 SWAP2 POP POP JUMP JUMPDEST SWAP5 SWAP4 POP POP POP POP JUMP JUMPDEST PUSH1 0xB SLOAD PUSH1 0x1 PUSH1 0x1 PUSH1 0xA0 SHL SUB AND CALLER EQ PUSH2 0x1493 JUMPI PUSH1 0x40 MLOAD PUSH3 0x461BCD PUSH1 0xE5 SHL DUP2 MSTORE PUSH1 0x4 ADD PUSH2 0x1137 SWAP1 PUSH2 0x55F3 JUMP JUMPDEST PUSH1 0x1A DUP1 SLOAD PUSH1 0xFF NOT DUP2 AND PUSH1 0xFF SWAP1 SWAP2 AND ISZERO OR SWAP1 SSTORE JUMP JUMPDEST PUSH2 0x14B0 CALLER PUSH2 0x280D JUMP JUMPDEST PUSH2 0x14CC JUMPI PUSH1 0x40 MLOAD PUSH3 0x461BCD PUSH1 0xE5 SHL DUP2 MSTORE PUSH1 0x4 ADD PUSH2 0x1137 SWAP1 PUSH2 0x5628 JUMP JUMPDEST PUSH1 0x0 JUMPDEST DUP2 DUP2 LT ISZERO PUSH2 0x126D JUMPI DUP3 DUP3 DUP3 DUP2 DUP2 LT PUSH2 0x14E9 JUMPI PUSH2 0x14E9 PUSH2 0x5566 JUMP JUMPDEST SWAP1 POP PUSH1 0x20 MUL DUP2 ADD SWAP1 PUSH2 0x14FB SWAP2 SWAP1 PUSH2 0x557C JUMP JUMPDEST PUSH1 0x11 DUP6 DUP6 DUP6 DUP2 DUP2 LT PUSH2 0x150F JUMPI PUSH2 0x150F PUSH2 0x5566 JUMP JUMPDEST SWAP1 POP PUSH1 0x20 MUL DUP2 ADD SWAP1 PUSH2 0x1521 SWAP2 SWAP1 PUSH2 0x557C JUMP JUMPDEST PUSH1 0x40 MLOAD PUSH2 0x152F SWAP3 SWAP2 SWAP1 PUSH2 0x5672 JUMP JUMPDEST SWAP1 DUP2 MSTORE PUSH1 0x40 MLOAD SWAP1 DUP2 SWAP1 SUB PUSH1 0x20 ADD SWAP1 KECCAK256 PUSH2 0x1549 SWAP3 SWAP1 SWAP2 PUSH2 0x4B4A JUMP JUMPDEST POP DUP1 PUSH2 0x1554 DUP2 PUSH2 0x55D8 JUMP JUMPDEST SWAP2 POP POP PUSH2 0x14CF JUMP JUMPDEST PUSH2 0x1567 CALLER JUMPDEST DUP3 PUSH2 0x3535 JUMP JUMPDEST PUSH2 0x1583 JUMPI PUSH1 0x40 MLOAD PUSH3 0x461BCD PUSH1 0xE5 SHL DUP2 MSTORE PUSH1 0x4 ADD PUSH2 0x1137 SWAP1 PUSH2 0x5682 JUMP JUMPDEST PUSH2 0x158C DUP2 PUSH2 0x361B JUMP JUMPDEST PUSH2 0x126D DUP4 DUP4 DUP4 PUSH2 0x3688 JUMP JUMPDEST PUSH1 0x0 PUSH2 0x15A2 DUP3 PUSH2 0x1B69 JUMP JUMPDEST SWAP1 POP CALLER PUSH2 0x15AF DUP2 DUP4 PUSH2 0x3535 JUMP JUMPDEST PUSH2 0x15CB JUMPI PUSH1 0x40 MLOAD PUSH3 0x461BCD PUSH1 0xE5 SHL DUP2 MSTORE PUSH1 0x4 ADD PUSH2 0x1137 SWAP1 PUSH2 0x56D3 JUMP JUMPDEST POP PUSH1 0x0 SWAP1 DUP2 MSTORE PUSH1 0x16 PUSH1 0x20 MSTORE PUSH1 0x40 SWAP1 KECCAK256 DUP1 SLOAD PUSH1 0x1 PUSH1 0x1 PUSH1 0xA0 SHL SUB NOT AND SWAP1 SSTORE POP JUMP JUMPDEST DUP1 PUSH2 0x15F5 CALLER PUSH2 0x1561 JUMP JUMPDEST PUSH2 0x15FE JUMPI PUSH1 0x0 DUP1 REVERT JUMPDEST PUSH2 0x160B DUP7 DUP7 DUP7 DUP7 DUP7 PUSH2 0x3833 JUMP JUMPDEST POP POP POP POP POP POP JUMP JUMPDEST PUSH1 0x0 DUP2 PUSH2 0x161F DUP5 PUSH2 0x23E0 JUMP JUMPDEST GT PUSH2 0x1629 JUMPI PUSH1 0x0 DUP1 REVERT JUMPDEST PUSH1 0x0 DUP4 DUP2 MSTORE PUSH1 0x13 PUSH1 0x20 MSTORE PUSH1 0x40 SWAP1 KECCAK256 PUSH2 0x1641 SWAP1 DUP4 PUSH2 0x3896 JUMP JUMPDEST SWAP4 SWAP3 POP POP POP JUMP JUMPDEST PUSH1 0x0 PUSH2 0x1653 DUP4 PUSH2 0x2325 JUMP JUMPDEST DUP3 LT PUSH2 0x16B5 JUMPI PUSH1 0x40 MLOAD PUSH3 0x461BCD PUSH1 0xE5 SHL DUP2 MSTORE PUSH1 0x20 PUSH1 0x4 DUP3 ADD MSTORE PUSH1 0x2B PUSH1 0x24 DUP3 ADD MSTORE PUSH32 0x455243373231456E756D657261626C653A206F776E657220696E646578206F75 PUSH1 0x44 DUP3 ADD MSTORE PUSH11 0x74206F6620626F756E6473 PUSH1 0xA8 SHL PUSH1 0x64 DUP3 ADD MSTORE PUSH1 0x84 ADD PUSH2 0x1137 JUMP JUMPDEST POP PUSH1 0x1 PUSH1 0x1 PUSH1 0xA0 SHL SUB SWAP2 SWAP1 SWAP2 AND PUSH1 0x0 SWAP1 DUP2 MSTORE PUSH1 0x6 PUSH1 0x20 SWAP1 DUP2 MSTORE PUSH1 0x40 DUP1 DUP4 KECCAK256 SWAP4 DUP4 MSTORE SWAP3 SWAP1 MSTORE KECCAK256 SLOAD SWAP1 JUMP JUMPDEST DUP1 PUSH2 0x16E8 CALLER PUSH2 0x1561 JUMP JUMPDEST PUSH2 0x16F1 JUMPI PUSH1 0x0 DUP1 REVERT JUMPDEST PUSH2 0x16FA DUP3 PUSH2 0x361B JUMP JUMPDEST POP POP JUMP JUMPDEST CALLER PUSH2 0x1709 DUP2 DUP4 PUSH2 0x3535 JUMP JUMPDEST PUSH2 0x1725 JUMPI PUSH1 0x40 MLOAD PUSH3 0x461BCD PUSH1 0xE5 SHL DUP2 MSTORE PUSH1 0x4 ADD PUSH2 0x1137 SWAP1 PUSH2 0x56D3 JUMP JUMPDEST PUSH1 0x1 PUSH1 0x1 PUSH1 0xA0 SHL SUB AND PUSH1 0x0 SWAP1 DUP2 MSTORE PUSH1 0x17 PUSH1 0x20 MSTORE PUSH1 0x40 SWAP1 KECCAK256 SSTORE JUMP JUMPDEST PUSH1 0xB SLOAD PUSH1 0x1 PUSH1 0x1 PUSH1 0xA0 SHL SUB AND CALLER EQ PUSH2 0x1769 JUMPI PUSH1 0x40 MLOAD PUSH3 0x461BCD PUSH1 0xE5 SHL DUP2 MSTORE PUSH1 0x4 ADD PUSH2 0x1137 SWAP1 PUSH2 0x55F3 JUMP JUMPDEST PUSH1 0x40 MLOAD CALLER SWAP1 SELFBALANCE DUP1 ISZERO PUSH2 0x8FC MUL SWAP2 PUSH1 0x0 DUP2 DUP2 DUP2 DUP6 DUP9 DUP9 CALL SWAP4 POP POP POP POP PUSH2 0x178D JUMPI PUSH1 0x0 DUP1 REVERT JUMPDEST JUMP JUMPDEST PUSH1 0xB SLOAD PUSH1 0x1 PUSH1 0x1 PUSH1 0xA0 SHL SUB AND CALLER EQ PUSH2 0x17B9 JUMPI PUSH1 0x40 MLOAD PUSH3 0x461BCD PUSH1 0xE5 SHL DUP2 MSTORE PUSH1 0x4 ADD PUSH2 0x1137 SWAP1 PUSH2 0x55F3 JUMP JUMPDEST PUSH2 0x17C2 DUP2 PUSH2 0x38A2 JUMP JUMPDEST POP JUMP JUMPDEST PUSH2 0x17CE CALLER PUSH2 0x280D JUMP JUMPDEST PUSH2 0x17EA JUMPI PUSH1 0x40 MLOAD PUSH3 0x461BCD PUSH1 0xE5 SHL DUP2 MSTORE PUSH1 0x4 ADD PUSH2 0x1137 SWAP1 PUSH2 0x5628 JUMP JUMPDEST PUSH1 0x0 JUMPDEST DUP3 DUP2 LT ISZERO PUSH2 0x184D JUMPI DUP2 PUSH1 0xF PUSH1 0x0 DUP7 DUP7 DUP6 DUP2 DUP2 LT PUSH2 0x180C JUMPI PUSH2 0x180C PUSH2 0x5566 JUMP JUMPDEST SWAP1 POP PUSH1 0x20 MUL ADD PUSH1 0x20 DUP2 ADD SWAP1 PUSH2 0x1821 SWAP2 SWAP1 PUSH2 0x4CDC JUMP JUMPDEST PUSH1 0x1 PUSH1 0x1 PUSH1 0xA0 SHL SUB AND DUP2 MSTORE PUSH1 0x20 DUP2 ADD SWAP2 SWAP1 SWAP2 MSTORE PUSH1 0x40 ADD PUSH1 0x0 KECCAK256 SSTORE DUP1 PUSH2 0x1845 DUP2 PUSH2 0x55D8 JUMP JUMPDEST SWAP2 POP POP PUSH2 0x17ED JUMP JUMPDEST POP POP POP POP JUMP JUMPDEST PUSH2 0x126D DUP4 DUP4 DUP4 PUSH1 0x40 MLOAD DUP1 PUSH1 0x20 ADD PUSH1 0x40 MSTORE DUP1 PUSH1 0x0 DUP2 MSTORE POP PUSH2 0x2BFE JUMP JUMPDEST PUSH2 0x1877 CALLER PUSH2 0x1561 JUMP JUMPDEST PUSH2 0x18DC JUMPI PUSH1 0x40 MLOAD PUSH3 0x461BCD PUSH1 0xE5 SHL DUP2 MSTORE PUSH1 0x20 PUSH1 0x4 DUP3 ADD MSTORE PUSH1 0x30 PUSH1 0x24 DUP3 ADD MSTORE PUSH32 0x4552433732314275726E61626C653A2063616C6C6572206973206E6F74206F77 PUSH1 0x44 DUP3 ADD MSTORE PUSH16 0x1B995C881B9BDC88185C1C1C9BDD9959 PUSH1 0x82 SHL PUSH1 0x64 DUP3 ADD MSTORE PUSH1 0x84 ADD PUSH2 0x1137 JUMP JUMPDEST PUSH1 0x0 DUP2 DUP2 MSTORE PUSH1 0x14 PUSH1 0x20 MSTORE PUSH1 0x40 SWAP1 KECCAK256 DUP1 SLOAD PUSH2 0x18F5 SWAP1 PUSH2 0x552B JUMP JUMPDEST ISZERO SWAP1 POP PUSH2 0x1913 JUMPI PUSH1 0x0 DUP2 DUP2 MSTORE PUSH1 0x14 PUSH1 0x20 MSTORE PUSH1 0x40 DUP2 KECCAK256 PUSH2 0x1913 SWAP2 PUSH2 0x4BCA JUMP JUMPDEST CALLER PUSH1 0x0 SWAP1 DUP2 MSTORE PUSH1 0x17 PUSH1 0x20 MSTORE PUSH1 0x40 SWAP1 KECCAK256 SLOAD ISZERO PUSH2 0x1939 JUMPI CALLER PUSH1 0x0 SWAP1 DUP2 MSTORE PUSH1 0x17 PUSH1 0x20 MSTORE PUSH1 0x40 DUP2 KECCAK256 SSTORE JUMPDEST PUSH1 0x0 DUP2 DUP2 MSTORE PUSH1 0x16 PUSH1 0x20 MSTORE PUSH1 0x40 SWAP1 KECCAK256 SLOAD PUSH1 0x1 PUSH1 0x1 PUSH1 0xA0 SHL SUB AND ISZERO PUSH2 0x1973 JUMPI PUSH1 0x0 DUP2 DUP2 MSTORE PUSH1 0x16 PUSH1 0x20 MSTORE PUSH1 0x40 SWAP1 KECCAK256 DUP1 SLOAD PUSH1 0x1 PUSH1 0x1 PUSH1 0xA0 SHL SUB NOT AND SWAP1 SSTORE JUMPDEST PUSH2 0x197C DUP2 PUSH2 0x361B JUMP JUMPDEST PUSH2 0x17C2 DUP2 PUSH2 0x38AD JUMP JUMPDEST PUSH1 0x0 PUSH2 0x1641 DUP4 DUP4 PUSH2 0x3535 JUMP JUMPDEST DUP1 MLOAD PUSH1 0x20 DUP2 DUP4 ADD DUP2 ADD DUP1 MLOAD PUSH1 0x11 DUP3 MSTORE SWAP3 DUP3 ADD SWAP2 SWAP1 SWAP4 ADD KECCAK256 SWAP2 MSTORE DUP1 SLOAD PUSH2 0x128B SWAP1 PUSH2 0x552B JUMP JUMPDEST PUSH1 0xB SLOAD PUSH1 0x1 PUSH1 0x1 PUSH1 0xA0 SHL SUB AND CALLER EQ PUSH2 0x19DF JUMPI PUSH1 0x40 MLOAD PUSH3 0x461BCD PUSH1 0xE5 SHL DUP2 MSTORE PUSH1 0x4 ADD PUSH2 0x1137 SWAP1 PUSH2 0x55F3 JUMP JUMPDEST PUSH1 0x1A DUP1 SLOAD PUSH2 0xFF00 NOT DUP2 AND PUSH2 0x100 SWAP2 DUP3 SWAP1 DIV PUSH1 0xFF AND ISZERO SWAP1 SWAP2 MUL OR SWAP1 SSTORE JUMP JUMPDEST DUP1 PUSH2 0x1A06 CALLER PUSH2 0x1561 JUMP JUMPDEST PUSH2 0x1A0F JUMPI PUSH1 0x0 DUP1 REVERT JUMPDEST PUSH2 0x160B DUP7 DUP7 DUP7 DUP7 DUP7 PUSH2 0x3954 JUMP JUMPDEST DUP1 PUSH2 0x1A26 CALLER PUSH2 0x1561 JUMP JUMPDEST PUSH2 0x1A2F JUMPI PUSH1 0x0 DUP1 REVERT JUMPDEST PUSH2 0x1A3B DUP6 DUP6 DUP6 DUP6 PUSH2 0x3A33 JUMP JUMPDEST POP POP POP POP POP JUMP JUMPDEST PUSH1 0x0 DUP1 PUSH2 0x1A4E DUP4 PUSH2 0x3AD3 JUMP JUMPDEST SWAP1 POP PUSH1 0x0 DUP2 PUSH1 0x40 MLOAD PUSH1 0x20 ADD PUSH2 0x1A63 SWAP2 SWAP1 PUSH2 0x5723 JUMP JUMPDEST PUSH1 0x40 MLOAD PUSH1 0x20 DUP2 DUP4 SUB SUB DUP2 MSTORE SWAP1 PUSH1 0x40 MSTORE DUP1 MLOAD SWAP1 PUSH1 0x20 ADD KECCAK256 PUSH1 0x0 SHR SWAP1 POP PUSH2 0x1461 DUP2 PUSH2 0x1C39 JUMP JUMPDEST PUSH1 0x0 PUSH2 0x1323 PUSH1 0x1E SLOAD PUSH2 0x131D PUSH1 0x1B SLOAD SWAP1 JUMP JUMPDEST PUSH1 0x0 PUSH2 0x1037 DUP3 PUSH2 0x3469 JUMP JUMPDEST PUSH1 0x0 PUSH2 0x1AAE PUSH1 0x8 SLOAD SWAP1 JUMP JUMPDEST DUP3 LT PUSH2 0x1B11 JUMPI PUSH1 0x40 MLOAD PUSH3 0x461BCD PUSH1 0xE5 SHL DUP2 MSTORE PUSH1 0x20 PUSH1 0x4 DUP3 ADD MSTORE PUSH1 0x2C PUSH1 0x24 DUP3 ADD MSTORE PUSH32 0x455243373231456E756D657261626C653A20676C6F62616C20696E646578206F PUSH1 0x44 DUP3 ADD MSTORE PUSH12 0x7574206F6620626F756E6473 PUSH1 0xA0 SHL PUSH1 0x64 DUP3 ADD MSTORE PUSH1 0x84 ADD PUSH2 0x1137 JUMP JUMPDEST PUSH1 0x8 DUP3 DUP2 SLOAD DUP2 LT PUSH2 0x1B24 JUMPI PUSH2 0x1B24 PUSH2 0x5566 JUMP JUMPDEST SWAP1 PUSH1 0x0 MSTORE PUSH1 0x20 PUSH1 0x0 KECCAK256 ADD SLOAD SWAP1 POP SWAP2 SWAP1 POP JUMP JUMPDEST PUSH2 0x17C2 DUP2 PUSH1 0x40 MLOAD PUSH1 0x20 ADD PUSH2 0x1B4A SWAP2 SWAP1 PUSH2 0x5723 JUMP JUMPDEST PUSH1 0x40 MLOAD PUSH1 0x20 DUP2 DUP4 SUB SUB DUP2 MSTORE SWAP1 PUSH1 0x40 MSTORE DUP1 MLOAD SWAP1 PUSH1 0x20 ADD KECCAK256 PUSH1 0x0 SHR DUP3 PUSH2 0x3C2D JUMP JUMPDEST PUSH1 0x0 DUP2 MLOAD PUSH1 0x0 EQ ISZERO PUSH2 0x1B7A JUMPI PUSH1 0x0 DUP1 REVERT JUMPDEST DUP2 PUSH1 0x40 MLOAD PUSH1 0x20 ADD PUSH2 0x1B8B SWAP2 SWAP1 PUSH2 0x5723 JUMP JUMPDEST PUSH1 0x40 DUP1 MLOAD PUSH1 0x1F NOT DUP2 DUP5 SUB ADD DUP2 MSTORE SWAP2 SWAP1 MSTORE DUP1 MLOAD PUSH1 0x20 SWAP1 SWAP2 ADD KECCAK256 SWAP3 SWAP2 POP POP JUMP JUMPDEST PUSH2 0x1BB2 CALLER PUSH2 0x280D JUMP JUMPDEST PUSH2 0x1BCE JUMPI PUSH1 0x40 MLOAD PUSH3 0x461BCD PUSH1 0xE5 SHL DUP2 MSTORE PUSH1 0x4 ADD PUSH2 0x1137 SWAP1 PUSH2 0x5628 JUMP JUMPDEST DUP2 DUP2 PUSH1 0x11 DUP5 DUP5 PUSH1 0x40 MLOAD PUSH2 0x1BE2 SWAP3 SWAP2 SWAP1 PUSH2 0x5672 JUMP JUMPDEST SWAP1 DUP2 MSTORE PUSH1 0x40 MLOAD SWAP1 DUP2 SWAP1 SUB PUSH1 0x20 ADD SWAP1 KECCAK256 PUSH2 0x126D SWAP3 SWAP1 SWAP2 PUSH2 0x4B4A JUMP JUMPDEST PUSH1 0xB SLOAD PUSH1 0x1 PUSH1 0x1 PUSH1 0xA0 SHL SUB AND CALLER EQ PUSH2 0x1C26 JUMPI PUSH1 0x40 MLOAD PUSH3 0x461BCD PUSH1 0xE5 SHL DUP2 MSTORE PUSH1 0x4 ADD PUSH2 0x1137 SWAP1 PUSH2 0x55F3 JUMP JUMPDEST DUP1 MLOAD PUSH2 0x16FA SWAP1 PUSH1 0x19 SWAP1 PUSH1 0x20 DUP5 ADD SWAP1 PUSH2 0x4C04 JUMP JUMPDEST PUSH1 0x0 DUP2 DUP2 MSTORE PUSH1 0x2 PUSH1 0x20 MSTORE PUSH1 0x40 DUP2 KECCAK256 SLOAD PUSH1 0x1 PUSH1 0x1 PUSH1 0xA0 SHL SUB AND DUP1 PUSH2 0x1037 JUMPI PUSH1 0x40 MLOAD PUSH3 0x461BCD PUSH1 0xE5 SHL DUP2 MSTORE PUSH1 0x20 PUSH1 0x4 DUP3 ADD MSTORE PUSH1 0x29 PUSH1 0x24 DUP3 ADD MSTORE PUSH32 0x4552433732313A206F776E657220717565727920666F72206E6F6E6578697374 PUSH1 0x44 DUP3 ADD MSTORE PUSH9 0x32B73A103A37B5B2B7 PUSH1 0xB9 SHL PUSH1 0x64 DUP3 ADD MSTORE PUSH1 0x84 ADD PUSH2 0x1137 JUMP JUMPDEST PUSH1 0x1A SLOAD PUSH1 0xFF AND PUSH2 0x1D02 JUMPI PUSH1 0x40 MLOAD PUSH3 0x461BCD PUSH1 0xE5 SHL DUP2 MSTORE PUSH1 0x20 PUSH1 0x4 DUP3 ADD MSTORE PUSH1 0x1A PUSH1 0x24 DUP3 ADD MSTORE PUSH32 0x53616C65206D7573742062652061637469766520746F20627579000000000000 PUSH1 0x44 DUP3 ADD MSTORE PUSH1 0x64 ADD PUSH2 0x1137 JUMP JUMPDEST DUP1 MLOAD PUSH2 0x1D20 JUMPI PUSH1 0x40 MLOAD PUSH3 0x461BCD PUSH1 0xE5 SHL DUP2 MSTORE PUSH1 0x4 ADD PUSH2 0x1137 SWAP1 PUSH2 0x573F JUMP JUMPDEST PUSH2 0x1D29 DUP2 PUSH2 0x30AC JUMP JUMPDEST ISZERO ISZERO PUSH1 0x1 EQ PUSH2 0x1D7A JUMPI PUSH1 0x40 MLOAD PUSH3 0x461BCD PUSH1 0xE5 SHL DUP2 MSTORE PUSH1 0x20 PUSH1 0x4 DUP3 ADD MSTORE PUSH1 0x1A PUSH1 0x24 DUP3 ADD MSTORE PUSH32 0x546F70206C6576656C20646F6D61696E206E6F74206578697374000000000000 PUSH1 0x44 DUP3 ADD MSTORE PUSH1 0x64 ADD PUSH2 0x1137 JUMP JUMPDEST PUSH2 0x1D83 DUP3 PUSH2 0x3C59 JUMP JUMPDEST ISZERO PUSH2 0x1DD0 JUMPI PUSH1 0x40 MLOAD PUSH3 0x461BCD PUSH1 0xE5 SHL DUP2 MSTORE PUSH1 0x20 PUSH1 0x4 DUP3 ADD MSTORE PUSH1 0x1A PUSH1 0x24 DUP3 ADD MSTORE PUSH32 0x446F6D61696E732063616E6E6F7420636F6E7461696E20646F74000000000000 PUSH1 0x44 DUP3 ADD MSTORE PUSH1 0x64 ADD PUSH2 0x1137 JUMP JUMPDEST DUP2 MLOAD DUP1 PUSH2 0x1E1A JUMPI PUSH1 0x40 MLOAD PUSH3 0x461BCD PUSH1 0xE5 SHL DUP2 MSTORE PUSH1 0x20 PUSH1 0x4 DUP3 ADD MSTORE PUSH1 0x18 PUSH1 0x24 DUP3 ADD MSTORE PUSH24 0x446F6D61696E206D757374206265206E6F6E2D656D707479 PUSH1 0x40 SHL PUSH1 0x44 DUP3 ADD MSTORE PUSH1 0x64 ADD PUSH2 0x1137 JUMP JUMPDEST PUSH1 0x2 DUP2 LT ISZERO PUSH2 0x1E79 JUMPI PUSH1 0x40 MLOAD PUSH3 0x461BCD PUSH1 0xE5 SHL DUP2 MSTORE PUSH1 0x20 PUSH1 0x4 DUP3 ADD MSTORE PUSH1 0x25 PUSH1 0x24 DUP3 ADD MSTORE PUSH32 0x446F6D61696E207265717569726573206174206C656173742032206368617261 PUSH1 0x44 DUP3 ADD MSTORE PUSH5 0x6374657273 PUSH1 0xD8 SHL PUSH1 0x64 DUP3 ADD MSTORE PUSH1 0x84 ADD PUSH2 0x1137 JUMP JUMPDEST PUSH1 0x12 SLOAD PUSH1 0xFF AND ISZERO ISZERO PUSH1 0x1 EQ ISZERO PUSH2 0x1F87 JUMPI PUSH1 0x0 PUSH1 0x11 DUP5 PUSH1 0x40 MLOAD PUSH2 0x1E9B SWAP2 SWAP1 PUSH2 0x5723 JUMP JUMPDEST SWAP1 DUP2 MSTORE PUSH1 0x20 ADD PUSH1 0x40 MLOAD DUP1 SWAP2 SUB SWAP1 KECCAK256 DUP1 SLOAD PUSH2 0x1EB4 SWAP1 PUSH2 0x552B JUMP JUMPDEST DUP1 PUSH1 0x1F ADD PUSH1 0x20 DUP1 SWAP2 DIV MUL PUSH1 0x20 ADD PUSH1 0x40 MLOAD SWAP1 DUP2 ADD PUSH1 0x40 MSTORE DUP1 SWAP3 SWAP2 SWAP1 DUP2 DUP2 MSTORE PUSH1 0x20 ADD DUP3 DUP1 SLOAD PUSH2 0x1EE0 SWAP1 PUSH2 0x552B JUMP JUMPDEST DUP1 ISZERO PUSH2 0x1F2D JUMPI DUP1 PUSH1 0x1F LT PUSH2 0x1F02 JUMPI PUSH2 0x100 DUP1 DUP4 SLOAD DIV MUL DUP4 MSTORE SWAP2 PUSH1 0x20 ADD SWAP2 PUSH2 0x1F2D JUMP JUMPDEST DUP3 ADD SWAP2 SWAP1 PUSH1 0x0 MSTORE PUSH1 0x20 PUSH1 0x0 KECCAK256 SWAP1 JUMPDEST DUP2 SLOAD DUP2 MSTORE SWAP1 PUSH1 0x1 ADD SWAP1 PUSH1 0x20 ADD DUP1 DUP4 GT PUSH2 0x1F10 JUMPI DUP3 SWAP1 SUB PUSH1 0x1F AND DUP3 ADD SWAP2 JUMPDEST POP POP POP POP POP SWAP1 POP DUP1 MLOAD PUSH1 0x0 EQ PUSH2 0x1F85 JUMPI PUSH1 0x40 MLOAD PUSH3 0x461BCD PUSH1 0xE5 SHL DUP2 MSTORE PUSH1 0x20 PUSH1 0x4 DUP3 ADD MSTORE PUSH1 0x1D PUSH1 0x24 DUP3 ADD MSTORE PUSH32 0x54686973206E616D6520697320616C7265616479207265736572766564000000 PUSH1 0x44 DUP3 ADD MSTORE PUSH1 0x64 ADD PUSH2 0x1137 JUMP JUMPDEST POP JUMPDEST PUSH1 0x10 SLOAD PUSH1 0xFF AND ISZERO ISZERO PUSH1 0x1 EQ ISZERO PUSH2 0x2065 JUMPI CALLER PUSH1 0x0 SWAP1 DUP2 MSTORE PUSH1 0xF PUSH1 0x20 MSTORE PUSH1 0x40 SWAP1 KECCAK256 SLOAD DUP1 PUSH2 0x2000 JUMPI PUSH1 0x40 MLOAD PUSH3 0x461BCD PUSH1 0xE5 SHL DUP2 MSTORE PUSH1 0x20 PUSH1 0x4 DUP3 ADD MSTORE PUSH1 0x23 PUSH1 0x24 DUP3 ADD MSTORE PUSH32 0x5468652061646472657373206973206E6F7420696E207468652057686974656C PUSH1 0x44 DUP3 ADD MSTORE PUSH3 0x1A5CDD PUSH1 0xEA SHL PUSH1 0x64 DUP3 ADD MSTORE PUSH1 0x84 ADD PUSH2 0x1137 JUMP JUMPDEST PUSH2 0x2009 CALLER PUSH2 0x2325 JUMP JUMPDEST DUP2 LT ISZERO PUSH2 0x2063 JUMPI PUSH1 0x40 MLOAD PUSH3 0x461BCD PUSH1 0xE5 SHL DUP2 MSTORE PUSH1 0x20 PUSH1 0x4 DUP3 ADD MSTORE PUSH1 0x22 PUSH1 0x24 DUP3 ADD MSTORE PUSH32 0x4578636565646564206D617820617661696C61626C6520746F20707572636861 PUSH1 0x44 DUP3 ADD MSTORE PUSH2 0x7365 PUSH1 0xF0 SHL PUSH1 0x64 DUP3 ADD MSTORE PUSH1 0x84 ADD PUSH2 0x1137 JUMP JUMPDEST POP JUMPDEST DUP1 PUSH1 0x2 EQ ISZERO PUSH2 0x2114 JUMPI PUSH1 0x1A SLOAD PUSH1 0xFF PUSH2 0x100 SWAP1 SWAP2 DIV AND ISZERO ISZERO PUSH1 0x1 EQ PUSH2 0x20E6 JUMPI PUSH1 0x40 MLOAD PUSH3 0x461BCD PUSH1 0xE5 SHL DUP2 MSTORE PUSH1 0x20 PUSH1 0x4 DUP3 ADD MSTORE PUSH1 0x32 PUSH1 0x24 DUP3 ADD MSTORE PUSH32 0x322043686172616374657220646F6D61696E206E616D6573206E65656420746F PUSH1 0x44 DUP3 ADD MSTORE PUSH18 0x20626520616C6C6F77656420746F20627579 PUSH1 0x70 SHL PUSH1 0x64 DUP3 ADD MSTORE PUSH1 0x84 ADD PUSH2 0x1137 JUMP JUMPDEST PUSH2 0x20F5 PUSH1 0x1C SLOAD PUSH2 0x131D PUSH1 0x1B SLOAD SWAP1 JUMP JUMPDEST CALLVALUE LT ISZERO PUSH2 0x2114 JUMPI PUSH1 0x40 MLOAD PUSH3 0x461BCD PUSH1 0xE5 SHL DUP2 MSTORE PUSH1 0x4 ADD PUSH2 0x1137 SWAP1 PUSH2 0x5781 JUMP JUMPDEST DUP1 PUSH1 0x3 EQ ISZERO PUSH2 0x214B JUMPI PUSH2 0x212C PUSH1 0x1D SLOAD PUSH2 0x131D PUSH1 0x1B SLOAD SWAP1 JUMP JUMPDEST CALLVALUE LT ISZERO PUSH2 0x214B JUMPI PUSH1 0x40 MLOAD PUSH3 0x461BCD PUSH1 0xE5 SHL DUP2 MSTORE PUSH1 0x4 ADD PUSH2 0x1137 SWAP1 PUSH2 0x5781 JUMP JUMPDEST DUP1 PUSH1 0x4 EQ ISZERO PUSH2 0x2182 JUMPI PUSH2 0x2163 PUSH1 0x1E SLOAD PUSH2 0x131D PUSH1 0x1B SLOAD SWAP1 JUMP JUMPDEST CALLVALUE LT ISZERO PUSH2 0x2182 JUMPI PUSH1 0x40 MLOAD PUSH3 0x461BCD PUSH1 0xE5 SHL DUP2 MSTORE PUSH1 0x4 ADD PUSH2 0x1137 SWAP1 PUSH2 0x5781 JUMP JUMPDEST PUSH1 0x5 DUP2 LT PUSH2 0x21AC JUMPI PUSH1 0x1B SLOAD CALLVALUE LT ISZERO PUSH2 0x21AC JUMPI PUSH1 0x40 MLOAD PUSH3 0x461BCD PUSH1 0xE5 SHL DUP2 MSTORE PUSH1 0x4 ADD PUSH2 0x1137 SWAP1 PUSH2 0x5781 JUMP JUMPDEST PUSH1 0x0 PUSH2 0x21B7 DUP5 PUSH2 0x3AD3 JUMP JUMPDEST SWAP1 POP PUSH1 0x0 PUSH2 0x21C4 DUP5 PUSH2 0x3AD3 JUMP JUMPDEST SWAP1 POP DUP2 DUP2 PUSH1 0x40 MLOAD PUSH1 0x20 ADD PUSH2 0x21D9 SWAP3 SWAP2 SWAP1 PUSH2 0x57D6 JUMP JUMPDEST PUSH1 0x40 MLOAD PUSH1 0x20 DUP2 DUP4 SUB SUB DUP2 MSTORE SWAP1 PUSH1 0x40 MSTORE SWAP2 POP PUSH1 0x0 PUSH2 0x21F5 DUP4 PUSH2 0x1B69 JUMP JUMPDEST SWAP1 POP PUSH2 0x2200 DUP2 PUSH2 0x3469 JUMP JUMPDEST ISZERO PUSH2 0x2245 JUMPI PUSH1 0x40 MLOAD PUSH3 0x461BCD PUSH1 0xE5 SHL DUP2 MSTORE PUSH1 0x20 PUSH1 0x4 DUP3 ADD MSTORE PUSH1 0x15 PUSH1 0x24 DUP3 ADD MSTORE PUSH21 0x446F6D61696E20616C726561647920657869737473 PUSH1 0x58 SHL PUSH1 0x44 DUP3 ADD MSTORE PUSH1 0x64 ADD PUSH2 0x1137 JUMP JUMPDEST PUSH2 0x224F CALLER DUP3 PUSH2 0x3CB8 JUMP JUMPDEST PUSH2 0x2259 DUP2 DUP5 PUSH2 0x3CD2 JUMP JUMPDEST DUP1 PUSH32 0xC5BEEF08F693B11C316C0C8394A377A0033C9CF701B8CD8AFD79CECEF60C3952 DUP5 PUSH1 0x40 MLOAD PUSH2 0x2289 SWAP2 SWAP1 PUSH2 0x4D4F JUMP JUMPDEST PUSH1 0x40 MLOAD DUP1 SWAP2 SUB SWAP1 LOG2 POP POP POP POP POP POP JUMP JUMPDEST PUSH1 0x60 DUP1 PUSH2 0x22A6 DUP5 DUP5 PUSH2 0x3D5B JUMP JUMPDEST SWAP1 SWAP6 SWAP1 SWAP5 POP SWAP3 POP POP POP JUMP JUMPDEST PUSH1 0xB SLOAD PUSH1 0x1 PUSH1 0x1 PUSH1 0xA0 SHL SUB AND CALLER EQ PUSH2 0x22DB JUMPI PUSH1 0x40 MLOAD PUSH3 0x461BCD PUSH1 0xE5 SHL DUP2 MSTORE PUSH1 0x4 ADD PUSH2 0x1137 SWAP1 PUSH2 0x55F3 JUMP JUMPDEST PUSH2 0x17C2 DUP2 PUSH2 0x3D7C JUMP JUMPDEST PUSH2 0x22ED CALLER PUSH2 0x280D JUMP JUMPDEST PUSH2 0x2309 JUMPI PUSH1 0x40 MLOAD PUSH3 0x461BCD PUSH1 0xE5 SHL DUP2 MSTORE PUSH1 0x4 ADD PUSH2 0x1137 SWAP1 PUSH2 0x5628 JUMP JUMPDEST PUSH1 0x1 PUSH1 0x1 PUSH1 0xA0 SHL SUB SWAP1 SWAP2 AND PUSH1 0x0 SWAP1 DUP2 MSTORE PUSH1 0xF PUSH1 0x20 MSTORE PUSH1 0x40 SWAP1 KECCAK256 SSTORE JUMP JUMPDEST PUSH1 0x0 PUSH1 0x1 PUSH1 0x1 PUSH1 0xA0 SHL SUB DUP3 AND PUSH2 0x2390 JUMPI PUSH1 0x40 MLOAD PUSH3 0x461BCD PUSH1 0xE5 SHL DUP2 MSTORE PUSH1 0x20 PUSH1 0x4 DUP3 ADD MSTORE PUSH1 0x2A PUSH1 0x24 DUP3 ADD MSTORE PUSH32 0x4552433732313A2062616C616E636520717565727920666F7220746865207A65 PUSH1 0x44 DUP3 ADD MSTORE PUSH10 0x726F2061646472657373 PUSH1 0xB0 SHL PUSH1 0x64 DUP3 ADD MSTORE PUSH1 0x84 ADD PUSH2 0x1137 JUMP JUMPDEST POP PUSH1 0x1 PUSH1 0x1 PUSH1 0xA0 SHL SUB AND PUSH1 0x0 SWAP1 DUP2 MSTORE PUSH1 0x3 PUSH1 0x20 MSTORE PUSH1 0x40 SWAP1 KECCAK256 SLOAD SWAP1 JUMP JUMPDEST PUSH1 0xB SLOAD PUSH1 0x1 PUSH1 0x1 PUSH1 0xA0 SHL SUB AND CALLER EQ PUSH2 0x23D6 JUMPI PUSH1 0x40 MLOAD PUSH3 0x461BCD PUSH1 0xE5 SHL DUP2 MSTORE PUSH1 0x4 ADD PUSH2 0x1137 SWAP1 PUSH2 0x55F3 JUMP JUMPDEST PUSH2 0x178D PUSH1 0x0 PUSH2 0x3D87 JUMP JUMPDEST PUSH1 0x0 PUSH2 0x23EB DUP3 PUSH2 0x3469 JUMP JUMPDEST PUSH2 0x23F4 JUMPI PUSH1 0x0 DUP1 REVERT JUMPDEST PUSH1 0x0 DUP3 DUP2 MSTORE PUSH1 0x13 PUSH1 0x20 MSTORE PUSH1 0x40 SWAP1 KECCAK256 PUSH2 0x1037 SWAP1 PUSH2 0x3DD9 JUMP JUMPDEST PUSH2 0x2414 CALLER PUSH2 0x280D JUMP JUMPDEST PUSH2 0x2430 JUMPI PUSH1 0x40 MLOAD PUSH3 0x461BCD PUSH1 0xE5 SHL DUP2 MSTORE PUSH1 0x4 ADD PUSH2 0x1137 SWAP1 PUSH2 0x5628 JUMP JUMPDEST PUSH1 0x1 PUSH1 0x1 PUSH1 0xA0 SHL SUB DUP4 AND PUSH2 0x247B JUMPI PUSH1 0x40 MLOAD PUSH3 0x461BCD PUSH1 0xE5 SHL DUP2 MSTORE PUSH1 0x20 PUSH1 0x4 DUP3 ADD MSTORE PUSH1 0x12 PUSH1 0x24 DUP3 ADD MSTORE PUSH18 0x151BC81859191C995CDCC81A5CC81B9D5B1B PUSH1 0x72 SHL PUSH1 0x44 DUP3 ADD MSTORE PUSH1 0x64 ADD PUSH2 0x1137 JUMP JUMPDEST DUP1 MLOAD PUSH2 0x2499 JUMPI PUSH1 0x40 MLOAD PUSH3 0x461BCD PUSH1 0xE5 SHL DUP2 MSTORE PUSH1 0x4 ADD PUSH2 0x1137 SWAP1 PUSH2 0x573F JUMP JUMPDEST PUSH2 0x24A2 DUP2 PUSH2 0x30AC JUMP JUMPDEST ISZERO ISZERO PUSH1 0x1 EQ PUSH2 0x24F3 JUMPI PUSH1 0x40 MLOAD PUSH3 0x461BCD PUSH1 0xE5 SHL DUP2 MSTORE PUSH1 0x20 PUSH1 0x4 DUP3 ADD MSTORE PUSH1 0x1A PUSH1 0x24 DUP3 ADD MSTORE PUSH32 0x546F70206C6576656C20646F6D61696E206E6F74206578697374000000000000 PUSH1 0x44 DUP3 ADD MSTORE PUSH1 0x64 ADD PUSH2 0x1137 JUMP JUMPDEST DUP2 MLOAD PUSH2 0x253C JUMPI PUSH1 0x40 MLOAD PUSH3 0x461BCD PUSH1 0xE5 SHL DUP2 MSTORE PUSH1 0x20 PUSH1 0x4 DUP3 ADD MSTORE PUSH1 0x18 PUSH1 0x24 DUP3 ADD MSTORE PUSH24 0x446F6D61696E206D757374206265206E6F6E2D656D707479 PUSH1 0x40 SHL PUSH1 0x44 DUP3 ADD MSTORE PUSH1 0x64 ADD PUSH2 0x1137 JUMP JUMPDEST PUSH2 0x2545 DUP3 PUSH2 0x3C59 JUMP JUMPDEST ISZERO PUSH2 0x2587 JUMPI PUSH1 0x40 MLOAD PUSH3 0x461BCD PUSH1 0xE5 SHL DUP2 MSTORE PUSH1 0x20 PUSH1 0x4 DUP3 ADD MSTORE PUSH1 0x12 PUSH1 0x24 DUP3 ADD MSTORE PUSH18 0x111BDB585A5B881B9BDD081CDD5C1C1BDC9D PUSH1 0x72 SHL PUSH1 0x44 DUP3 ADD MSTORE PUSH1 0x64 ADD PUSH2 0x1137 JUMP JUMPDEST PUSH1 0x0 PUSH2 0x2592 DUP4 PUSH2 0x3AD3 JUMP JUMPDEST SWAP1 POP PUSH1 0x0 PUSH2 0x259F DUP4 PUSH2 0x3AD3 JUMP JUMPDEST SWAP1 POP DUP2 DUP2 PUSH1 0x40 MLOAD PUSH1 0x20 ADD PUSH2 0x25B4 SWAP3 SWAP2 SWAP1 PUSH2 0x57D6 JUMP JUMPDEST PUSH1 0x40 MLOAD PUSH1 0x20 DUP2 DUP4 SUB SUB DUP2 MSTORE SWAP1 PUSH1 0x40 MSTORE SWAP2 POP PUSH1 0x0 PUSH2 0x25D0 DUP4 PUSH2 0x1B69 JUMP JUMPDEST SWAP1 POP PUSH2 0x25DB DUP2 PUSH2 0x3469 JUMP JUMPDEST ISZERO PUSH2 0x2620 JUMPI PUSH1 0x40 MLOAD PUSH3 0x461BCD PUSH1 0xE5 SHL DUP2 MSTORE PUSH1 0x20 PUSH1 0x4 DUP3 ADD MSTORE PUSH1 0x15 PUSH1 0x24 DUP3 ADD MSTORE PUSH21 0x446F6D61696E20616C726561647920657869737473 PUSH1 0x58 SHL PUSH1 0x44 DUP3 ADD MSTORE PUSH1 0x64 ADD PUSH2 0x1137 JUMP JUMPDEST PUSH2 0x224F DUP7 DUP3 PUSH2 0x3CB8 JUMP JUMPDEST PUSH1 0x0 DUP1 PUSH2 0x2636 DUP4 PUSH2 0x1B69 JUMP JUMPDEST SWAP1 POP PUSH2 0x2641 DUP2 PUSH2 0x3469 JUMP JUMPDEST PUSH2 0x264E JUMPI POP PUSH1 0x0 SWAP3 SWAP2 POP POP JUMP JUMPDEST PUSH1 0x0 DUP2 DUP2 MSTORE PUSH1 0x16 PUSH1 0x20 MSTORE PUSH1 0x40 SWAP1 KECCAK256 SLOAD PUSH1 0x1 PUSH1 0x1 PUSH1 0xA0 SHL SUB AND DUP1 PUSH2 0x1641 JUMPI POP ADDRESS SWAP4 SWAP3 POP POP POP JUMP JUMPDEST PUSH2 0x267D CALLER PUSH2 0x280D JUMP JUMPDEST PUSH2 0x2699 JUMPI PUSH1 0x40 MLOAD PUSH3 0x461BCD PUSH1 0xE5 SHL DUP2 MSTORE PUSH1 0x4 ADD PUSH2 0x1137 SWAP1 PUSH2 0x5628 JUMP JUMPDEST PUSH1 0x11 DUP3 DUP3 PUSH1 0x40 MLOAD PUSH2 0x26AB SWAP3 SWAP2 SWAP1 PUSH2 0x5672 JUMP JUMPDEST SWAP1 DUP2 MSTORE PUSH1 0x20 ADD PUSH1 0x40 MLOAD DUP1 SWAP2 SUB SWAP1 KECCAK256 PUSH1 0x0 PUSH2 0x16FA SWAP2 SWAP1 PUSH2 0x4BCA JUMP JUMPDEST PUSH1 0x1 PUSH1 0x1 PUSH1 0xA0 SHL SUB DUP2 AND PUSH1 0x0 SWAP1 DUP2 MSTORE PUSH1 0x17 PUSH1 0x20 MSTORE PUSH1 0x40 SWAP1 KECCAK256 SLOAD PUSH1 0x60 SWAP1 DUP1 PUSH2 0x26FE JUMPI PUSH1 0x40 MLOAD PUSH3 0x461BCD PUSH1 0xE5 SHL DUP2 MSTORE PUSH1 0x4 ADD PUSH2 0x1137 SWAP1 PUSH2 0x5812 JUMP JUMPDEST PUSH2 0x2708 DUP4 DUP3 PUSH2 0x3535 JUMP JUMPDEST PUSH2 0x276E JUMPI PUSH1 0x40 MLOAD PUSH3 0x461BCD PUSH1 0xE5 SHL DUP2 MSTORE PUSH1 0x20 PUSH1 0x4 DUP3 ADD MSTORE PUSH1 0x31 PUSH1 0x24 DUP3 ADD MSTORE PUSH32 0x526576657273655265736F6C7665723A204143434F554E545F49535F4E4F545F PUSH1 0x44 DUP3 ADD MSTORE PUSH17 0x20A8282927AB22A22FA7A92FA7ABA722A9 PUSH1 0x79 SHL PUSH1 0x64 DUP3 ADD MSTORE PUSH1 0x84 ADD PUSH2 0x1137 JUMP JUMPDEST PUSH1 0x0 DUP2 DUP2 MSTORE PUSH1 0x14 PUSH1 0x20 MSTORE PUSH1 0x40 SWAP1 KECCAK256 DUP1 SLOAD PUSH2 0x2787 SWAP1 PUSH2 0x552B JUMP JUMPDEST DUP1 PUSH1 0x1F ADD PUSH1 0x20 DUP1 SWAP2 DIV MUL PUSH1 0x20 ADD PUSH1 0x40 MLOAD SWAP1 DUP2 ADD PUSH1 0x40 MSTORE DUP1 SWAP3 SWAP2 SWAP1 DUP2 DUP2 MSTORE PUSH1 0x20 ADD DUP3 DUP1 SLOAD PUSH2 0x27B3 SWAP1 PUSH2 0x552B JUMP JUMPDEST DUP1 ISZERO PUSH2 0x2800 JUMPI DUP1 PUSH1 0x1F LT PUSH2 0x27D5 JUMPI PUSH2 0x100 DUP1 DUP4 SLOAD DIV MUL DUP4 MSTORE SWAP2 PUSH1 0x20 ADD SWAP2 PUSH2 0x2800 JUMP JUMPDEST DUP3 ADD SWAP2 SWAP1 PUSH1 0x0 MSTORE PUSH1 0x20 PUSH1 0x0 KECCAK256 SWAP1 JUMPDEST DUP2 SLOAD DUP2 MSTORE SWAP1 PUSH1 0x1 ADD SWAP1 PUSH1 0x20 ADD DUP1 DUP4 GT PUSH2 0x27E3 JUMPI DUP3 SWAP1 SUB PUSH1 0x1F AND DUP3 ADD SWAP2 JUMPDEST POP POP POP POP POP SWAP2 POP POP SWAP2 SWAP1 POP JUMP JUMPDEST PUSH1 0x0 PUSH2 0x1037 PUSH1 0xC DUP4 PUSH2 0x3DE3 JUMP JUMPDEST DUP1 PUSH2 0x2824 CALLER PUSH2 0x1561 JUMP JUMPDEST PUSH2 0x282D JUMPI PUSH1 0x0 DUP1 REVERT JUMPDEST DUP2 PUSH2 0x284A JUMPI PUSH1 0x40 MLOAD PUSH3 0x461BCD PUSH1 0xE5 SHL DUP2 MSTORE PUSH1 0x4 ADD PUSH2 0x1137 SWAP1 PUSH2 0x5812 JUMP JUMPDEST POP PUSH1 0x0 SWAP1 DUP2 MSTORE PUSH1 0x16 PUSH1 0x20 MSTORE PUSH1 0x40 SWAP1 KECCAK256 DUP1 SLOAD PUSH1 0x1 PUSH1 0x1 PUSH1 0xA0 SHL SUB NOT AND SWAP1 SSTORE JUMP JUMPDEST PUSH1 0xB SLOAD PUSH1 0x1 PUSH1 0x1 PUSH1 0xA0 SHL SUB AND CALLER EQ PUSH2 0x2893 JUMPI PUSH1 0x40 MLOAD PUSH3 0x461BCD PUSH1 0xE5 SHL DUP2 MSTORE PUSH1 0x4 ADD PUSH2 0x1137 SWAP1 PUSH2 0x55F3 JUMP JUMPDEST PUSH1 0x1C SWAP3 SWAP1 SWAP3 SSTORE PUSH1 0x1D SSTORE PUSH1 0x1E SSTORE JUMP JUMPDEST PUSH1 0xB SLOAD PUSH1 0x1 PUSH1 0x1 PUSH1 0xA0 SHL SUB AND CALLER EQ PUSH2 0x28CB JUMPI PUSH1 0x40 MLOAD PUSH3 0x461BCD PUSH1 0xE5 SHL DUP2 MSTORE PUSH1 0x4 ADD PUSH2 0x1137 SWAP1 PUSH2 0x55F3 JUMP JUMPDEST PUSH1 0x1B SSTORE JUMP JUMPDEST PUSH1 0x60 PUSH1 0x1 DUP1 SLOAD PUSH2 0x104C SWAP1 PUSH2 0x552B JUMP JUMPDEST DUP2 PUSH2 0x28E9 CALLER PUSH2 0x1561 JUMP JUMPDEST PUSH2 0x28F2 JUMPI PUSH1 0x0 DUP1 REVERT JUMPDEST PUSH2 0x184D DUP5 DUP5 DUP5 PUSH1 0x40 MLOAD DUP1 PUSH1 0x20 ADD PUSH1 0x40 MSTORE DUP1 PUSH1 0x0 DUP2 MSTORE POP PUSH2 0x3E66 JUMP JUMPDEST PUSH1 0x0 PUSH2 0x2918 DUP3 PUSH2 0x1B69 JUMP JUMPDEST SWAP1 POP CALLER PUSH2 0x2925 DUP2 DUP4 PUSH2 0x3535 JUMP JUMPDEST PUSH2 0x2941 JUMPI PUSH1 0x40 MLOAD PUSH3 0x461BCD PUSH1 0xE5 SHL DUP2 MSTORE PUSH1 0x4 ADD PUSH2 0x1137 SWAP1 PUSH2 0x56D3 JUMP JUMPDEST PUSH1 0x1 PUSH1 0x1 PUSH1 0xA0 SHL SUB AND PUSH1 0x0 SWAP1 DUP2 MSTORE PUSH1 0x17 PUSH1 0x20 MSTORE PUSH1 0x40 SWAP1 KECCAK256 SSTORE POP JUMP JUMPDEST PUSH1 0x1 PUSH1 0x1 PUSH1 0xA0 SHL SUB DUP3 AND CALLER EQ ISZERO PUSH2 0x29B5 JUMPI PUSH1 0x40 MLOAD PUSH3 0x461BCD PUSH1 0xE5 SHL DUP2 MSTORE PUSH1 0x20 PUSH1 0x4 DUP3 ADD MSTORE PUSH1 0x19 PUSH1 0x24 DUP3 ADD MSTORE PUSH32 0x4552433732313A20617070726F766520746F2063616C6C657200000000000000 PUSH1 0x44 DUP3 ADD MSTORE PUSH1 0x64 ADD PUSH2 0x1137 JUMP JUMPDEST CALLER PUSH1 0x0 DUP2 DUP2 MSTORE PUSH1 0x5 PUSH1 0x20 SWAP1 DUP2 MSTORE PUSH1 0x40 DUP1 DUP4 KECCAK256 PUSH1 0x1 PUSH1 0x1 PUSH1 0xA0 SHL SUB DUP8 AND DUP1 DUP6 MSTORE SWAP1 DUP4 MSTORE SWAP3 DUP2 SWAP1 KECCAK256 DUP1 SLOAD PUSH1 0xFF NOT AND DUP7 ISZERO ISZERO SWAP1 DUP2 OR SWAP1 SWAP2 SSTORE SWAP1 MLOAD SWAP1 DUP2 MSTORE SWAP2 SWAP3 SWAP2 PUSH32 0x17307EAB39AB6107E8899845AD3D59BD9653F200F220920489CA2B5937696C31 SWAP2 ADD PUSH1 0x40 MLOAD DUP1 SWAP2 SUB SWAP1 LOG3 POP POP JUMP JUMPDEST DUP1 PUSH2 0x2A2B CALLER PUSH2 0x1561 JUMP JUMPDEST PUSH2 0x2A34 JUMPI PUSH1 0x0 DUP1 REVERT JUMPDEST PUSH2 0x126D PUSH2 0x2A40 DUP4 PUSH2 0x1C39 JUMP JUMPDEST DUP5 DUP5 PUSH2 0x3688 JUMP JUMPDEST PUSH1 0xB SLOAD PUSH1 0x1 PUSH1 0x1 PUSH1 0xA0 SHL SUB AND CALLER EQ PUSH2 0x2A71 JUMPI PUSH1 0x40 MLOAD PUSH3 0x461BCD PUSH1 0xE5 SHL DUP2 MSTORE PUSH1 0x4 ADD PUSH2 0x1137 SWAP1 PUSH2 0x55F3 JUMP JUMPDEST PUSH1 0x0 PUSH2 0x2A7C DUP3 PUSH2 0x1B69 JUMP JUMPDEST PUSH1 0x0 DUP2 DUP2 MSTORE PUSH1 0x18 PUSH1 0x20 SWAP1 DUP2 MSTORE PUSH1 0x40 SWAP1 SWAP2 KECCAK256 DUP5 MLOAD SWAP3 SWAP4 POP PUSH2 0x126D SWAP3 SWAP1 SWAP2 DUP6 ADD SWAP1 PUSH2 0x4C04 JUMP JUMPDEST PUSH1 0x0 PUSH2 0x2AAB DUP3 PUSH2 0x3469 JUMP JUMPDEST PUSH2 0x2AB7 JUMPI POP PUSH1 0x0 SWAP2 SWAP1 POP JUMP JUMPDEST PUSH1 0x0 DUP3 DUP2 MSTORE PUSH1 0x16 PUSH1 0x20 MSTORE PUSH1 0x40 SWAP1 KECCAK256 SLOAD PUSH1 0x1 PUSH1 0x1 PUSH1 0xA0 SHL SUB AND DUP1 PUSH2 0x1037 JUMPI POP ADDRESS SWAP3 SWAP2 POP POP JUMP JUMPDEST PUSH1 0x60 DUP1 DUP4 PUSH1 0x1 PUSH1 0x1 PUSH1 0x40 SHL SUB DUP2 GT ISZERO PUSH2 0x2AF7 JUMPI PUSH2 0x2AF7 PUSH2 0x4F9B JUMP JUMPDEST PUSH1 0x40 MLOAD SWAP1 DUP1 DUP3 MSTORE DUP1 PUSH1 0x20 MUL PUSH1 0x20 ADD DUP3 ADD PUSH1 0x40 MSTORE DUP1 ISZERO PUSH2 0x2B2A JUMPI DUP2 PUSH1 0x20 ADD JUMPDEST PUSH1 0x60 DUP2 MSTORE PUSH1 0x20 ADD SWAP1 PUSH1 0x1 SWAP1 SUB SWAP1 DUP2 PUSH2 0x2B15 JUMPI SWAP1 POP JUMPDEST POP SWAP2 POP DUP4 PUSH1 0x1 PUSH1 0x1 PUSH1 0x40 SHL SUB DUP2 GT ISZERO PUSH2 0x2B45 JUMPI PUSH2 0x2B45 PUSH2 0x4F9B JUMP JUMPDEST PUSH1 0x40 MLOAD SWAP1 DUP1 DUP3 MSTORE DUP1 PUSH1 0x20 MUL PUSH1 0x20 ADD DUP3 ADD PUSH1 0x40 MSTORE DUP1 ISZERO PUSH2 0x2B78 JUMPI DUP2 PUSH1 0x20 ADD JUMPDEST PUSH1 0x60 DUP2 MSTORE PUSH1 0x20 ADD SWAP1 PUSH1 0x1 SWAP1 SUB SWAP1 DUP2 PUSH2 0x2B63 JUMPI SWAP1 POP JUMPDEST POP SWAP1 POP PUSH1 0x0 JUMPDEST DUP5 DUP2 LT ISZERO PUSH2 0x2BF5 JUMPI PUSH2 0x2BA8 DUP7 DUP7 DUP4 DUP2 DUP2 LT PUSH2 0x2B9B JUMPI PUSH2 0x2B9B PUSH2 0x5566 JUMP JUMPDEST SWAP1 POP PUSH1 0x20 MUL ADD CALLDATALOAD DUP6 PUSH2 0x3D5B JUMP JUMPDEST DUP5 DUP4 DUP2 MLOAD DUP2 LT PUSH2 0x2BBA JUMPI PUSH2 0x2BBA PUSH2 0x5566 JUMP JUMPDEST PUSH1 0x20 MUL PUSH1 0x20 ADD ADD DUP5 DUP5 DUP2 MLOAD DUP2 LT PUSH2 0x2BD3 JUMPI PUSH2 0x2BD3 PUSH2 0x5566 JUMP JUMPDEST PUSH1 0x20 MUL PUSH1 0x20 ADD ADD DUP3 SWAP1 MSTORE DUP3 SWAP1 MSTORE POP POP DUP1 DUP1 PUSH2 0x2BED SWAP1 PUSH2 0x55D8 JUMP JUMPDEST SWAP2 POP POP PUSH2 0x2B7E JUMP JUMPDEST POP SWAP4 POP SWAP4 SWAP2 POP POP JUMP JUMPDEST PUSH2 0x2C08 CALLER DUP4 PUSH2 0x3535 JUMP JUMPDEST PUSH2 0x2C24 JUMPI PUSH1 0x40 MLOAD PUSH3 0x461BCD PUSH1 0xE5 SHL DUP2 MSTORE PUSH1 0x4 ADD PUSH2 0x1137 SWAP1 PUSH2 0x5682 JUMP JUMPDEST PUSH2 0x2C2D DUP3 PUSH2 0x361B JUMP JUMPDEST PUSH2 0x184D DUP5 DUP5 DUP5 DUP5 PUSH2 0x4033 JUMP JUMPDEST PUSH1 0x0 DUP2 DUP2 MSTORE PUSH1 0xA PUSH1 0x20 MSTORE PUSH1 0x40 SWAP1 KECCAK256 DUP1 SLOAD PUSH1 0x60 SWAP2 SWAP1 PUSH2 0x2C56 SWAP1 PUSH2 0x552B JUMP JUMPDEST DUP1 PUSH1 0x1F ADD PUSH1 0x20 DUP1 SWAP2 DIV MUL PUSH1 0x20 ADD PUSH1 0x40 MLOAD SWAP1 DUP2 ADD PUSH1 0x40 MSTORE DUP1 SWAP3 SWAP2 SWAP1 DUP2 DUP2 MSTORE PUSH1 0x20 ADD DUP3 DUP1 SLOAD PUSH2 0x2C82 SWAP1 PUSH2 0x552B JUMP JUMPDEST DUP1 ISZERO PUSH2 0x2CCF JUMPI DUP1 PUSH1 0x1F LT PUSH2 0x2CA4 JUMPI PUSH2 0x100 DUP1 DUP4 SLOAD DIV MUL DUP4 MSTORE SWAP2 PUSH1 0x20 ADD SWAP2 PUSH2 0x2CCF JUMP JUMPDEST DUP3 ADD SWAP2 SWAP1 PUSH1 0x0 MSTORE PUSH1 0x20 PUSH1 0x0 KECCAK256 SWAP1 JUMPDEST DUP2 SLOAD DUP2 MSTORE SWAP1 PUSH1 0x1 ADD SWAP1 PUSH1 0x20 ADD DUP1 DUP4 GT PUSH2 0x2CB2 JUMPI DUP3 SWAP1 SUB PUSH1 0x1F AND DUP3 ADD SWAP2 JUMPDEST POP POP POP POP POP SWAP1 POP SWAP2 SWAP1 POP JUMP JUMPDEST DUP2 PUSH2 0x2CE5 CALLER PUSH2 0x1561 JUMP JUMPDEST PUSH2 0x2CEE JUMPI PUSH1 0x0 DUP1 REVERT JUMPDEST PUSH2 0x126D DUP4 DUP4 PUSH2 0x4066 JUMP JUMPDEST PUSH1 0x60 DUP1 PUSH1 0x0 PUSH2 0x2D06 DUP5 PUSH2 0x2325 JUMP JUMPDEST SWAP1 POP PUSH1 0x0 DUP2 GT PUSH2 0x2D32 JUMPI PUSH1 0x40 MLOAD PUSH3 0x461BCD PUSH1 0xE5 SHL DUP2 MSTORE PUSH1 0x20 PUSH1 0x4 DUP3 ADD MSTORE PUSH1 0x0 PUSH1 0x24 DUP3 ADD MSTORE PUSH1 0x44 ADD PUSH2 0x1137 JUMP JUMPDEST PUSH1 0x0 DUP2 PUSH1 0x1 PUSH1 0x1 PUSH1 0x40 SHL SUB DUP2 GT ISZERO PUSH2 0x2D4C JUMPI PUSH2 0x2D4C PUSH2 0x4F9B JUMP JUMPDEST PUSH1 0x40 MLOAD SWAP1 DUP1 DUP3 MSTORE DUP1 PUSH1 0x20 MUL PUSH1 0x20 ADD DUP3 ADD PUSH1 0x40 MSTORE DUP1 ISZERO PUSH2 0x2D75 JUMPI DUP2 PUSH1 0x20 ADD PUSH1 0x20 DUP3 MUL DUP1 CALLDATASIZE DUP4 CALLDATACOPY ADD SWAP1 POP JUMPDEST POP SWAP1 POP PUSH1 0x0 DUP3 PUSH1 0x1 PUSH1 0x1 PUSH1 0x40 SHL SUB DUP2 GT ISZERO PUSH2 0x2D92 JUMPI PUSH2 0x2D92 PUSH2 0x4F9B JUMP JUMPDEST PUSH1 0x40 MLOAD SWAP1 DUP1 DUP3 MSTORE DUP1 PUSH1 0x20 MUL PUSH1 0x20 ADD DUP3 ADD PUSH1 0x40 MSTORE DUP1 ISZERO PUSH2 0x2DC5 JUMPI DUP2 PUSH1 0x20 ADD JUMPDEST PUSH1 0x60 DUP2 MSTORE PUSH1 0x20 ADD SWAP1 PUSH1 0x1 SWAP1 SUB SWAP1 DUP2 PUSH2 0x2DB0 JUMPI SWAP1 POP JUMPDEST POP SWAP1 POP PUSH1 0x0 JUMPDEST DUP4 DUP2 LT ISZERO PUSH2 0x2ECF JUMPI PUSH1 0x0 PUSH2 0x2DDF DUP9 DUP4 PUSH2 0x1648 JUMP JUMPDEST PUSH1 0x0 DUP2 DUP2 MSTORE PUSH1 0x14 PUSH1 0x20 MSTORE PUSH1 0x40 DUP2 KECCAK256 DUP1 SLOAD SWAP3 SWAP4 POP SWAP1 SWAP2 PUSH2 0x2DFD SWAP1 PUSH2 0x552B JUMP JUMPDEST DUP1 PUSH1 0x1F ADD PUSH1 0x20 DUP1 SWAP2 DIV MUL PUSH1 0x20 ADD PUSH1 0x40 MLOAD SWAP1 DUP2 ADD PUSH1 0x40 MSTORE DUP1 SWAP3 SWAP2 SWAP1 DUP2 DUP2 MSTORE PUSH1 0x20 ADD DUP3 DUP1 SLOAD PUSH2 0x2E29 SWAP1 PUSH2 0x552B JUMP JUMPDEST DUP1 ISZERO PUSH2 0x2E76 JUMPI DUP1 PUSH1 0x1F LT PUSH2 0x2E4B JUMPI PUSH2 0x100 DUP1 DUP4 SLOAD DIV MUL DUP4 MSTORE SWAP2 PUSH1 0x20 ADD SWAP2 PUSH2 0x2E76 JUMP JUMPDEST DUP3 ADD SWAP2 SWAP1 PUSH1 0x0 MSTORE PUSH1 0x20 PUSH1 0x0 KECCAK256 SWAP1 JUMPDEST DUP2 SLOAD DUP2 MSTORE SWAP1 PUSH1 0x1 ADD SWAP1 PUSH1 0x20 ADD DUP1 DUP4 GT PUSH2 0x2E59 JUMPI DUP3 SWAP1 SUB PUSH1 0x1F AND DUP3 ADD SWAP2 JUMPDEST POP POP POP POP POP SWAP1 POP DUP2 DUP6 DUP5 DUP2 MLOAD DUP2 LT PUSH2 0x2E90 JUMPI PUSH2 0x2E90 PUSH2 0x5566 JUMP JUMPDEST PUSH1 0x20 MUL PUSH1 0x20 ADD ADD DUP2 DUP2 MSTORE POP POP DUP1 DUP5 DUP5 DUP2 MLOAD DUP2 LT PUSH2 0x2EAF JUMPI PUSH2 0x2EAF PUSH2 0x5566 JUMP JUMPDEST PUSH1 0x20 MUL PUSH1 0x20 ADD ADD DUP2 SWAP1 MSTORE POP POP POP DUP1 DUP1 PUSH2 0x2EC7 SWAP1 PUSH2 0x55D8 JUMP JUMPDEST SWAP2 POP POP PUSH2 0x2DCB JUMP JUMPDEST POP SWAP1 SWAP6 SWAP1 SWAP5 POP SWAP3 POP POP POP JUMP JUMPDEST PUSH1 0x15 PUSH1 0x20 MSTORE PUSH1 0x0 SWAP1 DUP2 MSTORE PUSH1 0x40 SWAP1 KECCAK256 DUP1 SLOAD PUSH2 0x128B SWAP1 PUSH2 0x552B JUMP JUMPDEST DUP2 PUSH2 0x2EFE CALLER PUSH2 0x1561 JUMP JUMPDEST PUSH2 0x2F07 JUMPI PUSH1 0x0 DUP1 REVERT JUMPDEST PUSH2 0x126D DUP4 DUP4 PUSH2 0x40A6 JUMP JUMPDEST PUSH1 0x0 PUSH2 0x1323 PUSH1 0x1D SLOAD PUSH2 0x131D PUSH1 0x1B SLOAD SWAP1 JUMP JUMPDEST PUSH1 0x60 PUSH2 0x2F2D DUP3 PUSH2 0x3469 JUMP JUMPDEST PUSH2 0x2F91 JUMPI PUSH1 0x40 MLOAD PUSH3 0x461BCD PUSH1 0xE5 SHL DUP2 MSTORE PUSH1 0x20 PUSH1 0x4 DUP3 ADD MSTORE PUSH1 0x2F PUSH1 0x24 DUP3 ADD MSTORE PUSH32 0x4552433732314D657461646174613A2055524920717565727920666F72206E6F PUSH1 0x44 DUP3 ADD MSTORE PUSH15 0x3732BC34B9BA32B73A103A37B5B2B7 PUSH1 0x89 SHL PUSH1 0x64 DUP3 ADD MSTORE PUSH1 0x84 ADD PUSH2 0x1137 JUMP JUMPDEST PUSH1 0x0 DUP3 DUP2 MSTORE PUSH1 0x14 PUSH1 0x20 MSTORE PUSH1 0x40 DUP2 KECCAK256 DUP1 SLOAD PUSH2 0x2FAA SWAP1 PUSH2 0x552B JUMP JUMPDEST DUP1 PUSH1 0x1F ADD PUSH1 0x20 DUP1 SWAP2 DIV MUL PUSH1 0x20 ADD PUSH1 0x40 MLOAD SWAP1 DUP2 ADD PUSH1 0x40 MSTORE DUP1 SWAP3 SWAP2 SWAP1 DUP2 DUP2 MSTORE PUSH1 0x20 ADD DUP3 DUP1 SLOAD PUSH2 0x2FD6 SWAP1 PUSH2 0x552B JUMP JUMPDEST DUP1 ISZERO PUSH2 0x3023 JUMPI DUP1 PUSH1 0x1F LT PUSH2 0x2FF8 JUMPI PUSH2 0x100 DUP1 DUP4 SLOAD DIV MUL DUP4 MSTORE SWAP2 PUSH1 0x20 ADD SWAP2 PUSH2 0x3023 JUMP JUMPDEST DUP3 ADD SWAP2 SWAP1 PUSH1 0x0 MSTORE PUSH1 0x20 PUSH1 0x0 KECCAK256 SWAP1 JUMPDEST DUP2 SLOAD DUP2 MSTORE SWAP1 PUSH1 0x1 ADD SWAP1 PUSH1 0x20 ADD DUP1 DUP4 GT PUSH2 0x3006 JUMPI DUP3 SWAP1 SUB PUSH1 0x1F AND DUP3 ADD SWAP2 JUMPDEST POP POP POP POP POP SWAP1 POP PUSH1 0x0 PUSH2 0x3034 PUSH2 0x4152 JUMP JUMPDEST SWAP1 POP DUP1 MLOAD PUSH1 0x0 EQ ISZERO PUSH2 0x3047 JUMPI POP SWAP3 SWAP2 POP POP JUMP JUMPDEST DUP2 MLOAD ISZERO PUSH2 0x3079 JUMPI DUP1 DUP3 PUSH1 0x40 MLOAD PUSH1 0x20 ADD PUSH2 0x3061 SWAP3 SWAP2 SWAP1 PUSH2 0x585A JUMP JUMPDEST PUSH1 0x40 MLOAD PUSH1 0x20 DUP2 DUP4 SUB SUB DUP2 MSTORE SWAP1 PUSH1 0x40 MSTORE SWAP3 POP POP POP SWAP2 SWAP1 POP JUMP JUMPDEST DUP1 DUP5 PUSH1 0x40 MLOAD PUSH1 0x20 ADD PUSH2 0x3061 SWAP3 SWAP2 SWAP1 PUSH2 0x5889 JUMP JUMPDEST DUP1 PUSH2 0x3096 CALLER PUSH2 0x1561 JUMP JUMPDEST PUSH2 0x309F JUMPI PUSH1 0x0 DUP1 REVERT JUMPDEST PUSH2 0x160B DUP7 DUP7 DUP7 DUP7 DUP7 PUSH2 0x4161 JUMP JUMPDEST PUSH1 0x0 DUP1 DUP1 PUSH2 0x30B9 DUP5 PUSH2 0x1B69 JUMP JUMPDEST PUSH1 0x0 DUP2 DUP2 MSTORE PUSH1 0x18 PUSH1 0x20 MSTORE PUSH1 0x40 SWAP1 KECCAK256 DUP1 SLOAD SWAP2 SWAP3 POP SWAP1 PUSH2 0x30D6 SWAP1 PUSH2 0x552B JUMP JUMPDEST ISZERO SWAP1 POP PUSH2 0x30E2 JUMPI PUSH1 0x1 SWAP2 POP JUMPDEST POP SWAP3 SWAP2 POP POP JUMP JUMPDEST PUSH1 0xB SLOAD PUSH1 0x1 PUSH1 0x1 PUSH1 0xA0 SHL SUB AND CALLER EQ PUSH2 0x3113 JUMPI PUSH1 0x40 MLOAD PUSH3 0x461BCD PUSH1 0xE5 SHL DUP2 MSTORE PUSH1 0x4 ADD PUSH2 0x1137 SWAP1 PUSH2 0x55F3 JUMP JUMPDEST PUSH1 0x12 DUP1 SLOAD PUSH1 0xFF NOT DUP2 AND PUSH1 0xFF SWAP1 SWAP2 AND ISZERO OR SWAP1 SSTORE JUMP JUMPDEST DUP1 PUSH2 0x3131 CALLER PUSH2 0x1561 JUMP JUMPDEST PUSH2 0x313A JUMPI PUSH1 0x0 DUP1 REVERT JUMPDEST PUSH2 0x160B DUP7 DUP7 DUP7 DUP7 DUP7 PUSH2 0x41CF JUMP JUMPDEST PUSH1 0xB SLOAD PUSH1 0x1 PUSH1 0x1 PUSH1 0xA0 SHL SUB AND CALLER EQ PUSH2 0x3171 JUMPI PUSH1 0x40 MLOAD PUSH3 0x461BCD PUSH1 0xE5 SHL DUP2 MSTORE PUSH1 0x4 ADD PUSH2 0x1137 SWAP1 PUSH2 0x55F3 JUMP JUMPDEST PUSH1 0x10 DUP1 SLOAD PUSH1 0xFF NOT AND SWAP2 ISZERO ISZERO SWAP2 SWAP1 SWAP2 OR SWAP1 SSTORE JUMP JUMPDEST CALLER PUSH1 0x0 DUP2 DUP2 MSTORE PUSH1 0x17 PUSH1 0x20 MSTORE PUSH1 0x40 SWAP1 KECCAK256 SLOAD DUP1 PUSH2 0x31B1 JUMPI PUSH1 0x40 MLOAD PUSH3 0x461BCD PUSH1 0xE5 SHL DUP2 MSTORE PUSH1 0x4 ADD PUSH2 0x1137 SWAP1 PUSH2 0x5812 JUMP JUMPDEST POP PUSH1 0x1 PUSH1 0x1 PUSH1 0xA0 SHL SUB AND PUSH1 0x0 SWAP1 DUP2 MSTORE PUSH1 0x17 PUSH1 0x20 MSTORE PUSH1 0x40 DUP2 KECCAK256 SSTORE JUMP JUMPDEST PUSH1 0xB SLOAD PUSH1 0x1 PUSH1 0x1 PUSH1 0xA0 SHL SUB AND CALLER EQ PUSH2 0x31F6 JUMPI PUSH1 0x40 MLOAD PUSH3 0x461BCD PUSH1 0xE5 SHL DUP2 MSTORE PUSH1 0x4 ADD PUSH2 0x1137 SWAP1 PUSH2 0x55F3 JUMP JUMPDEST PUSH1 0x1 PUSH1 0x1 PUSH1 0xA0 SHL SUB DUP2 AND PUSH2 0x325B JUMPI PUSH1 0x40 MLOAD PUSH3 0x461BCD PUSH1 0xE5 SHL DUP2 MSTORE PUSH1 0x20 PUSH1 0x4 DUP3 ADD MSTORE PUSH1 0x26 PUSH1 0x24 DUP3 ADD MSTORE PUSH32 0x4F776E61626C653A206E6577206F776E657220697320746865207A65726F2061 PUSH1 0x44 DUP3 ADD MSTORE PUSH6 0x646472657373 PUSH1 0xD0 SHL PUSH1 0x64 DUP3 ADD MSTORE PUSH1 0x84 ADD PUSH2 0x1137 JUMP JUMPDEST PUSH2 0x17C2 DUP2 PUSH2 0x3D87 JUMP JUMPDEST PUSH1 0x60 DUP2 PUSH1 0x1 PUSH1 0x1 PUSH1 0x40 SHL SUB DUP2 GT ISZERO PUSH2 0x327E JUMPI PUSH2 0x327E PUSH2 0x4F9B JUMP JUMPDEST PUSH1 0x40 MLOAD SWAP1 DUP1 DUP3 MSTORE DUP1 PUSH1 0x20 MUL PUSH1 0x20 ADD DUP3 ADD PUSH1 0x40 MSTORE DUP1 ISZERO PUSH2 0x32B1 JUMPI DUP2 PUSH1 0x20 ADD JUMPDEST PUSH1 0x60 DUP2 MSTORE PUSH1 0x20 ADD SWAP1 PUSH1 0x1 SWAP1 SUB SWAP1 DUP2 PUSH2 0x329C JUMPI SWAP1 POP JUMPDEST POP SWAP1 POP PUSH1 0x0 JUMPDEST DUP3 DUP2 LT ISZERO PUSH2 0x30E2 JUMPI PUSH2 0x32E0 DUP5 DUP5 DUP4 DUP2 DUP2 LT PUSH2 0x32D4 JUMPI PUSH2 0x32D4 PUSH2 0x5566 JUMP JUMPDEST SWAP1 POP PUSH1 0x20 MUL ADD CALLDATALOAD PUSH2 0x2C39 JUMP JUMPDEST DUP3 DUP3 DUP2 MLOAD DUP2 LT PUSH2 0x32F2 JUMPI PUSH2 0x32F2 PUSH2 0x5566 JUMP JUMPDEST PUSH1 0x20 MUL PUSH1 0x20 ADD ADD DUP2 SWAP1 MSTORE POP DUP1 DUP1 PUSH2 0x3308 SWAP1 PUSH2 0x55D8 JUMP JUMPDEST SWAP2 POP POP PUSH2 0x32B7 JUMP JUMPDEST PUSH1 0x0 DUP1 PUSH1 0x11 DUP5 DUP5 PUSH1 0x40 MLOAD PUSH2 0x3325 SWAP3 SWAP2 SWAP1 PUSH2 0x5672 JUMP JUMPDEST SWAP1 DUP2 MSTORE PUSH1 0x20 ADD PUSH1 0x40 MLOAD DUP1 SWAP2 SUB SWAP1 KECCAK256 DUP1 SLOAD PUSH2 0x333E SWAP1 PUSH2 0x552B JUMP JUMPDEST DUP1 PUSH1 0x1F ADD PUSH1 0x20 DUP1 SWAP2 DIV MUL PUSH1 0x20 ADD PUSH1 0x40 MLOAD SWAP1 DUP2 ADD PUSH1 0x40 MSTORE DUP1 SWAP3 SWAP2 SWAP1 DUP2 DUP2 MSTORE PUSH1 0x20 ADD DUP3 DUP1 SLOAD PUSH2 0x336A SWAP1 PUSH2 0x552B JUMP JUMPDEST DUP1 ISZERO PUSH2 0x33B7 JUMPI DUP1 PUSH1 0x1F LT PUSH2 0x338C JUMPI PUSH2 0x100 DUP1 DUP4 SLOAD DIV MUL DUP4 MSTORE SWAP2 PUSH1 0x20 ADD SWAP2 PUSH2 0x33B7 JUMP JUMPDEST DUP3 ADD SWAP2 SWAP1 PUSH1 0x0 MSTORE PUSH1 0x20 PUSH1 0x0 KECCAK256 SWAP1 JUMPDEST DUP2 SLOAD DUP2 MSTORE SWAP1 PUSH1 0x1 ADD SWAP1 PUSH1 0x20 ADD DUP1 DUP4 GT PUSH2 0x339A JUMPI DUP3 SWAP1 SUB PUSH1 0x1F AND DUP3 ADD SWAP2 JUMPDEST POP POP SWAP3 MLOAD ISZERO ISZERO SWAP8 SWAP7 POP POP POP POP POP POP POP JUMP JUMPDEST PUSH2 0x33D2 DUP3 DUP3 PUSH2 0x3DE3 JUMP JUMPDEST ISZERO PUSH2 0x341F JUMPI PUSH1 0x40 MLOAD PUSH3 0x461BCD PUSH1 0xE5 SHL DUP2 MSTORE PUSH1 0x20 PUSH1 0x4 DUP3 ADD MSTORE PUSH1 0x1F PUSH1 0x24 DUP3 ADD MSTORE PUSH32 0x526F6C65733A206163636F756E7420616C72656164792068617320726F6C6500 PUSH1 0x44 DUP3 ADD MSTORE PUSH1 0x64 ADD PUSH2 0x1137 JUMP JUMPDEST PUSH1 0x1 PUSH1 0x1 PUSH1 0xA0 SHL SUB AND PUSH1 0x0 SWAP1 DUP2 MSTORE PUSH1 0x20 SWAP2 SWAP1 SWAP2 MSTORE PUSH1 0x40 SWAP1 KECCAK256 DUP1 SLOAD PUSH1 0xFF NOT AND PUSH1 0x1 OR SWAP1 SSTORE JUMP JUMPDEST PUSH1 0x0 PUSH1 0x1 PUSH1 0x1 PUSH1 0xE0 SHL SUB NOT DUP3 AND PUSH4 0x780E9D63 PUSH1 0xE0 SHL EQ DUP1 PUSH2 0x1037 JUMPI POP PUSH2 0x1037 DUP3 PUSH2 0x41E5 JUMP JUMPDEST PUSH1 0x0 SWAP1 DUP2 MSTORE PUSH1 0x2 PUSH1 0x20 MSTORE PUSH1 0x40 SWAP1 KECCAK256 SLOAD PUSH1 0x1 PUSH1 0x1 PUSH1 0xA0 SHL SUB AND ISZERO ISZERO SWAP1 JUMP JUMPDEST PUSH1 0x0 DUP2 DUP2 MSTORE PUSH1 0x4 PUSH1 0x20 MSTORE PUSH1 0x40 SWAP1 KECCAK256 DUP1 SLOAD PUSH1 0x1 PUSH1 0x1 PUSH1 0xA0 SHL SUB NOT AND PUSH1 0x1 PUSH1 0x1 PUSH1 0xA0 SHL SUB DUP5 AND SWAP1 DUP2 OR SWAP1 SWAP2 SSTORE DUP2 SWAP1 PUSH2 0x34BB DUP3 PUSH2 0x1C39 JUMP JUMPDEST PUSH1 0x1 PUSH1 0x1 PUSH1 0xA0 SHL SUB AND PUSH32 0x8C5BE1E5EBEC7D5BD14F71427D1E84F3DD0314C0F7B2291E5B200AC8C7C3B925 PUSH1 0x40 MLOAD PUSH1 0x40 MLOAD DUP1 SWAP2 SUB SWAP1 LOG4 POP POP JUMP JUMPDEST PUSH1 0x0 PUSH2 0x1641 DUP3 DUP5 PUSH2 0x58AB JUMP JUMPDEST PUSH1 0x60 PUSH2 0x1641 DUP4 PUSH1 0x40 MLOAD PUSH1 0x20 ADD PUSH2 0x3516 SWAP2 SWAP1 PUSH2 0x5723 JUMP JUMPDEST PUSH1 0x40 MLOAD PUSH1 0x20 DUP2 DUP4 SUB SUB DUP2 MSTORE SWAP1 PUSH1 0x40 MSTORE DUP1 MLOAD SWAP1 PUSH1 0x20 ADD KECCAK256 PUSH1 0x0 SHR DUP4 PUSH2 0x4235 JUMP JUMPDEST PUSH1 0x0 PUSH2 0x3540 DUP3 PUSH2 0x3469 JUMP JUMPDEST PUSH2 0x35A1 JUMPI PUSH1 0x40 MLOAD PUSH3 0x461BCD PUSH1 0xE5 SHL DUP2 MSTORE PUSH1 0x20 PUSH1 0x4 DUP3 ADD MSTORE PUSH1 0x2C PUSH1 0x24 DUP3 ADD MSTORE PUSH32 0x4552433732313A206F70657261746F7220717565727920666F72206E6F6E6578 PUSH1 0x44 DUP3 ADD MSTORE PUSH12 0x34B9BA32B73A103A37B5B2B7 PUSH1 0xA1 SHL PUSH1 0x64 DUP3 ADD MSTORE PUSH1 0x84 ADD PUSH2 0x1137 JUMP JUMPDEST PUSH1 0x0 PUSH2 0x35AC DUP4 PUSH2 0x1C39 JUMP JUMPDEST SWAP1 POP DUP1 PUSH1 0x1 PUSH1 0x1 PUSH1 0xA0 SHL SUB AND DUP5 PUSH1 0x1 PUSH1 0x1 PUSH1 0xA0 SHL SUB AND EQ DUP1 PUSH2 0x35E7 JUMPI POP DUP4 PUSH1 0x1 PUSH1 0x1 PUSH1 0xA0 SHL SUB AND PUSH2 0x35DC DUP5 PUSH2 0x10CF JUMP JUMPDEST PUSH1 0x1 PUSH1 0x1 PUSH1 0xA0 SHL SUB AND EQ JUMPDEST DUP1 PUSH2 0x1461 JUMPI POP PUSH1 0x1 PUSH1 0x1 PUSH1 0xA0 SHL SUB DUP1 DUP3 AND PUSH1 0x0 SWAP1 DUP2 MSTORE PUSH1 0x5 PUSH1 0x20 SWAP1 DUP2 MSTORE PUSH1 0x40 DUP1 DUP4 KECCAK256 SWAP4 DUP9 AND DUP4 MSTORE SWAP3 SWAP1 MSTORE KECCAK256 SLOAD PUSH1 0xFF AND PUSH2 0x1461 JUMP JUMPDEST PUSH2 0x3624 DUP2 PUSH2 0x42F4 JUMP JUMPDEST PUSH1 0x40 MLOAD PUSH1 0x20 ADD PUSH2 0x3636 SWAP2 DUP2 MSTORE PUSH1 0x20 ADD SWAP1 JUMP JUMPDEST PUSH1 0x40 DUP1 MLOAD PUSH1 0x1F NOT DUP2 DUP5 SUB ADD DUP2 MSTORE DUP3 DUP3 MSTORE DUP1 MLOAD PUSH1 0x20 SWAP2 DUP3 ADD KECCAK256 PUSH1 0x0 DUP6 DUP2 MSTORE PUSH1 0xE SWAP1 SWAP3 MSTORE SWAP2 DUP2 KECCAK256 SWAP2 SWAP1 SWAP2 SSTORE DUP3 SWAP2 PUSH32 0x185C30856DADB58BF097C1F665A52ADA7029752DBCAD008EA3FEFC73BEE8C9FE SWAP2 SWAP1 LOG2 POP JUMP JUMPDEST DUP3 PUSH1 0x1 PUSH1 0x1 PUSH1 0xA0 SHL SUB AND PUSH2 0x369B DUP3 PUSH2 0x1C39 JUMP JUMPDEST PUSH1 0x1 PUSH1 0x1 PUSH1 0xA0 SHL SUB AND EQ PUSH2 0x3703 JUMPI PUSH1 0x40 MLOAD PUSH3 0x461BCD PUSH1 0xE5 SHL DUP2 MSTORE PUSH1 0x20 PUSH1 0x4 DUP3 ADD MSTORE PUSH1 0x29 PUSH1 0x24 DUP3 ADD MSTORE PUSH32 0x4552433732313A207472616E73666572206F6620746F6B656E20746861742069 PUSH1 0x44 DUP3 ADD MSTORE PUSH9 0x39903737BA1037BBB7 PUSH1 0xB9 SHL PUSH1 0x64 DUP3 ADD MSTORE PUSH1 0x84 ADD PUSH2 0x1137 JUMP JUMPDEST PUSH1 0x1 PUSH1 0x1 PUSH1 0xA0 SHL SUB DUP3 AND PUSH2 0x3765 JUMPI PUSH1 0x40 MLOAD PUSH3 0x461BCD PUSH1 0xE5 SHL DUP2 MSTORE PUSH1 0x20 PUSH1 0x4 DUP3 ADD MSTORE PUSH1 0x24 DUP1 DUP3 ADD MSTORE PUSH32 0x4552433732313A207472616E7366657220746F20746865207A65726F20616464 PUSH1 0x44 DUP3 ADD MSTORE PUSH4 0x72657373 PUSH1 0xE0 SHL PUSH1 0x64 DUP3 ADD MSTORE PUSH1 0x84 ADD PUSH2 0x1137 JUMP JUMPDEST PUSH2 0x3770 DUP4 DUP4 DUP4 PUSH2 0x4320 JUMP JUMPDEST PUSH2 0x377B PUSH1 0x0 DUP3 PUSH2 0x3486 JUMP JUMPDEST PUSH1 0x1 PUSH1 0x1 PUSH1 0xA0 SHL SUB DUP4 AND PUSH1 0x0 SWAP1 DUP2 MSTORE PUSH1 0x3 PUSH1 0x20 MSTORE PUSH1 0x40 DUP2 KECCAK256 DUP1 SLOAD PUSH1 0x1 SWAP3 SWAP1 PUSH2 0x37A4 SWAP1 DUP5 SWAP1 PUSH2 0x58CA JUMP JUMPDEST SWAP1 SWAP2 SSTORE POP POP PUSH1 0x1 PUSH1 0x1 PUSH1 0xA0 SHL SUB DUP3 AND PUSH1 0x0 SWAP1 DUP2 MSTORE PUSH1 0x3 PUSH1 0x20 MSTORE PUSH1 0x40 DUP2 KECCAK256 DUP1 SLOAD PUSH1 0x1 SWAP3 SWAP1 PUSH2 0x37D2 SWAP1 DUP5 SWAP1 PUSH2 0x58E1 JUMP JUMPDEST SWAP1 SWAP2 SSTORE POP POP PUSH1 0x0 DUP2 DUP2 MSTORE PUSH1 0x2 PUSH1 0x20 MSTORE PUSH1 0x40 DUP1 DUP3 KECCAK256 DUP1 SLOAD PUSH1 0x1 PUSH1 0x1 PUSH1 0xA0 SHL SUB NOT AND PUSH1 0x1 PUSH1 0x1 PUSH1 0xA0 SHL SUB DUP7 DUP2 AND SWAP2 DUP3 OR SWAP1 SWAP3 SSTORE SWAP2 MLOAD DUP5 SWAP4 SWAP2 DUP8 AND SWAP2 PUSH32 0xDDF252AD1BE2C89B69C2B068FC378DAA952BA7F163C4A11628F55A4DF523B3EF SWAP2 LOG4 POP POP POP JUMP JUMPDEST PUSH1 0x0 JUMPDEST DUP5 DUP2 LT ISZERO PUSH2 0x160B JUMPI PUSH2 0x3884 DUP7 DUP7 DUP4 DUP2 DUP2 LT PUSH2 0x3853 JUMPI PUSH2 0x3853 PUSH2 0x5566 JUMP JUMPDEST SWAP1 POP PUSH1 0x20 MUL ADD CALLDATALOAD DUP6 DUP6 DUP5 DUP2 DUP2 LT PUSH2 0x386C JUMPI PUSH2 0x386C PUSH2 0x5566 JUMP JUMPDEST SWAP1 POP PUSH1 0x20 MUL DUP2 ADD SWAP1 PUSH2 0x387E SWAP2 SWAP1 PUSH2 0x557C JUMP JUMPDEST DUP6 PUSH2 0x3A33 JUMP JUMPDEST DUP1 PUSH2 0x388E DUP2 PUSH2 0x55D8 JUMP JUMPDEST SWAP2 POP POP PUSH2 0x3836 JUMP JUMPDEST PUSH1 0x0 PUSH2 0x1641 DUP4 DUP4 PUSH2 0x432B JUMP JUMPDEST PUSH2 0x17C2 PUSH1 0xC DUP3 PUSH2 0x33C8 JUMP JUMPDEST PUSH1 0x0 PUSH2 0x38B8 DUP3 PUSH2 0x1C39 JUMP JUMPDEST SWAP1 POP PUSH2 0x38C6 DUP2 PUSH1 0x0 DUP5 PUSH2 0x4320 JUMP JUMPDEST PUSH2 0x38D1 PUSH1 0x0 DUP4 PUSH2 0x3486 JUMP JUMPDEST PUSH1 0x1 PUSH1 0x1 PUSH1 0xA0 SHL SUB DUP2 AND PUSH1 0x0 SWAP1 DUP2 MSTORE PUSH1 0x3 PUSH1 0x20 MSTORE PUSH1 0x40 DUP2 KECCAK256 DUP1 SLOAD PUSH1 0x1 SWAP3 SWAP1 PUSH2 0x38FA SWAP1 DUP5 SWAP1 PUSH2 0x58CA JUMP JUMPDEST SWAP1 SWAP2 SSTORE POP POP PUSH1 0x0 DUP3 DUP2 MSTORE PUSH1 0x2 PUSH1 0x20 MSTORE PUSH1 0x40 DUP1 DUP3 KECCAK256 DUP1 SLOAD PUSH1 0x1 PUSH1 0x1 PUSH1 0xA0 SHL SUB NOT AND SWAP1 SSTORE MLOAD DUP4 SWAP2 SWAP1 PUSH1 0x1 PUSH1 0x1 PUSH1 0xA0 SHL SUB DUP5 AND SWAP1 PUSH32 0xDDF252AD1BE2C89B69C2B068FC378DAA952BA7F163C4A11628F55A4DF523B3EF SWAP1 DUP4 SWAP1 LOG4 POP POP JUMP JUMPDEST PUSH1 0x0 DUP6 DUP6 PUSH1 0x40 MLOAD PUSH1 0x20 ADD PUSH2 0x3969 SWAP3 SWAP2 SWAP1 PUSH2 0x5672 JUMP JUMPDEST PUSH1 0x40 DUP1 MLOAD PUSH1 0x1F NOT DUP2 DUP5 SUB ADD DUP2 MSTORE DUP3 DUP3 MSTORE DUP1 MLOAD PUSH1 0x20 SWAP2 DUP3 ADD KECCAK256 PUSH1 0x1F DUP10 ADD DUP3 SWAP1 DIV DUP3 MUL DUP5 ADD DUP3 ADD SWAP1 SWAP3 MSTORE DUP8 DUP4 MSTORE SWAP1 SWAP3 POP PUSH2 0x39BD SWAP2 DUP4 SWAP2 DUP10 SWAP1 DUP10 SWAP1 DUP2 SWAP1 DUP5 ADD DUP4 DUP3 DUP1 DUP3 DUP5 CALLDATACOPY PUSH1 0x0 SWAP3 ADD SWAP2 SWAP1 SWAP2 MSTORE POP PUSH2 0x3C2D SWAP3 POP POP POP JUMP JUMPDEST PUSH2 0x160B DUP2 DUP8 DUP8 DUP1 DUP1 PUSH1 0x1F ADD PUSH1 0x20 DUP1 SWAP2 DIV MUL PUSH1 0x20 ADD PUSH1 0x40 MLOAD SWAP1 DUP2 ADD PUSH1 0x40 MSTORE DUP1 SWAP4 SWAP3 SWAP2 SWAP1 DUP2 DUP2 MSTORE PUSH1 0x20 ADD DUP4 DUP4 DUP1 DUP3 DUP5 CALLDATACOPY PUSH1 0x0 SWAP3 ADD SWAP2 SWAP1 SWAP2 MSTORE POP POP PUSH1 0x40 DUP1 MLOAD PUSH1 0x20 PUSH1 0x1F DUP12 ADD DUP2 SWAP1 DIV DUP2 MUL DUP3 ADD DUP2 ADD SWAP1 SWAP3 MSTORE DUP10 DUP2 MSTORE SWAP3 POP DUP10 SWAP2 POP DUP9 SWAP1 DUP2 SWAP1 DUP5 ADD DUP4 DUP3 DUP1 DUP3 DUP5 CALLDATACOPY PUSH1 0x0 SWAP3 ADD SWAP2 SWAP1 SWAP2 MSTORE POP DUP9 SWAP3 POP PUSH2 0x4355 SWAP2 POP POP JUMP JUMPDEST PUSH2 0x3A3C DUP5 PUSH2 0x4490 JUMP JUMPDEST PUSH2 0x3A88 JUMPI PUSH1 0x40 MLOAD PUSH3 0x461BCD PUSH1 0xE5 SHL DUP2 MSTORE PUSH1 0x20 PUSH1 0x4 DUP3 ADD MSTORE PUSH1 0x1C PUSH1 0x24 DUP3 ADD MSTORE PUSH32 0x5265636F726453746F726167653A204B45595F4E4F545F464F554E4400000000 PUSH1 0x44 DUP3 ADD MSTORE PUSH1 0x64 ADD PUSH2 0x1137 JUMP JUMPDEST PUSH2 0x184D DUP5 PUSH2 0x3A95 DUP7 PUSH2 0x2C39 JUMP JUMPDEST DUP6 DUP6 DUP1 DUP1 PUSH1 0x1F ADD PUSH1 0x20 DUP1 SWAP2 DIV MUL PUSH1 0x20 ADD PUSH1 0x40 MLOAD SWAP1 DUP2 ADD PUSH1 0x40 MSTORE DUP1 SWAP4 SWAP3 SWAP2 SWAP1 DUP2 DUP2 MSTORE PUSH1 0x20 ADD DUP4 DUP4 DUP1 DUP3 DUP5 CALLDATACOPY PUSH1 0x0 SWAP3 ADD SWAP2 SWAP1 SWAP2 MSTORE POP DUP8 SWAP3 POP PUSH2 0x4355 SWAP2 POP POP JUMP JUMPDEST PUSH1 0x60 PUSH1 0x0 DUP3 SWAP1 POP PUSH1 0x0 DUP2 MLOAD PUSH1 0x1 PUSH1 0x1 PUSH1 0x40 SHL SUB DUP2 GT ISZERO PUSH2 0x3AF5 JUMPI PUSH2 0x3AF5 PUSH2 0x4F9B JUMP JUMPDEST PUSH1 0x40 MLOAD SWAP1 DUP1 DUP3 MSTORE DUP1 PUSH1 0x1F ADD PUSH1 0x1F NOT AND PUSH1 0x20 ADD DUP3 ADD PUSH1 0x40 MSTORE DUP1 ISZERO PUSH2 0x3B1F JUMPI PUSH1 0x20 DUP3 ADD DUP2 DUP1 CALLDATASIZE DUP4 CALLDATACOPY ADD SWAP1 POP JUMPDEST POP SWAP1 POP PUSH1 0x0 JUMPDEST DUP3 MLOAD DUP2 LT ISZERO PUSH2 0x1416 JUMPI PUSH1 0x41 DUP4 DUP3 DUP2 MLOAD DUP2 LT PUSH2 0x3B42 JUMPI PUSH2 0x3B42 PUSH2 0x5566 JUMP JUMPDEST ADD PUSH1 0x20 ADD MLOAD PUSH1 0xF8 SHR LT DUP1 ISZERO SWAP1 PUSH2 0x3B72 JUMPI POP PUSH1 0x5A DUP4 DUP3 DUP2 MLOAD DUP2 LT PUSH2 0x3B67 JUMPI PUSH2 0x3B67 PUSH2 0x5566 JUMP JUMPDEST ADD PUSH1 0x20 ADD MLOAD PUSH1 0xF8 SHR GT ISZERO JUMPDEST ISZERO PUSH2 0x3BD4 JUMPI DUP3 DUP2 DUP2 MLOAD DUP2 LT PUSH2 0x3B89 JUMPI PUSH2 0x3B89 PUSH2 0x5566 JUMP JUMPDEST PUSH1 0x20 ADD ADD MLOAD PUSH1 0xF8 SHR PUSH1 0xF8 SHL PUSH1 0xF8 SHR PUSH1 0x20 PUSH2 0x3BA3 SWAP2 SWAP1 PUSH2 0x58F9 JUMP JUMPDEST PUSH1 0xF8 SHL DUP3 DUP3 DUP2 MLOAD DUP2 LT PUSH2 0x3BB8 JUMPI PUSH2 0x3BB8 PUSH2 0x5566 JUMP JUMPDEST PUSH1 0x20 ADD ADD SWAP1 PUSH1 0x1 PUSH1 0x1 PUSH1 0xF8 SHL SUB NOT AND SWAP1 DUP2 PUSH1 0x0 BYTE SWAP1 MSTORE8 POP PUSH2 0x3C1B JUMP JUMPDEST DUP3 DUP2 DUP2 MLOAD DUP2 LT PUSH2 0x3BE6 JUMPI PUSH2 0x3BE6 PUSH2 0x5566 JUMP JUMPDEST PUSH1 0x20 ADD ADD MLOAD PUSH1 0xF8 SHR PUSH1 0xF8 SHL DUP3 DUP3 DUP2 MLOAD DUP2 LT PUSH2 0x3C03 JUMPI PUSH2 0x3C03 PUSH2 0x5566 JUMP JUMPDEST PUSH1 0x20 ADD ADD SWAP1 PUSH1 0x1 PUSH1 0x1 PUSH1 0xF8 SHL SUB NOT AND SWAP1 DUP2 PUSH1 0x0 BYTE SWAP1 MSTORE8 POP JUMPDEST DUP1 PUSH2 0x3C25 DUP2 PUSH2 0x55D8 JUMP JUMPDEST SWAP2 POP POP PUSH2 0x3B25 JUMP JUMPDEST PUSH2 0x3C36 DUP3 PUSH2 0x4490 JUMP JUMPDEST PUSH2 0x16FA JUMPI PUSH1 0x0 DUP3 DUP2 MSTORE PUSH1 0xA PUSH1 0x20 SWAP1 DUP2 MSTORE PUSH1 0x40 SWAP1 SWAP2 KECCAK256 DUP3 MLOAD PUSH2 0x126D SWAP3 DUP5 ADD SWAP1 PUSH2 0x4C04 JUMP JUMPDEST DUP1 MLOAD PUSH1 0x0 SWAP1 PUSH1 0x1 DUP4 DUP2 ADD SWAP2 DUP5 ADD ADD DUP3 DUP1 JUMPDEST DUP3 DUP5 LT ISZERO PUSH2 0x3CAF JUMPI DUP4 MLOAD PUSH1 0xFF AND PUSH1 0x2E DUP2 EQ ISZERO PUSH2 0x3C8E JUMPI PUSH2 0x3C8B PUSH1 0x1 DUP5 PUSH2 0x58E1 JUMP JUMPDEST SWAP3 POP JUMPDEST PUSH2 0x3C99 PUSH1 0x1 DUP7 PUSH2 0x58E1 JUMP JUMPDEST SWAP5 POP POP DUP1 DUP1 PUSH2 0x3CA7 SWAP1 PUSH2 0x55D8 JUMP JUMPDEST SWAP2 POP POP PUSH2 0x3C6A JUMP JUMPDEST POP SWAP5 SWAP4 POP POP POP POP JUMP JUMPDEST PUSH2 0x16FA DUP3 DUP3 PUSH1 0x40 MLOAD DUP1 PUSH1 0x20 ADD PUSH1 0x40 MSTORE DUP1 PUSH1 0x0 DUP2 MSTORE POP PUSH2 0x44B6 JUMP JUMPDEST PUSH2 0x3CDB DUP3 PUSH2 0x3469 JUMP JUMPDEST PUSH2 0x3D3C JUMPI PUSH1 0x40 MLOAD PUSH3 0x461BCD PUSH1 0xE5 SHL DUP2 MSTORE PUSH1 0x20 PUSH1 0x4 DUP3 ADD MSTORE PUSH1 0x2C PUSH1 0x24 DUP3 ADD MSTORE PUSH32 0x4552433732314D657461646174613A2055524920736574206F66206E6F6E6578 PUSH1 0x44 DUP3 ADD MSTORE PUSH12 0x34B9BA32B73A103A37B5B2B7 PUSH1 0xA1 SHL PUSH1 0x64 DUP3 ADD MSTORE PUSH1 0x84 ADD PUSH2 0x1137 JUMP JUMPDEST PUSH1 0x0 DUP3 DUP2 MSTORE PUSH1 0x14 PUSH1 0x20 SWAP1 DUP2 MSTORE PUSH1 0x40 SWAP1 SWAP2 KECCAK256 DUP3 MLOAD PUSH2 0x126D SWAP3 DUP5 ADD SWAP1 PUSH2 0x4C04 JUMP JUMPDEST PUSH1 0x60 DUP1 PUSH2 0x3D67 DUP5 PUSH2 0x2C39 JUMP JUMPDEST SWAP2 POP PUSH2 0x3D73 DUP5 DUP5 PUSH2 0x4235 JUMP JUMPDEST SWAP1 POP SWAP3 POP SWAP3 SWAP1 POP JUMP JUMPDEST PUSH2 0x17C2 PUSH1 0xC DUP3 PUSH2 0x44E9 JUMP JUMPDEST PUSH1 0xB DUP1 SLOAD PUSH1 0x1 PUSH1 0x1 PUSH1 0xA0 SHL SUB DUP4 DUP2 AND PUSH1 0x1 PUSH1 0x1 PUSH1 0xA0 SHL SUB NOT DUP4 AND DUP2 OR SWAP1 SWAP4 SSTORE PUSH1 0x40 MLOAD SWAP2 AND SWAP2 SWAP1 DUP3 SWAP1 PUSH32 0x8BE0079C531659141344CD1FD0A4F28419497F9722A3DAAFE3B4186F6B6457E0 SWAP1 PUSH1 0x0 SWAP1 LOG3 POP POP JUMP JUMPDEST PUSH1 0x0 PUSH2 0x1037 DUP3 SLOAD SWAP1 JUMP JUMPDEST PUSH1 0x0 PUSH1 0x1 PUSH1 0x1 PUSH1 0xA0 SHL SUB DUP3 AND PUSH2 0x3E46 JUMPI PUSH1 0x40 MLOAD PUSH3 0x461BCD PUSH1 0xE5 SHL DUP2 MSTORE PUSH1 0x20 PUSH1 0x4 DUP3 ADD MSTORE PUSH1 0x22 PUSH1 0x24 DUP3 ADD MSTORE PUSH32 0x526F6C65733A206163636F756E7420697320746865207A65726F206164647265 PUSH1 0x44 DUP3 ADD MSTORE PUSH2 0x7373 PUSH1 0xF0 SHL PUSH1 0x64 DUP3 ADD MSTORE PUSH1 0x84 ADD PUSH2 0x1137 JUMP JUMPDEST POP PUSH1 0x1 PUSH1 0x1 PUSH1 0xA0 SHL SUB AND PUSH1 0x0 SWAP1 DUP2 MSTORE PUSH1 0x20 SWAP2 SWAP1 SWAP2 MSTORE PUSH1 0x40 SWAP1 KECCAK256 SLOAD PUSH1 0xFF AND SWAP1 JUMP JUMPDEST PUSH1 0x1 PUSH1 0x1 PUSH1 0xA0 SHL SUB DUP5 AND PUSH2 0x3E79 JUMPI PUSH1 0x0 DUP1 REVERT JUMPDEST DUP2 MLOAD PUSH2 0x3E84 JUMPI PUSH1 0x0 DUP1 REVERT JUMPDEST PUSH2 0x3E8D DUP3 PUSH2 0x3C59 JUMP JUMPDEST ISZERO PUSH2 0x3E97 JUMPI PUSH1 0x0 DUP1 REVERT JUMPDEST PUSH2 0x3EA0 DUP4 PUSH2 0x3469 JUMP JUMPDEST PUSH2 0x3EA9 JUMPI PUSH1 0x0 DUP1 REVERT JUMPDEST PUSH1 0x0 PUSH2 0x3EB4 DUP4 PUSH2 0x3AD3 JUMP JUMPDEST SWAP1 POP PUSH1 0x0 DUP2 PUSH1 0x14 PUSH1 0x0 DUP8 DUP2 MSTORE PUSH1 0x20 ADD SWAP1 DUP2 MSTORE PUSH1 0x20 ADD PUSH1 0x0 KECCAK256 PUSH1 0x40 MLOAD PUSH1 0x20 ADD PUSH2 0x3EDD SWAP3 SWAP2 SWAP1 PUSH2 0x591E JUMP JUMPDEST PUSH1 0x40 MLOAD PUSH1 0x20 DUP2 DUP4 SUB SUB DUP2 MSTORE SWAP1 PUSH1 0x40 MSTORE SWAP1 POP PUSH1 0x0 PUSH2 0x3EF9 DUP3 PUSH2 0x1B69 JUMP JUMPDEST SWAP1 POP PUSH1 0x0 PUSH2 0x3FA1 PUSH1 0x14 PUSH1 0x0 DUP10 DUP2 MSTORE PUSH1 0x20 ADD SWAP1 DUP2 MSTORE PUSH1 0x20 ADD PUSH1 0x0 KECCAK256 DUP1 SLOAD PUSH2 0x3F1E SWAP1 PUSH2 0x552B JUMP JUMPDEST DUP1 PUSH1 0x1F ADD PUSH1 0x20 DUP1 SWAP2 DIV MUL PUSH1 0x20 ADD PUSH1 0x40 MLOAD SWAP1 DUP2 ADD PUSH1 0x40 MSTORE DUP1 SWAP3 SWAP2 SWAP1 DUP2 DUP2 MSTORE PUSH1 0x20 ADD DUP3 DUP1 SLOAD PUSH2 0x3F4A SWAP1 PUSH2 0x552B JUMP JUMPDEST DUP1 ISZERO PUSH2 0x3F97 JUMPI DUP1 PUSH1 0x1F LT PUSH2 0x3F6C JUMPI PUSH2 0x100 DUP1 DUP4 SLOAD DIV MUL DUP4 MSTORE SWAP2 PUSH1 0x20 ADD SWAP2 PUSH2 0x3F97 JUMP JUMPDEST DUP3 ADD SWAP2 SWAP1 PUSH1 0x0 MSTORE PUSH1 0x20 PUSH1 0x0 KECCAK256 SWAP1 JUMPDEST DUP2 SLOAD DUP2 MSTORE SWAP1 PUSH1 0x1 ADD SWAP1 PUSH1 0x20 ADD DUP1 DUP4 GT PUSH2 0x3F7A JUMPI DUP3 SWAP1 SUB PUSH1 0x1F AND DUP3 ADD SWAP2 JUMPDEST POP POP POP POP POP PUSH2 0x3C59 JUMP JUMPDEST SWAP1 POP DUP1 PUSH1 0x1 EQ ISZERO PUSH2 0x3FC6 JUMPI PUSH1 0x0 DUP8 DUP2 MSTORE PUSH1 0x13 PUSH1 0x20 MSTORE PUSH1 0x40 SWAP1 KECCAK256 PUSH2 0x3FC4 SWAP1 DUP4 PUSH2 0x456B JUMP JUMPDEST POP JUMPDEST DUP5 MLOAD ISZERO PUSH2 0x3FDD JUMPI PUSH2 0x3FD8 DUP9 DUP4 DUP8 PUSH2 0x44B6 JUMP JUMPDEST PUSH2 0x3FE7 JUMP JUMPDEST PUSH2 0x3FE7 DUP9 DUP4 PUSH2 0x3CB8 JUMP JUMPDEST PUSH2 0x3FF1 DUP3 DUP5 PUSH2 0x3CD2 JUMP JUMPDEST DUP2 PUSH32 0xC5BEEF08F693B11C316C0C8394A377A0033C9CF701B8CD8AFD79CECEF60C3952 DUP5 PUSH1 0x40 MLOAD PUSH2 0x4021 SWAP2 SWAP1 PUSH2 0x4D4F JUMP JUMPDEST PUSH1 0x40 MLOAD DUP1 SWAP2 SUB SWAP1 LOG2 POP POP POP POP POP POP POP POP JUMP JUMPDEST PUSH2 0x403E DUP5 DUP5 DUP5 PUSH2 0x3688 JUMP JUMPDEST PUSH2 0x404A DUP5 DUP5 DUP5 DUP5 PUSH2 0x4577 JUMP JUMPDEST PUSH2 0x184D JUMPI PUSH1 0x40 MLOAD PUSH3 0x461BCD PUSH1 0xE5 SHL DUP2 MSTORE PUSH1 0x4 ADD PUSH2 0x1137 SWAP1 PUSH2 0x59DE JUMP JUMPDEST PUSH2 0x406F DUP3 PUSH2 0x3469 JUMP JUMPDEST PUSH2 0x4078 JUMPI PUSH1 0x0 DUP1 REVERT JUMPDEST PUSH1 0x0 SWAP2 DUP3 MSTORE PUSH1 0x16 PUSH1 0x20 MSTORE PUSH1 0x40 SWAP1 SWAP2 KECCAK256 DUP1 SLOAD PUSH1 0x1 PUSH1 0x1 PUSH1 0xA0 SHL SUB NOT AND PUSH1 0x1 PUSH1 0x1 PUSH1 0xA0 SHL SUB SWAP1 SWAP3 AND SWAP2 SWAP1 SWAP2 OR SWAP1 SSTORE JUMP JUMPDEST PUSH1 0x0 PUSH2 0x40B1 DUP3 PUSH2 0x3AD3 JUMP JUMPDEST SWAP1 POP PUSH1 0x0 DUP2 PUSH1 0x14 PUSH1 0x0 DUP7 DUP2 MSTORE PUSH1 0x20 ADD SWAP1 DUP2 MSTORE PUSH1 0x20 ADD PUSH1 0x0 KECCAK256 PUSH1 0x40 MLOAD PUSH1 0x20 ADD PUSH2 0x40DA SWAP3 SWAP2 SWAP1 PUSH2 0x591E JUMP JUMPDEST PUSH1 0x40 MLOAD PUSH1 0x20 DUP2 DUP4 SUB SUB DUP2 MSTORE SWAP1 PUSH1 0x40 MSTORE SWAP1 POP PUSH1 0x0 PUSH2 0x40F6 DUP3 PUSH2 0x1B69 JUMP JUMPDEST PUSH1 0x0 DUP7 DUP2 MSTORE PUSH1 0x13 PUSH1 0x20 MSTORE PUSH1 0x40 SWAP1 KECCAK256 SWAP1 SWAP2 POP PUSH2 0x4111 SWAP1 DUP3 PUSH2 0x4675 JUMP JUMPDEST POP PUSH1 0x0 DUP2 DUP2 MSTORE PUSH1 0x14 PUSH1 0x20 MSTORE PUSH1 0x40 SWAP1 KECCAK256 DUP1 SLOAD PUSH2 0x412B SWAP1 PUSH2 0x552B JUMP JUMPDEST ISZERO SWAP1 POP PUSH2 0x4149 JUMPI PUSH1 0x0 DUP2 DUP2 MSTORE PUSH1 0x14 PUSH1 0x20 MSTORE PUSH1 0x40 DUP2 KECCAK256 PUSH2 0x4149 SWAP2 PUSH2 0x4BCA JUMP JUMPDEST PUSH2 0x1A3B DUP2 PUSH2 0x38AD JUMP JUMPDEST PUSH1 0x60 PUSH1 0x19 DUP1 SLOAD PUSH2 0x104C SWAP1 PUSH2 0x552B JUMP JUMPDEST PUSH1 0x0 JUMPDEST DUP5 DUP2 LT ISZERO PUSH2 0x160B JUMPI PUSH2 0x41BD DUP7 DUP7 DUP4 DUP2 DUP2 LT PUSH2 0x4181 JUMPI PUSH2 0x4181 PUSH2 0x5566 JUMP JUMPDEST SWAP1 POP PUSH1 0x20 MUL DUP2 ADD SWAP1 PUSH2 0x4193 SWAP2 SWAP1 PUSH2 0x557C JUMP JUMPDEST DUP7 DUP7 DUP6 DUP2 DUP2 LT PUSH2 0x41A5 JUMPI PUSH2 0x41A5 PUSH2 0x5566 JUMP JUMPDEST SWAP1 POP PUSH1 0x20 MUL DUP2 ADD SWAP1 PUSH2 0x41B7 SWAP2 SWAP1 PUSH2 0x557C JUMP JUMPDEST DUP7 PUSH2 0x3954 JUMP JUMPDEST DUP1 PUSH2 0x41C7 DUP2 PUSH2 0x55D8 JUMP JUMPDEST SWAP2 POP POP PUSH2 0x4164 JUMP JUMPDEST PUSH2 0x41D8 DUP2 PUSH2 0x361B JUMP JUMPDEST PUSH2 0x1A3B DUP6 DUP6 DUP6 DUP6 DUP6 PUSH2 0x4161 JUMP JUMPDEST PUSH1 0x0 PUSH1 0x1 PUSH1 0x1 PUSH1 0xE0 SHL SUB NOT DUP3 AND PUSH4 0x80AC58CD PUSH1 0xE0 SHL EQ DUP1 PUSH2 0x4216 JUMPI POP PUSH1 0x1 PUSH1 0x1 PUSH1 0xE0 SHL SUB NOT DUP3 AND PUSH4 0x5B5E139F PUSH1 0xE0 SHL EQ JUMPDEST DUP1 PUSH2 0x1037 JUMPI POP PUSH4 0x1FFC9A7 PUSH1 0xE0 SHL PUSH1 0x1 PUSH1 0x1 PUSH1 0xE0 SHL SUB NOT DUP4 AND EQ PUSH2 0x1037 JUMP JUMPDEST PUSH1 0x60 PUSH1 0xD PUSH1 0x0 PUSH2 0x4244 DUP5 PUSH2 0x42F4 JUMP JUMPDEST DUP2 MSTORE PUSH1 0x20 ADD SWAP1 DUP2 MSTORE PUSH1 0x20 ADD PUSH1 0x0 KECCAK256 PUSH1 0x0 DUP5 DUP2 MSTORE PUSH1 0x20 ADD SWAP1 DUP2 MSTORE PUSH1 0x20 ADD PUSH1 0x0 KECCAK256 DUP1 SLOAD PUSH2 0x426E SWAP1 PUSH2 0x552B JUMP JUMPDEST DUP1 PUSH1 0x1F ADD PUSH1 0x20 DUP1 SWAP2 DIV MUL PUSH1 0x20 ADD PUSH1 0x40 MLOAD SWAP1 DUP2 ADD PUSH1 0x40 MSTORE DUP1 SWAP3 SWAP2 SWAP1 DUP2 DUP2 MSTORE PUSH1 0x20 ADD DUP3 DUP1 SLOAD PUSH2 0x429A SWAP1 PUSH2 0x552B JUMP JUMPDEST DUP1 ISZERO PUSH2 0x42E7 JUMPI DUP1 PUSH1 0x1F LT PUSH2 0x42BC JUMPI PUSH2 0x100 DUP1 DUP4 SLOAD DIV MUL DUP4 MSTORE SWAP2 PUSH1 0x20 ADD SWAP2 PUSH2 0x42E7 JUMP JUMPDEST DUP3 ADD SWAP2 SWAP1 PUSH1 0x0 MSTORE PUSH1 0x20 PUSH1 0x0 KECCAK256 SWAP1 JUMPDEST DUP2 SLOAD DUP2 MSTORE SWAP1 PUSH1 0x1 ADD SWAP1 PUSH1 0x20 ADD DUP1 DUP4 GT PUSH2 0x42CA JUMPI DUP3 SWAP1 SUB PUSH1 0x1F AND DUP3 ADD SWAP2 JUMPDEST POP POP POP POP POP SWAP1 POP SWAP3 SWAP2 POP POP JUMP JUMPDEST PUSH1 0x0 DUP2 DUP2 MSTORE PUSH1 0xE PUSH1 0x20 MSTORE PUSH1 0x40 DUP2 KECCAK256 SLOAD ISZERO PUSH2 0x431C JUMPI PUSH1 0x0 DUP3 DUP2 MSTORE PUSH1 0xE PUSH1 0x20 MSTORE PUSH1 0x40 SWAP1 KECCAK256 SLOAD PUSH2 0x1037 JUMP JUMPDEST POP SWAP1 JUMP JUMPDEST PUSH2 0x126D DUP4 DUP4 DUP4 PUSH2 0x4681 JUMP JUMPDEST PUSH1 0x0 DUP3 PUSH1 0x0 ADD DUP3 DUP2 SLOAD DUP2 LT PUSH2 0x4342 JUMPI PUSH2 0x4342 PUSH2 0x5566 JUMP JUMPDEST SWAP1 PUSH1 0x0 MSTORE PUSH1 0x20 PUSH1 0x0 KECCAK256 ADD SLOAD SWAP1 POP SWAP3 SWAP2 POP POP JUMP JUMPDEST PUSH1 0xD PUSH1 0x0 PUSH2 0x4362 DUP4 PUSH2 0x42F4 JUMP JUMPDEST DUP2 MSTORE PUSH1 0x20 ADD SWAP1 DUP2 MSTORE PUSH1 0x20 ADD PUSH1 0x0 KECCAK256 PUSH1 0x0 DUP6 DUP2 MSTORE PUSH1 0x20 ADD SWAP1 DUP2 MSTORE PUSH1 0x20 ADD PUSH1 0x0 KECCAK256 DUP1 SLOAD PUSH2 0x438C SWAP1 PUSH2 0x552B JUMP JUMPDEST ISZERO ISZERO SWAP1 POP PUSH2 0x43E3 JUMPI DUP3 PUSH1 0x40 MLOAD PUSH2 0x43A2 SWAP2 SWAP1 PUSH2 0x5723 JUMP JUMPDEST PUSH1 0x40 MLOAD DUP1 SWAP2 SUB SWAP1 KECCAK256 DUP2 PUSH32 0x7AE4F661958FBECC2F77BE6B0EB280D2A6F604B29E1E7221C82B9DA0C4AF7F86 DUP6 PUSH1 0x40 MLOAD PUSH2 0x43DA SWAP2 SWAP1 PUSH2 0x4D4F JUMP JUMPDEST PUSH1 0x40 MLOAD DUP1 SWAP2 SUB SWAP1 LOG3 JUMPDEST DUP2 PUSH1 0xD PUSH1 0x0 PUSH2 0x43F1 DUP5 PUSH2 0x42F4 JUMP JUMPDEST DUP2 MSTORE PUSH1 0x20 ADD SWAP1 DUP2 MSTORE PUSH1 0x20 ADD PUSH1 0x0 KECCAK256 PUSH1 0x0 DUP7 DUP2 MSTORE PUSH1 0x20 ADD SWAP1 DUP2 MSTORE PUSH1 0x20 ADD PUSH1 0x0 KECCAK256 SWAP1 DUP1 MLOAD SWAP1 PUSH1 0x20 ADD SWAP1 PUSH2 0x4423 SWAP3 SWAP2 SWAP1 PUSH2 0x4C04 JUMP JUMPDEST POP DUP2 PUSH1 0x40 MLOAD PUSH2 0x4432 SWAP2 SWAP1 PUSH2 0x5723 JUMP JUMPDEST PUSH1 0x40 MLOAD DUP1 SWAP2 SUB SWAP1 KECCAK256 DUP4 PUSH1 0x40 MLOAD PUSH2 0x4448 SWAP2 SWAP1 PUSH2 0x5723 JUMP JUMPDEST PUSH1 0x40 MLOAD DUP1 SWAP2 SUB SWAP1 KECCAK256 DUP3 PUSH32 0x851FFE8E74D5015261DBA0A1F9E1B0E5D42C5AF5D2AD1908FEE897C7D80A0D92 DUP7 DUP7 PUSH1 0x40 MLOAD PUSH2 0x4482 SWAP3 SWAP2 SWAP1 PUSH2 0x5251 JUMP JUMPDEST PUSH1 0x40 MLOAD DUP1 SWAP2 SUB SWAP1 LOG4 POP POP POP POP JUMP JUMPDEST PUSH1 0x0 DUP2 DUP2 MSTORE PUSH1 0xA PUSH1 0x20 MSTORE PUSH1 0x40 DUP2 KECCAK256 DUP1 SLOAD DUP3 SWAP2 SWAP1 PUSH2 0x44AC SWAP1 PUSH2 0x552B JUMP JUMPDEST SWAP1 POP GT SWAP1 POP SWAP2 SWAP1 POP JUMP JUMPDEST PUSH2 0x44C0 DUP4 DUP4 PUSH2 0x4739 JUMP JUMPDEST PUSH2 0x44CD PUSH1 0x0 DUP5 DUP5 DUP5 PUSH2 0x4577 JUMP JUMPDEST PUSH2 0x126D JUMPI PUSH1 0x40 MLOAD PUSH3 0x461BCD PUSH1 0xE5 SHL DUP2 MSTORE PUSH1 0x4 ADD PUSH2 0x1137 SWAP1 PUSH2 0x59DE JUMP JUMPDEST PUSH2 0x44F3 DUP3 DUP3 PUSH2 0x3DE3 JUMP JUMPDEST PUSH2 0x4549 JUMPI PUSH1 0x40 MLOAD PUSH3 0x461BCD PUSH1 0xE5 SHL DUP2 MSTORE PUSH1 0x20 PUSH1 0x4 DUP3 ADD MSTORE PUSH1 0x21 PUSH1 0x24 DUP3 ADD MSTORE PUSH32 0x526F6C65733A206163636F756E7420646F6573206E6F74206861766520726F6C PUSH1 0x44 DUP3 ADD MSTORE PUSH1 0x65 PUSH1 0xF8 SHL PUSH1 0x64 DUP3 ADD MSTORE PUSH1 0x84 ADD PUSH2 0x1137 JUMP JUMPDEST PUSH1 0x1 PUSH1 0x1 PUSH1 0xA0 SHL SUB AND PUSH1 0x0 SWAP1 DUP2 MSTORE PUSH1 0x20 SWAP2 SWAP1 SWAP2 MSTORE PUSH1 0x40 SWAP1 KECCAK256 DUP1 SLOAD PUSH1 0xFF NOT AND SWAP1 SSTORE JUMP JUMPDEST PUSH1 0x0 PUSH2 0x1641 DUP4 DUP4 PUSH2 0x4878 JUMP JUMPDEST PUSH1 0x0 PUSH1 0x1 PUSH1 0x1 PUSH1 0xA0 SHL SUB DUP5 AND EXTCODESIZE ISZERO PUSH2 0x466A JUMPI PUSH1 0x40 MLOAD PUSH4 0xA85BD01 PUSH1 0xE1 SHL DUP2 MSTORE PUSH1 0x1 PUSH1 0x1 PUSH1 0xA0 SHL SUB DUP6 AND SWAP1 PUSH4 0x150B7A02 SWAP1 PUSH2 0x45BB SWAP1 CALLER SWAP1 DUP10 SWAP1 DUP9 SWAP1 DUP9 SWAP1 PUSH1 0x4 ADD PUSH2 0x5A30 JUMP JUMPDEST PUSH1 0x20 PUSH1 0x40 MLOAD DUP1 DUP4 SUB DUP2 PUSH1 0x0 DUP8 GAS CALL SWAP3 POP POP POP DUP1 ISZERO PUSH2 0x45F6 JUMPI POP PUSH1 0x40 DUP1 MLOAD PUSH1 0x1F RETURNDATASIZE SWAP1 DUP2 ADD PUSH1 0x1F NOT AND DUP3 ADD SWAP1 SWAP3 MSTORE PUSH2 0x45F3 SWAP2 DUP2 ADD SWAP1 PUSH2 0x5A63 JUMP JUMPDEST PUSH1 0x1 JUMPDEST PUSH2 0x4650 JUMPI RETURNDATASIZE DUP1 DUP1 ISZERO PUSH2 0x4624 JUMPI PUSH1 0x40 MLOAD SWAP2 POP PUSH1 0x1F NOT PUSH1 0x3F RETURNDATASIZE ADD AND DUP3 ADD PUSH1 0x40 MSTORE RETURNDATASIZE DUP3 MSTORE RETURNDATASIZE PUSH1 0x0 PUSH1 0x20 DUP5 ADD RETURNDATACOPY PUSH2 0x4629 JUMP JUMPDEST PUSH1 0x60 SWAP2 POP JUMPDEST POP DUP1 MLOAD PUSH2 0x4648 JUMPI PUSH1 0x40 MLOAD PUSH3 0x461BCD PUSH1 0xE5 SHL DUP2 MSTORE PUSH1 0x4 ADD PUSH2 0x1137 SWAP1 PUSH2 0x59DE JUMP JUMPDEST DUP1 MLOAD DUP2 PUSH1 0x20 ADD REVERT JUMPDEST PUSH1 0x1 PUSH1 0x1 PUSH1 0xE0 SHL SUB NOT AND PUSH4 0xA85BD01 PUSH1 0xE1 SHL EQ SWAP1 POP PUSH2 0x1461 JUMP JUMPDEST POP PUSH1 0x1 SWAP5 SWAP4 POP POP POP POP JUMP JUMPDEST PUSH1 0x0 PUSH2 0x1641 DUP4 DUP4 PUSH2 0x48C7 JUMP JUMPDEST PUSH1 0x1 PUSH1 0x1 PUSH1 0xA0 SHL SUB DUP4 AND PUSH2 0x46DC JUMPI PUSH2 0x46D7 DUP2 PUSH1 0x8 DUP1 SLOAD PUSH1 0x0 DUP4 DUP2 MSTORE PUSH1 0x9 PUSH1 0x20 MSTORE PUSH1 0x40 DUP2 KECCAK256 DUP3 SWAP1 SSTORE PUSH1 0x1 DUP3 ADD DUP4 SSTORE SWAP2 SWAP1 SWAP2 MSTORE PUSH32 0xF3F7A9FE364FAAB93B216DA50A3214154F22A0A2B415B23A84C8169E8B636EE3 ADD SSTORE JUMP JUMPDEST PUSH2 0x46FF JUMP JUMPDEST DUP2 PUSH1 0x1 PUSH1 0x1 PUSH1 0xA0 SHL SUB AND DUP4 PUSH1 0x1 PUSH1 0x1 PUSH1 0xA0 SHL SUB AND EQ PUSH2 0x46FF JUMPI PUSH2 0x46FF DUP4 DUP3 PUSH2 0x49BA JUMP JUMPDEST PUSH1 0x1 PUSH1 0x1 PUSH1 0xA0 SHL SUB DUP3 AND PUSH2 0x4716 JUMPI PUSH2 0x126D DUP2 PUSH2 0x4A57 JUMP JUMPDEST DUP3 PUSH1 0x1 PUSH1 0x1 PUSH1 0xA0 SHL SUB AND DUP3 PUSH1 0x1 PUSH1 0x1 PUSH1 0xA0 SHL SUB AND EQ PUSH2 0x126D JUMPI PUSH2 0x126D DUP3 DUP3 PUSH2 0x4B06 JUMP JUMPDEST PUSH1 0x1 PUSH1 0x1 PUSH1 0xA0 SHL SUB DUP3 AND PUSH2 0x478F JUMPI PUSH1 0x40 MLOAD PUSH3 0x461BCD PUSH1 0xE5 SHL DUP2 MSTORE PUSH1 0x20 PUSH1 0x4 DUP3 ADD DUP2 SWAP1 MSTORE PUSH1 0x24 DUP3 ADD MSTORE PUSH32 0x4552433732313A206D696E7420746F20746865207A65726F2061646472657373 PUSH1 0x44 DUP3 ADD MSTORE PUSH1 0x64 ADD PUSH2 0x1137 JUMP JUMPDEST PUSH2 0x4798 DUP2 PUSH2 0x3469 JUMP JUMPDEST ISZERO PUSH2 0x47E5 JUMPI PUSH1 0x40 MLOAD PUSH3 0x461BCD PUSH1 0xE5 SHL DUP2 MSTORE PUSH1 0x20 PUSH1 0x4 DUP3 ADD MSTORE PUSH1 0x1C PUSH1 0x24 DUP3 ADD MSTORE PUSH32 0x4552433732313A20746F6B656E20616C7265616479206D696E74656400000000 PUSH1 0x44 DUP3 ADD MSTORE PUSH1 0x64 ADD PUSH2 0x1137 JUMP JUMPDEST PUSH2 0x47F1 PUSH1 0x0 DUP4 DUP4 PUSH2 0x4320 JUMP JUMPDEST PUSH1 0x1 PUSH1 0x1 PUSH1 0xA0 SHL SUB DUP3 AND PUSH1 0x0 SWAP1 DUP2 MSTORE PUSH1 0x3 PUSH1 0x20 MSTORE PUSH1 0x40 DUP2 KECCAK256 DUP1 SLOAD PUSH1 0x1 SWAP3 SWAP1 PUSH2 0x481A SWAP1 DUP5 SWAP1 PUSH2 0x58E1 JUMP JUMPDEST SWAP1 SWAP2 SSTORE POP POP PUSH1 0x0 DUP2 DUP2 MSTORE PUSH1 0x2 PUSH1 0x20 MSTORE PUSH1 0x40 DUP1 DUP3 KECCAK256 DUP1 SLOAD PUSH1 0x1 PUSH1 0x1 PUSH1 0xA0 SHL SUB NOT AND PUSH1 0x1 PUSH1 0x1 PUSH1 0xA0 SHL SUB DUP7 AND SWAP1 DUP2 OR SWAP1 SWAP2 SSTORE SWAP1 MLOAD DUP4 SWAP3 SWAP1 PUSH32 0xDDF252AD1BE2C89B69C2B068FC378DAA952BA7F163C4A11628F55A4DF523B3EF SWAP1 DUP3 SWAP1 LOG4 POP POP JUMP JUMPDEST PUSH1 0x0 DUP2 DUP2 MSTORE PUSH1 0x1 DUP4 ADD PUSH1 0x20 MSTORE PUSH1 0x40 DUP2 KECCAK256 SLOAD PUSH2 0x48BF JUMPI POP DUP2 SLOAD PUSH1 0x1 DUP2 DUP2 ADD DUP5 SSTORE PUSH1 0x0 DUP5 DUP2 MSTORE PUSH1 0x20 DUP1 DUP3 KECCAK256 SWAP1 SWAP4 ADD DUP5 SWAP1 SSTORE DUP5 SLOAD DUP5 DUP3 MSTORE DUP3 DUP7 ADD SWAP1 SWAP4 MSTORE PUSH1 0x40 SWAP1 KECCAK256 SWAP2 SWAP1 SWAP2 SSTORE PUSH2 0x1037 JUMP JUMPDEST POP PUSH1 0x0 PUSH2 0x1037 JUMP JUMPDEST PUSH1 0x0 DUP2 DUP2 MSTORE PUSH1 0x1 DUP4 ADD PUSH1 0x20 MSTORE PUSH1 0x40 DUP2 KECCAK256 SLOAD DUP1 ISZERO PUSH2 0x49B0 JUMPI PUSH1 0x0 PUSH2 0x48EB PUSH1 0x1 DUP4 PUSH2 0x58CA JUMP JUMPDEST DUP6 SLOAD SWAP1 SWAP2 POP PUSH1 0x0 SWAP1 PUSH2 0x48FF SWAP1 PUSH1 0x1 SWAP1 PUSH2 0x58CA JUMP JUMPDEST SWAP1 POP DUP2 DUP2 EQ PUSH2 0x4964 JUMPI PUSH1 0x0 DUP7 PUSH1 0x0 ADD DUP3 DUP2 SLOAD DUP2 LT PUSH2 0x491F JUMPI PUSH2 0x491F PUSH2 0x5566 JUMP JUMPDEST SWAP1 PUSH1 0x0 MSTORE PUSH1 0x20 PUSH1 0x0 KECCAK256 ADD SLOAD SWAP1 POP DUP1 DUP8 PUSH1 0x0 ADD DUP5 DUP2 SLOAD DUP2 LT PUSH2 0x4942 JUMPI PUSH2 0x4942 PUSH2 0x5566 JUMP JUMPDEST PUSH1 0x0 SWAP2 DUP3 MSTORE PUSH1 0x20 DUP1 DUP4 KECCAK256 SWAP1 SWAP2 ADD SWAP3 SWAP1 SWAP3 SSTORE SWAP2 DUP3 MSTORE PUSH1 0x1 DUP9 ADD SWAP1 MSTORE PUSH1 0x40 SWAP1 KECCAK256 DUP4 SWAP1 SSTORE JUMPDEST DUP6 SLOAD DUP7 SWAP1 DUP1 PUSH2 0x4975 JUMPI PUSH2 0x4975 PUSH2 0x5A80 JUMP JUMPDEST PUSH1 0x1 SWAP1 SUB DUP2 DUP2 SWAP1 PUSH1 0x0 MSTORE PUSH1 0x20 PUSH1 0x0 KECCAK256 ADD PUSH1 0x0 SWAP1 SSTORE SWAP1 SSTORE DUP6 PUSH1 0x1 ADD PUSH1 0x0 DUP7 DUP2 MSTORE PUSH1 0x20 ADD SWAP1 DUP2 MSTORE PUSH1 0x20 ADD PUSH1 0x0 KECCAK256 PUSH1 0x0 SWAP1 SSTORE PUSH1 0x1 SWAP4 POP POP POP POP PUSH2 0x1037 JUMP JUMPDEST PUSH1 0x0 SWAP2 POP POP PUSH2 0x1037 JUMP JUMPDEST PUSH1 0x0 PUSH1 0x1 PUSH2 0x49C7 DUP5 PUSH2 0x2325 JUMP JUMPDEST PUSH2 0x49D1 SWAP2 SWAP1 PUSH2 0x58CA JUMP JUMPDEST PUSH1 0x0 DUP4 DUP2 MSTORE PUSH1 0x7 PUSH1 0x20 MSTORE PUSH1 0x40 SWAP1 KECCAK256 SLOAD SWAP1 SWAP2 POP DUP1 DUP3 EQ PUSH2 0x4A24 JUMPI PUSH1 0x1 PUSH1 0x1 PUSH1 0xA0 SHL SUB DUP5 AND PUSH1 0x0 SWAP1 DUP2 MSTORE PUSH1 0x6 PUSH1 0x20 SWAP1 DUP2 MSTORE PUSH1 0x40 DUP1 DUP4 KECCAK256 DUP6 DUP5 MSTORE DUP3 MSTORE DUP1 DUP4 KECCAK256 SLOAD DUP5 DUP5 MSTORE DUP2 DUP5 KECCAK256 DUP2 SWAP1 SSTORE DUP4 MSTORE PUSH1 0x7 SWAP1 SWAP2 MSTORE SWAP1 KECCAK256 DUP2 SWAP1 SSTORE JUMPDEST POP PUSH1 0x0 SWAP2 DUP3 MSTORE PUSH1 0x7 PUSH1 0x20 SWAP1 DUP2 MSTORE PUSH1 0x40 DUP1 DUP5 KECCAK256 DUP5 SWAP1 SSTORE PUSH1 0x1 PUSH1 0x1 PUSH1 0xA0 SHL SUB SWAP1 SWAP5 AND DUP4 MSTORE PUSH1 0x6 DUP2 MSTORE DUP4 DUP4 KECCAK256 SWAP2 DUP4 MSTORE MSTORE SWAP1 DUP2 KECCAK256 SSTORE JUMP JUMPDEST PUSH1 0x8 SLOAD PUSH1 0x0 SWAP1 PUSH2 0x4A69 SWAP1 PUSH1 0x1 SWAP1 PUSH2 0x58CA JUMP JUMPDEST PUSH1 0x0 DUP4 DUP2 MSTORE PUSH1 0x9 PUSH1 0x20 MSTORE PUSH1 0x40 DUP2 KECCAK256 SLOAD PUSH1 0x8 DUP1 SLOAD SWAP4 SWAP5 POP SWAP1 SWAP3 DUP5 SWAP1 DUP2 LT PUSH2 0x4A91 JUMPI PUSH2 0x4A91 PUSH2 0x5566 JUMP JUMPDEST SWAP1 PUSH1 0x0 MSTORE PUSH1 0x20 PUSH1 0x0 KECCAK256 ADD SLOAD SWAP1 POP DUP1 PUSH1 0x8 DUP4 DUP2 SLOAD DUP2 LT PUSH2 0x4AB2 JUMPI PUSH2 0x4AB2 PUSH2 0x5566 JUMP JUMPDEST PUSH1 0x0 SWAP2 DUP3 MSTORE PUSH1 0x20 DUP1 DUP4 KECCAK256 SWAP1 SWAP2 ADD SWAP3 SWAP1 SWAP3 SSTORE DUP3 DUP2 MSTORE PUSH1 0x9 SWAP1 SWAP2 MSTORE PUSH1 0x40 DUP1 DUP3 KECCAK256 DUP5 SWAP1 SSTORE DUP6 DUP3 MSTORE DUP2 KECCAK256 SSTORE PUSH1 0x8 DUP1 SLOAD DUP1 PUSH2 0x4AEA JUMPI PUSH2 0x4AEA PUSH2 0x5A80 JUMP JUMPDEST PUSH1 0x1 SWAP1 SUB DUP2 DUP2 SWAP1 PUSH1 0x0 MSTORE PUSH1 0x20 PUSH1 0x0 KECCAK256 ADD PUSH1 0x0 SWAP1 SSTORE SWAP1 SSTORE POP POP POP POP JUMP JUMPDEST PUSH1 0x0 PUSH2 0x4B11 DUP4 PUSH2 0x2325 JUMP JUMPDEST PUSH1 0x1 PUSH1 0x1 PUSH1 0xA0 SHL SUB SWAP1 SWAP4 AND PUSH1 0x0 SWAP1 DUP2 MSTORE PUSH1 0x6 PUSH1 0x20 SWAP1 DUP2 MSTORE PUSH1 0x40 DUP1 DUP4 KECCAK256 DUP7 DUP5 MSTORE DUP3 MSTORE DUP1 DUP4 KECCAK256 DUP6 SWAP1 SSTORE SWAP4 DUP3 MSTORE PUSH1 0x7 SWAP1 MSTORE SWAP2 SWAP1 SWAP2 KECCAK256 SWAP2 SWAP1 SWAP2 SSTORE POP JUMP JUMPDEST DUP3 DUP1 SLOAD PUSH2 0x4B56 SWAP1 PUSH2 0x552B JUMP JUMPDEST SWAP1 PUSH1 0x0 MSTORE PUSH1 0x20 PUSH1 0x0 KECCAK256 SWAP1 PUSH1 0x1F ADD PUSH1 0x20 SWAP1 DIV DUP2 ADD SWAP3 DUP3 PUSH2 0x4B78 JUMPI PUSH1 0x0 DUP6 SSTORE PUSH2 0x4BBE JUMP JUMPDEST DUP3 PUSH1 0x1F LT PUSH2 0x4B91 JUMPI DUP3 DUP1 ADD PUSH1 0xFF NOT DUP3 CALLDATALOAD AND OR DUP6 SSTORE PUSH2 0x4BBE JUMP JUMPDEST DUP3 DUP1 ADD PUSH1 0x1 ADD DUP6 SSTORE DUP3 ISZERO PUSH2 0x4BBE JUMPI SWAP2 DUP3 ADD JUMPDEST DUP3 DUP2 GT ISZERO PUSH2 0x4BBE JUMPI DUP3 CALLDATALOAD DUP3 SSTORE SWAP2 PUSH1 0x20 ADD SWAP2 SWAP1 PUSH1 0x1 ADD SWAP1 PUSH2 0x4BA3 JUMP JUMPDEST POP PUSH2 0x431C SWAP3 SWAP2 POP PUSH2 0x4C78 JUMP JUMPDEST POP DUP1 SLOAD PUSH2 0x4BD6 SWAP1 PUSH2 0x552B JUMP JUMPDEST PUSH1 0x0 DUP3 SSTORE DUP1 PUSH1 0x1F LT PUSH2 0x4BE6 JUMPI POP POP JUMP JUMPDEST PUSH1 0x1F ADD PUSH1 0x20 SWAP1 DIV SWAP1 PUSH1 0x0 MSTORE PUSH1 0x20 PUSH1 0x0 KECCAK256 SWAP1 DUP2 ADD SWAP1 PUSH2 0x17C2 SWAP2 SWAP1 PUSH2 0x4C78 JUMP JUMPDEST DUP3 DUP1 SLOAD PUSH2 0x4C10 SWAP1 PUSH2 0x552B JUMP JUMPDEST SWAP1 PUSH1 0x0 MSTORE PUSH1 0x20 PUSH1 0x0 KECCAK256 SWAP1 PUSH1 0x1F ADD PUSH1 0x20 SWAP1 DIV DUP2 ADD SWAP3 DUP3 PUSH2 0x4C32 JUMPI PUSH1 0x0 DUP6 SSTORE PUSH2 0x4BBE JUMP JUMPDEST DUP3 PUSH1 0x1F LT PUSH2 0x4C4B JUMPI DUP1 MLOAD PUSH1 0xFF NOT AND DUP4 DUP1 ADD OR DUP6 SSTORE PUSH2 0x4BBE JUMP JUMPDEST DUP3 DUP1 ADD PUSH1 0x1 ADD DUP6 SSTORE DUP3 ISZERO PUSH2 0x4BBE JUMPI SWAP2 DUP3 ADD JUMPDEST DUP3 DUP2 GT ISZERO PUSH2 0x4BBE JUMPI DUP3 MLOAD DUP3 SSTORE SWAP2 PUSH1 0x20 ADD SWAP2 SWAP1 PUSH1 0x1 ADD SWAP1 PUSH2 0x4C5D JUMP JUMPDEST JUMPDEST DUP1 DUP3 GT ISZERO PUSH2 0x431C JUMPI PUSH1 0x0 DUP2 SSTORE PUSH1 0x1 ADD PUSH2 0x4C79 JUMP JUMPDEST PUSH1 0x1 PUSH1 0x1 PUSH1 0xE0 SHL SUB NOT DUP2 AND DUP2 EQ PUSH2 0x17C2 JUMPI PUSH1 0x0 DUP1 REVERT JUMPDEST PUSH1 0x0 PUSH1 0x20 DUP3 DUP5 SUB SLT ISZERO PUSH2 0x4CB5 JUMPI PUSH1 0x0 DUP1 REVERT JUMPDEST DUP2 CALLDATALOAD PUSH2 0x1641 DUP2 PUSH2 0x4C8D JUMP JUMPDEST DUP1 CALLDATALOAD PUSH1 0x1 PUSH1 0x1 PUSH1 0xA0 SHL SUB DUP2 AND DUP2 EQ PUSH2 0x4CD7 JUMPI PUSH1 0x0 DUP1 REVERT JUMPDEST SWAP2 SWAP1 POP JUMP JUMPDEST PUSH1 0x0 PUSH1 0x20 DUP3 DUP5 SUB SLT ISZERO PUSH2 0x4CEE JUMPI PUSH1 0x0 DUP1 REVERT JUMPDEST PUSH2 0x1641 DUP3 PUSH2 0x4CC0 JUMP JUMPDEST PUSH1 0x0 JUMPDEST DUP4 DUP2 LT ISZERO PUSH2 0x4D12 JUMPI DUP2 DUP2 ADD MLOAD DUP4 DUP3 ADD MSTORE PUSH1 0x20 ADD PUSH2 0x4CFA JUMP JUMPDEST DUP4 DUP2 GT ISZERO PUSH2 0x184D JUMPI POP POP PUSH1 0x0 SWAP2 ADD MSTORE JUMP JUMPDEST PUSH1 0x0 DUP2 MLOAD DUP1 DUP5 MSTORE PUSH2 0x4D3B DUP2 PUSH1 0x20 DUP7 ADD PUSH1 0x20 DUP7 ADD PUSH2 0x4CF7 JUMP JUMPDEST PUSH1 0x1F ADD PUSH1 0x1F NOT AND SWAP3 SWAP1 SWAP3 ADD PUSH1 0x20 ADD SWAP3 SWAP2 POP POP JUMP JUMPDEST PUSH1 0x20 DUP2 MSTORE PUSH1 0x0 PUSH2 0x1641 PUSH1 0x20 DUP4 ADD DUP5 PUSH2 0x4D23 JUMP JUMPDEST PUSH1 0x0 PUSH1 0x20 DUP3 DUP5 SUB SLT ISZERO PUSH2 0x4D74 JUMPI PUSH1 0x0 DUP1 REVERT JUMPDEST POP CALLDATALOAD SWAP2 SWAP1 POP JUMP JUMPDEST PUSH1 0x0 DUP1 PUSH1 0x40 DUP4 DUP6 SUB SLT ISZERO PUSH2 0x4D8E JUMPI PUSH1 0x0 DUP1 REVERT JUMPDEST PUSH2 0x4D97 DUP4 PUSH2 0x4CC0 JUMP JUMPDEST SWAP5 PUSH1 0x20 SWAP4 SWAP1 SWAP4 ADD CALLDATALOAD SWAP4 POP POP POP JUMP JUMPDEST PUSH1 0x0 DUP1 DUP4 PUSH1 0x1F DUP5 ADD SLT PUSH2 0x4DB7 JUMPI PUSH1 0x0 DUP1 REVERT JUMPDEST POP DUP2 CALLDATALOAD PUSH1 0x1 PUSH1 0x1 PUSH1 0x40 SHL SUB DUP2 GT ISZERO PUSH2 0x4DCE JUMPI PUSH1 0x0 DUP1 REVERT JUMPDEST PUSH1 0x20 DUP4 ADD SWAP2 POP DUP4 PUSH1 0x20 DUP3 PUSH1 0x5 SHL DUP6 ADD ADD GT ISZERO PUSH2 0x4DE9 JUMPI PUSH1 0x0 DUP1 REVERT JUMPDEST SWAP3 POP SWAP3 SWAP1 POP JUMP JUMPDEST PUSH1 0x0 DUP1 PUSH1 0x0 PUSH1 0x40 DUP5 DUP7 SUB SLT ISZERO PUSH2 0x4E05 JUMPI PUSH1 0x0 DUP1 REVERT JUMPDEST DUP4 CALLDATALOAD PUSH1 0x1 PUSH1 0x1 PUSH1 0x40 SHL SUB DUP2 GT ISZERO PUSH2 0x4E1B JUMPI PUSH1 0x0 DUP1 REVERT JUMPDEST PUSH2 0x4E27 DUP7 DUP3 DUP8 ADD PUSH2 0x4DA5 JUMP JUMPDEST SWAP1 SWAP8 SWAP1 SWAP7 POP PUSH1 0x20 SWAP6 SWAP1 SWAP6 ADD CALLDATALOAD SWAP5 SWAP4 POP POP POP POP JUMP JUMPDEST PUSH1 0x0 DUP3 DUP3 MLOAD DUP1 DUP6 MSTORE PUSH1 0x20 DUP1 DUP7 ADD SWAP6 POP DUP1 DUP3 PUSH1 0x5 SHL DUP5 ADD ADD DUP2 DUP7 ADD PUSH1 0x0 JUMPDEST DUP5 DUP2 LT ISZERO PUSH2 0x4E86 JUMPI PUSH1 0x1F NOT DUP7 DUP5 SUB ADD DUP10 MSTORE PUSH2 0x4E74 DUP4 DUP4 MLOAD PUSH2 0x4D23 JUMP JUMPDEST SWAP9 DUP5 ADD SWAP9 SWAP3 POP SWAP1 DUP4 ADD SWAP1 PUSH1 0x1 ADD PUSH2 0x4E58 JUMP JUMPDEST POP SWAP1 SWAP8 SWAP7 POP POP POP POP POP POP POP JUMP JUMPDEST PUSH1 0x20 DUP2 MSTORE PUSH1 0x0 PUSH2 0x1641 PUSH1 0x20 DUP4 ADD DUP5 PUSH2 0x4E3B JUMP JUMPDEST PUSH1 0x0 DUP1 DUP4 PUSH1 0x1F DUP5 ADD SLT PUSH2 0x4EB8 JUMPI PUSH1 0x0 DUP1 REVERT JUMPDEST POP DUP2 CALLDATALOAD PUSH1 0x1 PUSH1 0x1 PUSH1 0x40 SHL SUB DUP2 GT ISZERO PUSH2 0x4ECF JUMPI PUSH1 0x0 DUP1 REVERT JUMPDEST PUSH1 0x20 DUP4 ADD SWAP2 POP DUP4 PUSH1 0x20 DUP3 DUP6 ADD ADD GT ISZERO PUSH2 0x4DE9 JUMPI PUSH1 0x0 DUP1 REVERT JUMPDEST PUSH1 0x0 DUP1 PUSH1 0x0 PUSH1 0x40 DUP5 DUP7 SUB SLT ISZERO PUSH2 0x4EFC JUMPI PUSH1 0x0 DUP1 REVERT JUMPDEST DUP4 CALLDATALOAD PUSH1 0x1 PUSH1 0x1 PUSH1 0x40 SHL SUB DUP2 GT ISZERO PUSH2 0x4F12 JUMPI PUSH1 0x0 DUP1 REVERT JUMPDEST PUSH2 0x4E27 DUP7 DUP3 DUP8 ADD PUSH2 0x4EA6 JUMP JUMPDEST PUSH1 0x0 DUP1 PUSH1 0x20 DUP4 DUP6 SUB SLT ISZERO PUSH2 0x4F31 JUMPI PUSH1 0x0 DUP1 REVERT JUMPDEST DUP3 CALLDATALOAD PUSH1 0x1 PUSH1 0x1 PUSH1 0x40 SHL SUB DUP2 GT ISZERO PUSH2 0x4F47 JUMPI PUSH1 0x0 DUP1 REVERT JUMPDEST PUSH2 0x4F53 DUP6 DUP3 DUP7 ADD PUSH2 0x4DA5 JUMP JUMPDEST SWAP1 SWAP7 SWAP1 SWAP6 POP SWAP4 POP POP POP POP JUMP JUMPDEST PUSH1 0x0 DUP1 PUSH1 0x0 PUSH1 0x60 DUP5 DUP7 SUB SLT ISZERO PUSH2 0x4F74 JUMPI PUSH1 0x0 DUP1 REVERT JUMPDEST PUSH2 0x4F7D DUP5 PUSH2 0x4CC0 JUMP JUMPDEST SWAP3 POP PUSH2 0x4F8B PUSH1 0x20 DUP6 ADD PUSH2 0x4CC0 JUMP JUMPDEST SWAP2 POP PUSH1 0x40 DUP5 ADD CALLDATALOAD SWAP1 POP SWAP3 POP SWAP3 POP SWAP3 JUMP JUMPDEST PUSH4 0x4E487B71 PUSH1 0xE0 SHL PUSH1 0x0 MSTORE PUSH1 0x41 PUSH1 0x4 MSTORE PUSH1 0x24 PUSH1 0x0 REVERT JUMPDEST PUSH1 0x0 DUP3 PUSH1 0x1F DUP4 ADD SLT PUSH2 0x4FC2 JUMPI PUSH1 0x0 DUP1 REVERT JUMPDEST DUP2 CALLDATALOAD PUSH1 0x1 PUSH1 0x1 PUSH1 0x40 SHL SUB DUP1 DUP3 GT ISZERO PUSH2 0x4FDC JUMPI PUSH2 0x4FDC PUSH2 0x4F9B JUMP JUMPDEST PUSH1 0x40 MLOAD PUSH1 0x1F DUP4 ADD PUSH1 0x1F NOT SWAP1 DUP2 AND PUSH1 0x3F ADD AND DUP2 ADD SWAP1 DUP3 DUP3 GT DUP2 DUP4 LT OR ISZERO PUSH2 0x5004 JUMPI PUSH2 0x5004 PUSH2 0x4F9B JUMP JUMPDEST DUP2 PUSH1 0x40 MSTORE DUP4 DUP2 MSTORE DUP7 PUSH1 0x20 DUP6 DUP9 ADD ADD GT ISZERO PUSH2 0x501D JUMPI PUSH1 0x0 DUP1 REVERT JUMPDEST DUP4 PUSH1 0x20 DUP8 ADD PUSH1 0x20 DUP4 ADD CALLDATACOPY PUSH1 0x0 PUSH1 0x20 DUP6 DUP4 ADD ADD MSTORE DUP1 SWAP5 POP POP POP POP POP SWAP3 SWAP2 POP POP JUMP JUMPDEST PUSH1 0x0 PUSH1 0x20 DUP3 DUP5 SUB SLT ISZERO PUSH2 0x504F JUMPI PUSH1 0x0 DUP1 REVERT JUMPDEST DUP2 CALLDATALOAD PUSH1 0x1 PUSH1 0x1 PUSH1 0x40 SHL SUB DUP2 GT ISZERO PUSH2 0x5065 JUMPI PUSH1 0x0 DUP1 REVERT JUMPDEST PUSH2 0x1461 DUP5 DUP3 DUP6 ADD PUSH2 0x4FB1 JUMP JUMPDEST PUSH1 0x0 DUP1 PUSH1 0x0 DUP1 PUSH1 0x0 PUSH1 0x60 DUP7 DUP9 SUB SLT ISZERO PUSH2 0x5089 JUMPI PUSH1 0x0 DUP1 REVERT JUMPDEST DUP6 CALLDATALOAD PUSH1 0x1 PUSH1 0x1 PUSH1 0x40 SHL SUB DUP1 DUP3 GT ISZERO PUSH2 0x50A0 JUMPI PUSH1 0x0 DUP1 REVERT JUMPDEST PUSH2 0x50AC DUP10 DUP4 DUP11 ADD PUSH2 0x4DA5 JUMP JUMPDEST SWAP1 SWAP8 POP SWAP6 POP PUSH1 0x20 DUP9 ADD CALLDATALOAD SWAP2 POP DUP1 DUP3 GT ISZERO PUSH2 0x50C5 JUMPI PUSH1 0x0 DUP1 REVERT JUMPDEST POP PUSH2 0x50D2 DUP9 DUP3 DUP10 ADD PUSH2 0x4DA5 JUMP JUMPDEST SWAP7 SWAP10 SWAP6 SWAP9 POP SWAP7 PUSH1 0x40 ADD CALLDATALOAD SWAP5 SWAP4 POP POP POP POP JUMP JUMPDEST PUSH1 0x0 DUP1 PUSH1 0x40 DUP4 DUP6 SUB SLT ISZERO PUSH2 0x50F7 JUMPI PUSH1 0x0 DUP1 REVERT JUMPDEST POP POP DUP1 CALLDATALOAD SWAP3 PUSH1 0x20 SWAP1 SWAP2 ADD CALLDATALOAD SWAP2 POP JUMP JUMPDEST PUSH1 0x0 DUP1 PUSH1 0x0 DUP1 PUSH1 0x0 PUSH1 0x60 DUP7 DUP9 SUB SLT ISZERO PUSH2 0x511E JUMPI PUSH1 0x0 DUP1 REVERT JUMPDEST DUP6 CALLDATALOAD PUSH1 0x1 PUSH1 0x1 PUSH1 0x40 SHL SUB DUP1 DUP3 GT ISZERO PUSH2 0x5135 JUMPI PUSH1 0x0 DUP1 REVERT JUMPDEST PUSH2 0x5141 DUP10 DUP4 DUP11 ADD PUSH2 0x4EA6 JUMP JUMPDEST SWAP1 SWAP8 POP SWAP6 POP PUSH1 0x20 DUP9 ADD CALLDATALOAD SWAP2 POP DUP1 DUP3 GT ISZERO PUSH2 0x515A JUMPI PUSH1 0x0 DUP1 REVERT JUMPDEST POP PUSH2 0x50D2 DUP9 DUP3 DUP10 ADD PUSH2 0x4EA6 JUMP JUMPDEST PUSH1 0x0 DUP1 PUSH1 0x0 DUP1 PUSH1 0x60 DUP6 DUP8 SUB SLT ISZERO PUSH2 0x517D JUMPI PUSH1 0x0 DUP1 REVERT JUMPDEST DUP5 CALLDATALOAD SWAP4 POP PUSH1 0x20 DUP6 ADD CALLDATALOAD PUSH1 0x1 PUSH1 0x1 PUSH1 0x40 SHL SUB DUP2 GT ISZERO PUSH2 0x519A JUMPI PUSH1 0x0 DUP1 REVERT JUMPDEST PUSH2 0x51A6 DUP8 DUP3 DUP9 ADD PUSH2 0x4EA6 JUMP JUMPDEST SWAP6 SWAP9 SWAP1 SWAP8 POP SWAP5 SWAP6 PUSH1 0x40 ADD CALLDATALOAD SWAP5 SWAP4 POP POP POP POP JUMP JUMPDEST PUSH1 0x0 DUP1 PUSH1 0x20 DUP4 DUP6 SUB SLT ISZERO PUSH2 0x51CC JUMPI PUSH1 0x0 DUP1 REVERT JUMPDEST DUP3 CALLDATALOAD PUSH1 0x1 PUSH1 0x1 PUSH1 0x40 SHL SUB DUP2 GT ISZERO PUSH2 0x51E2 JUMPI PUSH1 0x0 DUP1 REVERT JUMPDEST PUSH2 0x4F53 DUP6 DUP3 DUP7 ADD PUSH2 0x4EA6 JUMP JUMPDEST PUSH1 0x0 DUP1 PUSH1 0x40 DUP4 DUP6 SUB SLT ISZERO PUSH2 0x5201 JUMPI PUSH1 0x0 DUP1 REVERT JUMPDEST DUP3 CALLDATALOAD PUSH1 0x1 PUSH1 0x1 PUSH1 0x40 SHL SUB DUP1 DUP3 GT ISZERO PUSH2 0x5218 JUMPI PUSH1 0x0 DUP1 REVERT JUMPDEST PUSH2 0x5224 DUP7 DUP4 DUP8 ADD PUSH2 0x4FB1 JUMP JUMPDEST SWAP4 POP PUSH1 0x20 DUP6 ADD CALLDATALOAD SWAP2 POP DUP1 DUP3 GT ISZERO PUSH2 0x523A JUMPI PUSH1 0x0 DUP1 REVERT JUMPDEST POP PUSH2 0x5247 DUP6 DUP3 DUP7 ADD PUSH2 0x4FB1 JUMP JUMPDEST SWAP2 POP POP SWAP3 POP SWAP3 SWAP1 POP JUMP JUMPDEST PUSH1 0x40 DUP2 MSTORE PUSH1 0x0 PUSH2 0x5264 PUSH1 0x40 DUP4 ADD DUP6 PUSH2 0x4D23 JUMP JUMPDEST DUP3 DUP2 SUB PUSH1 0x20 DUP5 ADD MSTORE PUSH2 0x5276 DUP2 DUP6 PUSH2 0x4D23 JUMP JUMPDEST SWAP6 SWAP5 POP POP POP POP POP JUMP JUMPDEST PUSH1 0x0 DUP1 PUSH1 0x0 PUSH1 0x60 DUP5 DUP7 SUB SLT ISZERO PUSH2 0x5294 JUMPI PUSH1 0x0 DUP1 REVERT JUMPDEST PUSH2 0x529D DUP5 PUSH2 0x4CC0 JUMP JUMPDEST SWAP3 POP PUSH1 0x20 DUP5 ADD CALLDATALOAD PUSH1 0x1 PUSH1 0x1 PUSH1 0x40 SHL SUB DUP1 DUP3 GT ISZERO PUSH2 0x52B9 JUMPI PUSH1 0x0 DUP1 REVERT JUMPDEST PUSH2 0x52C5 DUP8 DUP4 DUP9 ADD PUSH2 0x4FB1 JUMP JUMPDEST SWAP4 POP PUSH1 0x40 DUP7 ADD CALLDATALOAD SWAP2 POP DUP1 DUP3 GT ISZERO PUSH2 0x52DB JUMPI PUSH1 0x0 DUP1 REVERT JUMPDEST POP PUSH2 0x52E8 DUP7 DUP3 DUP8 ADD PUSH2 0x4FB1 JUMP JUMPDEST SWAP2 POP POP SWAP3 POP SWAP3 POP SWAP3 JUMP JUMPDEST PUSH1 0x0 DUP1 PUSH1 0x0 PUSH1 0x60 DUP5 DUP7 SUB SLT ISZERO PUSH2 0x5307 JUMPI PUSH1 0x0 DUP1 REVERT JUMPDEST POP POP DUP2 CALLDATALOAD SWAP4 PUSH1 0x20 DUP4 ADD CALLDATALOAD SWAP4 POP PUSH1 0x40 SWAP1 SWAP3 ADD CALLDATALOAD SWAP2 SWAP1 POP JUMP JUMPDEST PUSH1 0x0 DUP1 PUSH1 0x0 PUSH1 0x60 DUP5 DUP7 SUB SLT ISZERO PUSH2 0x5333 JUMPI PUSH1 0x0 DUP1 REVERT JUMPDEST PUSH2 0x533C DUP5 PUSH2 0x4CC0 JUMP JUMPDEST SWAP3 POP PUSH1 0x20 DUP5 ADD CALLDATALOAD SWAP2 POP PUSH1 0x40 DUP5 ADD CALLDATALOAD PUSH1 0x1 PUSH1 0x1 PUSH1 0x40 SHL SUB DUP2 GT ISZERO PUSH2 0x535E JUMPI PUSH1 0x0 DUP1 REVERT JUMPDEST PUSH2 0x52E8 DUP7 DUP3 DUP8 ADD PUSH2 0x4FB1 JUMP JUMPDEST DUP1 CALLDATALOAD DUP1 ISZERO ISZERO DUP2 EQ PUSH2 0x4CD7 JUMPI PUSH1 0x0 DUP1 REVERT JUMPDEST PUSH1 0x0 DUP1 PUSH1 0x40 DUP4 DUP6 SUB SLT ISZERO PUSH2 0x538D JUMPI PUSH1 0x0 DUP1 REVERT JUMPDEST PUSH2 0x5396 DUP4 PUSH2 0x4CC0 JUMP JUMPDEST SWAP2 POP PUSH2 0x3D73 PUSH1 0x20 DUP5 ADD PUSH2 0x536A JUMP JUMPDEST PUSH1 0x40 DUP2 MSTORE PUSH1 0x0 PUSH2 0x53B7 PUSH1 0x40 DUP4 ADD DUP6 PUSH2 0x4E3B JUMP JUMPDEST DUP3 DUP2 SUB PUSH1 0x20 DUP5 ADD MSTORE PUSH2 0x5276 DUP2 DUP6 PUSH2 0x4E3B JUMP JUMPDEST PUSH1 0x0 DUP1 PUSH1 0x0 DUP1 PUSH1 0x80 DUP6 DUP8 SUB SLT ISZERO PUSH2 0x53DF JUMPI PUSH1 0x0 DUP1 REVERT JUMPDEST PUSH2 0x53E8 DUP6 PUSH2 0x4CC0 JUMP JUMPDEST SWAP4 POP PUSH2 0x53F6 PUSH1 0x20 DUP7 ADD PUSH2 0x4CC0 JUMP JUMPDEST SWAP3 POP PUSH1 0x40 DUP6 ADD CALLDATALOAD SWAP2 POP PUSH1 0x60 DUP6 ADD CALLDATALOAD PUSH1 0x1 PUSH1 0x1 PUSH1 0x40 SHL SUB DUP2 GT ISZERO PUSH2 0x5418 JUMPI PUSH1 0x0 DUP1 REVERT JUMPDEST PUSH2 0x5424 DUP8 DUP3 DUP9 ADD PUSH2 0x4FB1 JUMP JUMPDEST SWAP2 POP POP SWAP3 SWAP6 SWAP2 SWAP5 POP SWAP3 POP JUMP JUMPDEST PUSH1 0x0 DUP1 PUSH1 0x40 DUP4 DUP6 SUB SLT ISZERO PUSH2 0x5443 JUMPI PUSH1 0x0 DUP1 REVERT JUMPDEST DUP3 CALLDATALOAD SWAP2 POP PUSH2 0x3D73 PUSH1 0x20 DUP5 ADD PUSH2 0x4CC0 JUMP JUMPDEST PUSH1 0x40 DUP1 DUP3 MSTORE DUP4 MLOAD SWAP1 DUP3 ADD DUP2 SWAP1 MSTORE PUSH1 0x0 SWAP1 PUSH1 0x20 SWAP1 PUSH1 0x60 DUP5 ADD SWAP1 DUP3 DUP8 ADD DUP5 JUMPDEST DUP3 DUP2 LT ISZERO PUSH2 0x548C JUMPI DUP2 MLOAD DUP5 MSTORE SWAP3 DUP5 ADD SWAP3 SWAP1 DUP5 ADD SWAP1 PUSH1 0x1 ADD PUSH2 0x5470 JUMP JUMPDEST POP POP POP DUP4 DUP2 SUB DUP3 DUP6 ADD MSTORE PUSH2 0x54A0 DUP2 DUP7 PUSH2 0x4E3B JUMP JUMPDEST SWAP7 SWAP6 POP POP POP POP POP POP JUMP JUMPDEST PUSH1 0x0 DUP1 PUSH1 0x40 DUP4 DUP6 SUB SLT ISZERO PUSH2 0x54BD JUMPI PUSH1 0x0 DUP1 REVERT JUMPDEST DUP3 CALLDATALOAD SWAP2 POP PUSH1 0x20 DUP4 ADD CALLDATALOAD PUSH1 0x1 PUSH1 0x1 PUSH1 0x40 SHL SUB DUP2 GT ISZERO PUSH2 0x54DA JUMPI PUSH1 0x0 DUP1 REVERT JUMPDEST PUSH2 0x5247 DUP6 DUP3 DUP7 ADD PUSH2 0x4FB1 JUMP JUMPDEST PUSH1 0x0 DUP1 PUSH1 0x40 DUP4 DUP6 SUB SLT ISZERO PUSH2 0x54F9 JUMPI PUSH1 0x0 DUP1 REVERT JUMPDEST PUSH2 0x5502 DUP4 PUSH2 0x4CC0 JUMP JUMPDEST SWAP2 POP PUSH2 0x3D73 PUSH1 0x20 DUP5 ADD PUSH2 0x4CC0 JUMP JUMPDEST PUSH1 0x0 PUSH1 0x20 DUP3 DUP5 SUB SLT ISZERO PUSH2 0x5522 JUMPI PUSH1 0x0 DUP1 REVERT JUMPDEST PUSH2 0x1641 DUP3 PUSH2 0x536A JUMP JUMPDEST PUSH1 0x1 DUP2 DUP2 SHR SWAP1 DUP3 AND DUP1 PUSH2 0x553F JUMPI PUSH1 0x7F DUP3 AND SWAP2 POP JUMPDEST PUSH1 0x20 DUP3 LT DUP2 EQ ISZERO PUSH2 0x5560 JUMPI PUSH4 0x4E487B71 PUSH1 0xE0 SHL PUSH1 0x0 MSTORE PUSH1 0x22 PUSH1 0x4 MSTORE PUSH1 0x24 PUSH1 0x0 REVERT JUMPDEST POP SWAP2 SWAP1 POP JUMP JUMPDEST PUSH4 0x4E487B71 PUSH1 0xE0 SHL PUSH1 0x0 MSTORE PUSH1 0x32 PUSH1 0x4 MSTORE PUSH1 0x24 PUSH1 0x0 REVERT JUMPDEST PUSH1 0x0 DUP1 DUP4 CALLDATALOAD PUSH1 0x1E NOT DUP5 CALLDATASIZE SUB ADD DUP2 SLT PUSH2 0x5593 JUMPI PUSH1 0x0 DUP1 REVERT JUMPDEST DUP4 ADD DUP1 CALLDATALOAD SWAP2 POP PUSH1 0x1 PUSH1 0x1 PUSH1 0x40 SHL SUB DUP3 GT ISZERO PUSH2 0x55AD JUMPI PUSH1 0x0 DUP1 REVERT JUMPDEST PUSH1 0x20 ADD SWAP2 POP CALLDATASIZE DUP2 SWAP1 SUB DUP3 SGT ISZERO PUSH2 0x4DE9 JUMPI PUSH1 0x0 DUP1 REVERT JUMPDEST PUSH4 0x4E487B71 PUSH1 0xE0 SHL PUSH1 0x0 MSTORE PUSH1 0x11 PUSH1 0x4 MSTORE PUSH1 0x24 PUSH1 0x0 REVERT JUMPDEST PUSH1 0x0 PUSH1 0x0 NOT DUP3 EQ ISZERO PUSH2 0x55EC JUMPI PUSH2 0x55EC PUSH2 0x55C2 JUMP JUMPDEST POP PUSH1 0x1 ADD SWAP1 JUMP JUMPDEST PUSH1 0x20 DUP1 DUP3 MSTORE DUP2 DUP2 ADD MSTORE PUSH32 0x4F776E61626C653A2063616C6C6572206973206E6F7420746865206F776E6572 PUSH1 0x40 DUP3 ADD MSTORE PUSH1 0x60 ADD SWAP1 JUMP JUMPDEST PUSH1 0x20 DUP1 DUP3 MSTORE PUSH1 0x2A SWAP1 DUP3 ADD MSTORE PUSH32 0x41646D696E436F6E74726F6C3A2073656E646572206D75737420686173206D69 PUSH1 0x40 DUP3 ADD MSTORE PUSH10 0x6E74696E6720726F6C65 PUSH1 0xB0 SHL PUSH1 0x60 DUP3 ADD MSTORE PUSH1 0x80 ADD SWAP1 JUMP JUMPDEST DUP2 DUP4 DUP3 CALLDATACOPY PUSH1 0x0 SWAP2 ADD SWAP1 DUP2 MSTORE SWAP2 SWAP1 POP JUMP JUMPDEST PUSH1 0x20 DUP1 DUP3 MSTORE PUSH1 0x31 SWAP1 DUP3 ADD MSTORE PUSH32 0x4552433732313A207472616E736665722063616C6C6572206973206E6F74206F PUSH1 0x40 DUP3 ADD MSTORE PUSH17 0x1DDB995C881B9BDC88185C1C1C9BDD9959 PUSH1 0x7A SHL PUSH1 0x60 DUP3 ADD MSTORE PUSH1 0x80 ADD SWAP1 JUMP JUMPDEST PUSH1 0x20 DUP1 DUP3 MSTORE PUSH1 0x30 SWAP1 DUP3 ADD MSTORE PUSH32 0x526576657273655265736F6C7665723A2053454E4445525F49535F4E4F545F41 PUSH1 0x40 DUP3 ADD MSTORE PUSH16 0x28282927AB22A22FA7A92FA7ABA722A9 PUSH1 0x81 SHL PUSH1 0x60 DUP3 ADD MSTORE PUSH1 0x80 ADD SWAP1 JUMP JUMPDEST PUSH1 0x0 DUP3 MLOAD PUSH2 0x5735 DUP2 DUP5 PUSH1 0x20 DUP8 ADD PUSH2 0x4CF7 JUMP JUMPDEST SWAP2 SWAP1 SWAP2 ADD SWAP3 SWAP2 POP POP JUMP JUMPDEST PUSH1 0x20 DUP1 DUP3 MSTORE PUSH1 0x22 SWAP1 DUP3 ADD MSTORE PUSH32 0x546F70206C6576656C20646F6D61696E206D757374206265206E6F6E2D656D70 PUSH1 0x40 DUP3 ADD MSTORE PUSH2 0x7479 PUSH1 0xF0 SHL PUSH1 0x60 DUP3 ADD MSTORE PUSH1 0x80 ADD SWAP1 JUMP JUMPDEST PUSH1 0x20 DUP1 DUP3 MSTORE PUSH1 0x35 SWAP1 DUP3 ADD MSTORE PUSH32 0x496E73756666696369656E7420546F6B656E206F7220546F6B656E2076616C75 PUSH1 0x40 DUP3 ADD MSTORE PUSH21 0x19481CD95B9D081A5CC81B9BDD0818DBDC9C9958DD PUSH1 0x5A SHL PUSH1 0x60 DUP3 ADD MSTORE PUSH1 0x80 ADD SWAP1 JUMP JUMPDEST PUSH1 0x0 DUP4 MLOAD PUSH2 0x57E8 DUP2 DUP5 PUSH1 0x20 DUP9 ADD PUSH2 0x4CF7 JUMP JUMPDEST PUSH1 0x17 PUSH1 0xF9 SHL SWAP1 DUP4 ADD SWAP1 DUP2 MSTORE DUP4 MLOAD PUSH2 0x5806 DUP2 PUSH1 0x1 DUP5 ADD PUSH1 0x20 DUP9 ADD PUSH2 0x4CF7 JUMP JUMPDEST ADD PUSH1 0x1 ADD SWAP5 SWAP4 POP POP POP POP JUMP JUMPDEST PUSH1 0x20 DUP1 DUP3 MSTORE PUSH1 0x28 SWAP1 DUP3 ADD MSTORE PUSH32 0x526576657273655265736F6C7665723A20524556455253455F5245434F52445F PUSH1 0x40 DUP3 ADD MSTORE PUSH8 0x49535F454D505459 PUSH1 0xC0 SHL PUSH1 0x60 DUP3 ADD MSTORE PUSH1 0x80 ADD SWAP1 JUMP JUMPDEST PUSH1 0x0 DUP4 MLOAD PUSH2 0x586C DUP2 DUP5 PUSH1 0x20 DUP9 ADD PUSH2 0x4CF7 JUMP JUMPDEST DUP4 MLOAD SWAP1 DUP4 ADD SWAP1 PUSH2 0x5880 DUP2 DUP4 PUSH1 0x20 DUP9 ADD PUSH2 0x4CF7 JUMP JUMPDEST ADD SWAP5 SWAP4 POP POP POP POP JUMP JUMPDEST PUSH1 0x0 DUP4 MLOAD PUSH2 0x589B DUP2 DUP5 PUSH1 0x20 DUP9 ADD PUSH2 0x4CF7 JUMP JUMPDEST SWAP2 SWAP1 SWAP2 ADD SWAP2 DUP3 MSTORE POP PUSH1 0x20 ADD SWAP2 SWAP1 POP JUMP JUMPDEST PUSH1 0x0 DUP2 PUSH1 0x0 NOT DIV DUP4 GT DUP3 ISZERO ISZERO AND ISZERO PUSH2 0x58C5 JUMPI PUSH2 0x58C5 PUSH2 0x55C2 JUMP JUMPDEST POP MUL SWAP1 JUMP JUMPDEST PUSH1 0x0 DUP3 DUP3 LT ISZERO PUSH2 0x58DC JUMPI PUSH2 0x58DC PUSH2 0x55C2 JUMP JUMPDEST POP SUB SWAP1 JUMP JUMPDEST PUSH1 0x0 DUP3 NOT DUP3 GT ISZERO PUSH2 0x58F4 JUMPI PUSH2 0x58F4 PUSH2 0x55C2 JUMP JUMPDEST POP ADD SWAP1 JUMP JUMPDEST PUSH1 0x0 PUSH1 0xFF DUP3 AND PUSH1 0xFF DUP5 AND DUP1 PUSH1 0xFF SUB DUP3 GT ISZERO PUSH2 0x5916 JUMPI PUSH2 0x5916 PUSH2 0x55C2 JUMP JUMPDEST ADD SWAP4 SWAP3 POP POP POP JUMP JUMPDEST PUSH1 0x0 DUP4 MLOAD PUSH1 0x20 PUSH2 0x5931 DUP3 DUP6 DUP4 DUP10 ADD PUSH2 0x4CF7 JUMP JUMPDEST PUSH1 0x17 PUSH1 0xF9 SHL SWAP2 DUP5 ADD SWAP2 DUP3 MSTORE DUP5 SLOAD PUSH1 0x1 SWAP1 PUSH1 0x0 SWAP1 DUP1 DUP4 SHR DUP2 DUP5 AND DUP1 PUSH2 0x5956 JUMPI PUSH1 0x7F DUP3 AND SWAP2 POP JUMPDEST DUP6 DUP3 LT DUP2 EQ ISZERO PUSH2 0x5974 JUMPI PUSH4 0x4E487B71 PUSH1 0xE0 SHL DUP5 MSTORE PUSH1 0x22 PUSH1 0x4 MSTORE PUSH1 0x24 DUP5 REVERT JUMPDEST DUP1 DUP1 ISZERO PUSH2 0x5988 JUMPI PUSH1 0x1 DUP2 EQ PUSH2 0x599D JUMPI PUSH2 0x59CE JUMP JUMPDEST PUSH1 0xFF NOT DUP5 AND DUP9 DUP8 ADD MSTORE DUP3 DUP9 ADD DUP7 ADD SWAP5 POP PUSH2 0x59CE JUMP JUMPDEST PUSH1 0x0 DUP12 DUP2 MSTORE PUSH1 0x20 SWAP1 KECCAK256 PUSH1 0x0 JUMPDEST DUP5 DUP2 LT ISZERO PUSH2 0x59C4 JUMPI DUP2 SLOAD DUP11 DUP3 ADD DUP10 ADD MSTORE SWAP1 DUP8 ADD SWAP1 DUP9 ADD PUSH2 0x59A9 JUMP JUMPDEST POP POP DUP6 DUP4 DUP10 ADD ADD SWAP5 POP JUMPDEST POP SWAP3 SWAP11 SWAP10 POP POP POP POP POP POP POP POP POP POP JUMP JUMPDEST PUSH1 0x20 DUP1 DUP3 MSTORE PUSH1 0x32 SWAP1 DUP3 ADD MSTORE PUSH32 0x4552433732313A207472616E7366657220746F206E6F6E204552433732315265 PUSH1 0x40 DUP3 ADD MSTORE PUSH18 0x31B2B4BB32B91034B6B83632B6B2B73A32B9 PUSH1 0x71 SHL PUSH1 0x60 DUP3 ADD MSTORE PUSH1 0x80 ADD SWAP1 JUMP JUMPDEST PUSH1 0x1 PUSH1 0x1 PUSH1 0xA0 SHL SUB DUP6 DUP2 AND DUP3 MSTORE DUP5 AND PUSH1 0x20 DUP3 ADD MSTORE PUSH1 0x40 DUP2 ADD DUP4 SWAP1 MSTORE PUSH1 0x80 PUSH1 0x60 DUP3 ADD DUP2 SWAP1 MSTORE PUSH1 0x0 SWAP1 PUSH2 0x54A0 SWAP1 DUP4 ADD DUP5 PUSH2 0x4D23 JUMP JUMPDEST PUSH1 0x0 PUSH1 0x20 DUP3 DUP5 SUB SLT ISZERO PUSH2 0x5A75 JUMPI PUSH1 0x0 DUP1 REVERT JUMPDEST DUP2 MLOAD PUSH2 0x1641 DUP2 PUSH2 0x4C8D JUMP JUMPDEST PUSH4 0x4E487B71 PUSH1 0xE0 SHL PUSH1 0x0 MSTORE PUSH1 0x31 PUSH1 0x4 MSTORE PUSH1 0x24 PUSH1 0x0 REVERT INVALID LOG2 PUSH5 0x6970667358 0x22 SLT KECCAK256 0xD4 PUSH12 0x2D7C641094E447AC1D43DA63 PUSH24 0x91F8694AB1C0B13B61DFF147267518B48964736F6C634300 ADDMOD 0xC STOP CALLER "
		},
		"gasEstimates": {
			"creation": {
				"codeDepositCost": "4648800",
				"executionCost": "infinite",
				"totalCost": "infinite"
			},
			"external": {
				"_bookingList(bytes)": "infinite",
				"_isBookingListActive()": "2454",
				"_nativeAddress(uint256)": "infinite",
				"_saleIsActive()": "2388",
				"_saleTwoCharIsActive()": "2402",
				"_tokenURIs(uint256)": "infinite",
				"_whiteList(address)": "2633",
				"addBookingList(string)": "infinite",
				"addBookingLists(string[])": "infinite",
				"addKey(string)": "infinite",
				"addWhiteList(address,uint256)": "24932",
				"addWhiteLists(address[],uint256)": "infinite",
				"approve(address,uint256)": "infinite",
				"balanceOf(address)": "2702",
				"burn(uint256)": "infinite",
				"burnSubDomain(uint256,string)": "infinite",
				"buyDomain(string,string)": "infinite",
				"chkInBookingList(string)": "infinite",
				"chkInWhiteList(address)": "2649",
				"exists(uint256)": "2577",
				"genTokenId(string)": "infinite",
				"get(string,uint256)": "infinite",
				"get2charTimes()": "2361",
				"get3charTimes()": "2426",
				"get4charTimes()": "2381",
				"getApproved(uint256)": "4889",
				"getByHash(uint256,uint256)": "infinite",
				"getDomainbyAddress(address)": "infinite",
				"getKey(uint256)": "infinite",
				"getKeys(uint256[])": "infinite",
				"getMany(string[],uint256)": "infinite",
				"getManyByHash(uint256[],uint256)": "infinite",
				"getOwner(string)": "infinite",
				"getPrice()": "2359",
				"getPrice2Char()": "4680",
				"getPrice3Char()": "4700",
				"getPrice4Char()": "4745",
				"grantMinterRole(address)": "infinite",
				"hasRole(address)": "2795",
				"isApprovedForAll(address,address)": "infinite",
				"isApprovedOrOwner(address,uint256)": "infinite",
				"isTLD(string)": "infinite",
				"isWhiteListActive()": "2366",
				"name()": "infinite",
				"numberInWhiteList(address)": "2670",
				"owner()": "2399",
				"ownerOf(uint256)": "2667",
				"reconfigure(string[],string[],uint256)": "infinite",
				"registerDomain(address,string,string)": "infinite",
				"registerSubDomain(address,uint256,string)": "infinite",
				"removeBookingList(string)": "infinite",
				"removeResolver(string)": "infinite",
				"removeResolver(uint256)": "infinite",
				"removeReverse()": "7531",
				"renounceOwnership()": "28252",
				"reset(uint256)": "infinite",
				"resolverOf(string)": "infinite",
				"resolverOf(uint256)": "4824",
				"reverseOf(address)": "infinite",
				"revokeMinterRole(address)": "infinite",
				"safeTransferFrom(address,address,uint256)": "infinite",
				"safeTransferFrom(address,address,uint256,bytes)": "infinite",
				"set(string,string,uint256)": "infinite",
				"setApprovalForAll(address,bool)": "infinite",
				"setBaseURI(string)": "infinite",
				"setBookingListActive()": "26700",
				"setByHash(uint256,string,uint256)": "infinite",
				"setMany(string[],string[],uint256)": "infinite",
				"setManyByHash(uint256[],string[],uint256)": "infinite",
				"setOwner(address,uint256)": "infinite",
				"setPrice(uint256)": "24576",
				"setResolver(uint256,address)": "infinite",
				"setReverse(string)": "infinite",
				"setReverse(uint256)": "infinite",
				"setSaleState()": "26592",
				"setSaleStateTwoChar()": "26635",
				"setTLD(string)": "infinite",
				"setTimes(uint256,uint256,uint256)": "68815",
				"setWhiteListActive(bool)": "26757",
				"subTokenIdByIndex(uint256,uint256)": "infinite",
				"subTokenIdCount(uint256)": "infinite",
				"supportsInterface(bytes4)": "infinite",
				"symbol()": "infinite",
				"tokenByIndex(uint256)": "6805",
				"tokenOfOwnerByIndex(address,uint256)": "5020",
				"tokenURI(uint256)": "infinite",
				"totalSupply()": "2427",
				"transferFrom(address,address,uint256)": "infinite",
				"transferOwnership(address)": "28444",
				"withdraw()": "infinite"
			},
			"internal": {
				"_baseURI()": "infinite",
				"_beforeTokenTransfer(address,address,uint256)": "infinite",
				"_burnSubDomain(uint256,string memory)": "infinite",
				"_safeMintSubDomain(address,uint256,string memory,bytes memory)": "infinite",
				"_setResolver(uint256,address)": "26587",
				"_setTokenURI(uint256,string memory)": "infinite"
			}
		},
		"methodIdentifiers": {
			"_bookingList(bytes)": "434d8aca",
			"_isBookingListActive()": "c7bc6d68",
			"_nativeAddress(uint256)": "bcba4c1b",
			"_saleIsActive()": "5d893ba0",
			"_saleTwoCharIsActive()": "0302e953",
			"_tokenURIs(uint256)": "0bb78ec1",
			"_whiteList(address)": "05d60ffb",
			"addBookingList(string)": "559f7414",
			"addBookingLists(string[])": "2319afde",
			"addKey(string)": "50382c1a",
			"addWhiteList(address,uint256)": "6e2db8d7",
			"addWhiteLists(address[],uint256)": "426932c7",
			"approve(address,uint256)": "095ea7b3",
			"balanceOf(address)": "70a08231",
			"burn(uint256)": "42966c68",
			"burnSubDomain(uint256,string)": "c479a804",
			"buyDomain(string,string)": "65064370",
			"chkInBookingList(string)": "f6283ad4",
			"chkInWhiteList(address)": "d439daa2",
			"exists(uint256)": "4f558e79",
			"genTokenId(string)": "50b3a144",
			"get(string,uint256)": "1be5e7ed",
			"get2charTimes()": "6bc2290f",
			"get3charTimes()": "358deb1c",
			"get4charTimes()": "d2315630",
			"getApproved(uint256)": "081812fc",
			"getByHash(uint256,uint256)": "672b9f81",
			"getDomainbyAddress(address)": "bc7c8ceb",
			"getKey(uint256)": "bb5b27e1",
			"getKeys(uint256[])": "f5c1f76e",
			"getMany(string[],uint256)": "1bd8cc1a",
			"getManyByHash(uint256[],uint256)": "b85afd28",
			"getOwner(string)": "4aaf4a12",
			"getPrice()": "98d5fdca",
			"getPrice2Char()": "157c6138",
			"getPrice3Char()": "c6438cb8",
			"getPrice4Char()": "4cd637b5",
			"grantMinterRole(address)": "3dd1eb61",
			"hasRole(address)": "7ef09bca",
			"isApprovedForAll(address,address)": "e985e9c5",
			"isApprovedOrOwner(address,uint256)": "430c2081",
			"isTLD(string)": "e5f9da88",
			"isWhiteListActive()": "573f5dae",
			"name()": "06fdde03",
			"numberInWhiteList(address)": "a736868b",
			"owner()": "8da5cb5b",
			"ownerOf(uint256)": "6352211e",
			"reconfigure(string[],string[],uint256)": "ec129eea",
			"registerDomain(address,string,string)": "77e9d00b",
			"registerSubDomain(address,uint256,string)": "98a60243",
			"removeBookingList(string)": "7ce45383",
			"removeResolver(string)": "23bbde56",
			"removeResolver(uint256)": "8a4c7577",
			"removeReverse()": "f25eb5c1",
			"renounceOwnership()": "715018a6",
			"reset(uint256)": "310bd74b",
			"resolverOf(string)": "79f80722",
			"resolverOf(uint256)": "b3f9e4cb",
			"reverseOf(address)": "7e37479e",
			"revokeMinterRole(address)": "69e2f0fb",
			"safeTransferFrom(address,address,uint256)": "42842e0e",
			"safeTransferFrom(address,address,uint256,bytes)": "b88d4fde",
			"set(string,string,uint256)": "47c81699",
			"setApprovalForAll(address,bool)": "a22cb465",
			"setBaseURI(string)": "55f804b3",
			"setBookingListActive()": "ea7b25be",
			"setByHash(uint256,string,uint256)": "4a72584d",
			"setMany(string[],string[],uint256)": "ce92b33e",
			"setManyByHash(uint256[],string[],uint256)": "27f18975",
			"setOwner(address,uint256)": "ab3b87fe",
			"setPrice(uint256)": "91b7f5ed",
			"setResolver(uint256,address)": "bc7b6d62",
			"setReverse(string)": "9cbf529d",
			"setReverse(uint256)": "384e9a55",
			"setSaleState()": "1ed40559",
			"setSaleStateTwoChar()": "4500d449",
			"setTLD(string)": "ad59e226",
			"setTimes(uint256,uint256,uint256)": "8f704aec",
			"setWhiteListActive(bool)": "eceb7d52",
			"subTokenIdByIndex(uint256,uint256)": "2dc50d9a",
			"subTokenIdCount(uint256)": "76f909ae",
			"supportsInterface(bytes4)": "01ffc9a7",
			"symbol()": "95d89b41",
			"tokenByIndex(uint256)": "4f6ccce7",
			"tokenOfOwnerByIndex(address,uint256)": "2f745c59",
			"tokenURI(uint256)": "c87b56dd",
			"totalSupply()": "18160ddd",
			"transferFrom(address,address,uint256)": "23b872dd",
			"transferOwnership(address)": "f2fde38b",
			"withdraw()": "3ccfd60b"
		}
	},
	"abi": [
		{
			"inputs": [],
			"stateMutability": "nonpayable",
			"type": "constructor"
		},
		{
			"anonymous": false,
			"inputs": [
				{
					"indexed": true,
					"internalType": "address",
					"name": "owner",
					"type": "address"
				},
				{
					"indexed": true,
					"internalType": "address",
					"name": "approved",
					"type": "address"
				},
				{
					"indexed": true,
					"internalType": "uint256",
					"name": "tokenId",
					"type": "uint256"
				}
			],
			"name": "Approval",
			"type": "event"
		},
		{
			"anonymous": false,
			"inputs": [
				{
					"indexed": true,
					"internalType": "address",
					"name": "owner",
					"type": "address"
				},
				{
					"indexed": true,
					"internalType": "address",
					"name": "operator",
					"type": "address"
				},
				{
					"indexed": false,
					"internalType": "bool",
					"name": "approved",
					"type": "bool"
				}
			],
			"name": "ApprovalForAll",
			"type": "event"
		},
		{
			"anonymous": false,
			"inputs": [
				{
					"indexed": true,
					"internalType": "uint256",
					"name": "tokenId",
					"type": "uint256"
				},
				{
					"indexed": true,
					"internalType": "string",
					"name": "keyIndex",
					"type": "string"
				},
				{
					"indexed": false,
					"internalType": "string",
					"name": "key",
					"type": "string"
				}
			],
			"name": "NewKey",
			"type": "event"
		},
		{
			"anonymous": false,
			"inputs": [
				{
					"indexed": true,
					"internalType": "uint256",
					"name": "tokenId",
					"type": "uint256"
				},
				{
					"indexed": false,
					"internalType": "string",
					"name": "tokenUri",
					"type": "string"
				}
			],
			"name": "NewURI",
			"type": "event"
		},
		{
			"anonymous": false,
			"inputs": [
				{
					"indexed": true,
					"internalType": "address",
					"name": "previousOwner",
					"type": "address"
				},
				{
					"indexed": true,
					"internalType": "address",
					"name": "newOwner",
					"type": "address"
				}
			],
			"name": "OwnershipTransferred",
			"type": "event"
		},
		{
			"anonymous": false,
			"inputs": [
				{
					"indexed": true,
					"internalType": "uint256",
					"name": "tokenId",
					"type": "uint256"
				}
			],
			"name": "ResetRecords",
			"type": "event"
		},
		{
			"anonymous": false,
			"inputs": [
				{
					"indexed": true,
					"internalType": "uint256",
					"name": "tokenId",
					"type": "uint256"
				},
				{
					"indexed": true,
					"internalType": "string",
					"name": "keyIndex",
					"type": "string"
				},
				{
					"indexed": true,
					"internalType": "string",
					"name": "valueIndex",
					"type": "string"
				},
				{
					"indexed": false,
					"internalType": "string",
					"name": "key",
					"type": "string"
				},
				{
					"indexed": false,
					"internalType": "string",
					"name": "value",
					"type": "string"
				}
			],
			"name": "Set",
			"type": "event"
		},
		{
			"anonymous": false,
			"inputs": [
				{
					"indexed": true,
					"internalType": "address",
					"name": "from",
					"type": "address"
				},
				{
					"indexed": true,
					"internalType": "address",
					"name": "to",
					"type": "address"
				},
				{
					"indexed": true,
					"internalType": "uint256",
					"name": "tokenId",
					"type": "uint256"
				}
			],
			"name": "Transfer",
			"type": "event"
		},
		{
			"inputs": [
				{
					"internalType": "bytes",
					"name": "",
					"type": "bytes"
				}
			],
			"name": "_bookingList",
			"outputs": [
				{
					"internalType": "string",
					"name": "",
					"type": "string"
				}
			],
			"stateMutability": "view",
			"type": "function"
		},
		{
			"inputs": [],
			"name": "_isBookingListActive",
			"outputs": [
				{
					"internalType": "bool",
					"name": "",
					"type": "bool"
				}
			],
			"stateMutability": "view",
			"type": "function"
		},
		{
			"inputs": [
				{
					"internalType": "uint256",
					"name": "",
					"type": "uint256"
				}
			],
			"name": "_nativeAddress",
			"outputs": [
				{
					"internalType": "bytes",
					"name": "",
					"type": "bytes"
				}
			],
			"stateMutability": "view",
			"type": "function"
		},
		{
			"inputs": [],
			"name": "_saleIsActive",
			"outputs": [
				{
					"internalType": "bool",
					"name": "",
					"type": "bool"
				}
			],
			"stateMutability": "view",
			"type": "function"
		},
		{
			"inputs": [],
			"name": "_saleTwoCharIsActive",
			"outputs": [
				{
					"internalType": "bool",
					"name": "",
					"type": "bool"
				}
			],
			"stateMutability": "view",
			"type": "function"
		},
		{
			"inputs": [
				{
					"internalType": "uint256",
					"name": "",
					"type": "uint256"
				}
			],
			"name": "_tokenURIs",
			"outputs": [
				{
					"internalType": "string",
					"name": "",
					"type": "string"
				}
			],
			"stateMutability": "view",
			"type": "function"
		},
		{
			"inputs": [
				{
					"internalType": "address",
					"name": "",
					"type": "address"
				}
			],
			"name": "_whiteList",
			"outputs": [
				{
					"internalType": "uint256",
					"name": "",
					"type": "uint256"
				}
			],
			"stateMutability": "view",
			"type": "function"
		},
		{
			"inputs": [
				{
					"internalType": "string",
					"name": "name",
					"type": "string"
				}
			],
			"name": "addBookingList",
			"outputs": [],
			"stateMutability": "nonpayable",
			"type": "function"
		},
		{
			"inputs": [
				{
					"internalType": "string[]",
					"name": "names",
					"type": "string[]"
				}
			],
			"name": "addBookingLists",
			"outputs": [],
			"stateMutability": "nonpayable",
			"type": "function"
		},
		{
			"inputs": [
				{
					"internalType": "string",
					"name": "key",
					"type": "string"
				}
			],
			"name": "addKey",
			"outputs": [],
			"stateMutability": "nonpayable",
			"type": "function"
		},
		{
			"inputs": [
				{
					"internalType": "address",
					"name": "account",
					"type": "address"
				},
				{
					"internalType": "uint256",
					"name": "numbers",
					"type": "uint256"
				}
			],
			"name": "addWhiteList",
			"outputs": [],
			"stateMutability": "nonpayable",
			"type": "function"
		},
		{
			"inputs": [
				{
					"internalType": "address[]",
					"name": "accounts",
					"type": "address[]"
				},
				{
					"internalType": "uint256",
					"name": "numbers",
					"type": "uint256"
				}
			],
			"name": "addWhiteLists",
			"outputs": [],
			"stateMutability": "nonpayable",
			"type": "function"
		},
		{
			"inputs": [
				{
					"internalType": "address",
					"name": "to",
					"type": "address"
				},
				{
					"internalType": "uint256",
					"name": "tokenId",
					"type": "uint256"
				}
			],
			"name": "approve",
			"outputs": [],
			"stateMutability": "nonpayable",
			"type": "function"
		},
		{
			"inputs": [
				{
					"internalType": "address",
					"name": "owner",
					"type": "address"
				}
			],
			"name": "balanceOf",
			"outputs": [
				{
					"internalType": "uint256",
					"name": "",
					"type": "uint256"
				}
			],
			"stateMutability": "view",
			"type": "function"
		},
		{
			"inputs": [
				{
					"internalType": "uint256",
					"name": "tokenId",
					"type": "uint256"
				}
			],
			"name": "burn",
			"outputs": [],
			"stateMutability": "nonpayable",
			"type": "function"
		},
		{
			"inputs": [
				{
					"internalType": "uint256",
					"name": "tokenId",
					"type": "uint256"
				},
				{
					"internalType": "string",
					"name": "sub",
					"type": "string"
				}
			],
			"name": "burnSubDomain",
			"outputs": [],
			"stateMutability": "nonpayable",
			"type": "function"
		},
		{
			"inputs": [
				{
					"internalType": "string",
					"name": "domain",
					"type": "string"
				},
				{
					"internalType": "string",
					"name": "tld",
					"type": "string"
				}
			],
			"name": "buyDomain",
			"outputs": [],
			"stateMutability": "payable",
			"type": "function"
		},
		{
			"inputs": [
				{
					"internalType": "string",
					"name": "name",
					"type": "string"
				}
			],
			"name": "chkInBookingList",
			"outputs": [
				{
					"internalType": "bool",
					"name": "",
					"type": "bool"
				}
			],
			"stateMutability": "view",
			"type": "function"
		},
		{
			"inputs": [
				{
					"internalType": "address",
					"name": "addr",
					"type": "address"
				}
			],
			"name": "chkInWhiteList",
			"outputs": [
				{
					"internalType": "bool",
					"name": "",
					"type": "bool"
				}
			],
			"stateMutability": "view",
			"type": "function"
		},
		{
			"inputs": [
				{
					"internalType": "uint256",
					"name": "tokenId",
					"type": "uint256"
				}
			],
			"name": "exists",
			"outputs": [
				{
					"internalType": "bool",
					"name": "",
					"type": "bool"
				}
			],
			"stateMutability": "view",
			"type": "function"
		},
		{
			"inputs": [
				{
					"internalType": "string",
					"name": "label",
					"type": "string"
				}
			],
			"name": "genTokenId",
			"outputs": [
				{
					"internalType": "uint256",
					"name": "",
					"type": "uint256"
				}
			],
			"stateMutability": "pure",
			"type": "function"
		},
		{
			"inputs": [
				{
					"internalType": "string",
					"name": "key",
					"type": "string"
				},
				{
					"internalType": "uint256",
					"name": "tokenId",
					"type": "uint256"
				}
			],
			"name": "get",
			"outputs": [
				{
					"internalType": "string",
					"name": "value",
					"type": "string"
				}
			],
			"stateMutability": "view",
			"type": "function"
		},
		{
			"inputs": [],
			"name": "get2charTimes",
			"outputs": [
				{
					"internalType": "uint256",
					"name": "",
					"type": "uint256"
				}
			],
			"stateMutability": "view",
			"type": "function"
		},
		{
			"inputs": [],
			"name": "get3charTimes",
			"outputs": [
				{
					"internalType": "uint256",
					"name": "",
					"type": "uint256"
				}
			],
			"stateMutability": "view",
			"type": "function"
		},
		{
			"inputs": [],
			"name": "get4charTimes",
			"outputs": [
				{
					"internalType": "uint256",
					"name": "",
					"type": "uint256"
				}
			],
			"stateMutability": "view",
			"type": "function"
		},
		{
			"inputs": [
				{
					"internalType": "uint256",
					"name": "tokenId",
					"type": "uint256"
				}
			],
			"name": "getApproved",
			"outputs": [
				{
					"internalType": "address",
					"name": "",
					"type": "address"
				}
			],
			"stateMutability": "view",
			"type": "function"
		},
		{
			"inputs": [
				{
					"internalType": "uint256",
					"name": "keyHash",
					"type": "uint256"
				},
				{
					"internalType": "uint256",
					"name": "tokenId",
					"type": "uint256"
				}
			],
			"name": "getByHash",
			"outputs": [
				{
					"internalType": "string",
					"name": "key",
					"type": "string"
				},
				{
					"internalType": "string",
					"name": "value",
					"type": "string"
				}
			],
			"stateMutability": "view",
			"type": "function"
		},
		{
			"inputs": [
				{
					"internalType": "address",
					"name": "account",
					"type": "address"
				}
			],
			"name": "getDomainbyAddress",
			"outputs": [
				{
					"internalType": "uint256[]",
					"name": "tokenIds",
					"type": "uint256[]"
				},
				{
					"internalType": "string[]",
					"name": "domains",
					"type": "string[]"
				}
			],
			"stateMutability": "view",
			"type": "function"
		},
		{
			"inputs": [
				{
					"internalType": "uint256",
					"name": "keyHash",
					"type": "uint256"
				}
			],
			"name": "getKey",
			"outputs": [
				{
					"internalType": "string",
					"name": "",
					"type": "string"
				}
			],
			"stateMutability": "view",
			"type": "function"
		},
		{
			"inputs": [
				{
					"internalType": "uint256[]",
					"name": "hashes",
					"type": "uint256[]"
				}
			],
			"name": "getKeys",
			"outputs": [
				{
					"internalType": "string[]",
					"name": "values",
					"type": "string[]"
				}
			],
			"stateMutability": "view",
			"type": "function"
		},
		{
			"inputs": [
				{
					"internalType": "string[]",
					"name": "keys",
					"type": "string[]"
				},
				{
					"internalType": "uint256",
					"name": "tokenId",
					"type": "uint256"
				}
			],
			"name": "getMany",
			"outputs": [
				{
					"internalType": "string[]",
					"name": "values",
					"type": "string[]"
				}
			],
			"stateMutability": "view",
			"type": "function"
		},
		{
			"inputs": [
				{
					"internalType": "uint256[]",
					"name": "keyHashes",
					"type": "uint256[]"
				},
				{
					"internalType": "uint256",
					"name": "tokenId",
					"type": "uint256"
				}
			],
			"name": "getManyByHash",
			"outputs": [
				{
					"internalType": "string[]",
					"name": "keys",
					"type": "string[]"
				},
				{
					"internalType": "string[]",
					"name": "values",
					"type": "string[]"
				}
			],
			"stateMutability": "view",
			"type": "function"
		},
		{
			"inputs": [
				{
					"internalType": "string",
					"name": "domain",
					"type": "string"
				}
			],
			"name": "getOwner",
			"outputs": [
				{
					"internalType": "address",
					"name": "",
					"type": "address"
				}
			],
			"stateMutability": "view",
			"type": "function"
		},
		{
			"inputs": [],
			"name": "getPrice",
			"outputs": [
				{
					"internalType": "uint256",
					"name": "",
					"type": "uint256"
				}
			],
			"stateMutability": "view",
			"type": "function"
		},
		{
			"inputs": [],
			"name": "getPrice2Char",
			"outputs": [
				{
					"internalType": "uint256",
					"name": "",
					"type": "uint256"
				}
			],
			"stateMutability": "view",
			"type": "function"
		},
		{
			"inputs": [],
			"name": "getPrice3Char",
			"outputs": [
				{
					"internalType": "uint256",
					"name": "",
					"type": "uint256"
				}
			],
			"stateMutability": "view",
			"type": "function"
		},
		{
			"inputs": [],
			"name": "getPrice4Char",
			"outputs": [
				{
					"internalType": "uint256",
					"name": "",
					"type": "uint256"
				}
			],
			"stateMutability": "view",
			"type": "function"
		},
		{
			"inputs": [
				{
					"internalType": "address",
					"name": "account",
					"type": "address"
				}
			],
			"name": "grantMinterRole",
			"outputs": [],
			"stateMutability": "nonpayable",
			"type": "function"
		},
		{
			"inputs": [
				{
					"internalType": "address",
					"name": "account",
					"type": "address"
				}
			],
			"name": "hasRole",
			"outputs": [
				{
					"internalType": "bool",
					"name": "",
					"type": "bool"
				}
			],
			"stateMutability": "view",
			"type": "function"
		},
		{
			"inputs": [
				{
					"internalType": "address",
					"name": "owner",
					"type": "address"
				},
				{
					"internalType": "address",
					"name": "operator",
					"type": "address"
				}
			],
			"name": "isApprovedForAll",
			"outputs": [
				{
					"internalType": "bool",
					"name": "",
					"type": "bool"
				}
			],
			"stateMutability": "view",
			"type": "function"
		},
		{
			"inputs": [
				{
					"internalType": "address",
					"name": "account",
					"type": "address"
				},
				{
					"internalType": "uint256",
					"name": "tokenId",
					"type": "uint256"
				}
			],
			"name": "isApprovedOrOwner",
			"outputs": [
				{
					"internalType": "bool",
					"name": "",
					"type": "bool"
				}
			],
			"stateMutability": "view",
			"type": "function"
		},
		{
			"inputs": [
				{
					"internalType": "string",
					"name": "_tld",
					"type": "string"
				}
			],
			"name": "isTLD",
			"outputs": [
				{
					"internalType": "bool",
					"name": "",
					"type": "bool"
				}
			],
			"stateMutability": "view",
			"type": "function"
		},
		{
			"inputs": [],
			"name": "isWhiteListActive",
			"outputs": [
				{
					"internalType": "bool",
					"name": "",
					"type": "bool"
				}
			],
			"stateMutability": "view",
			"type": "function"
		},
		{
			"inputs": [],
			"name": "name",
			"outputs": [
				{
					"internalType": "string",
					"name": "",
					"type": "string"
				}
			],
			"stateMutability": "view",
			"type": "function"
		},
		{
			"inputs": [
				{
					"internalType": "address",
					"name": "addr",
					"type": "address"
				}
			],
			"name": "numberInWhiteList",
			"outputs": [
				{
					"internalType": "uint256",
					"name": "",
					"type": "uint256"
				}
			],
			"stateMutability": "view",
			"type": "function"
		},
		{
			"inputs": [],
			"name": "owner",
			"outputs": [
				{
					"internalType": "address",
					"name": "",
					"type": "address"
				}
			],
			"stateMutability": "view",
			"type": "function"
		},
		{
			"inputs": [
				{
					"internalType": "uint256",
					"name": "tokenId",
					"type": "uint256"
				}
			],
			"name": "ownerOf",
			"outputs": [
				{
					"internalType": "address",
					"name": "",
					"type": "address"
				}
			],
			"stateMutability": "view",
			"type": "function"
		},
		{
			"inputs": [
				{
					"internalType": "string[]",
					"name": "keys",
					"type": "string[]"
				},
				{
					"internalType": "string[]",
					"name": "values",
					"type": "string[]"
				},
				{
					"internalType": "uint256",
					"name": "tokenId",
					"type": "uint256"
				}
			],
			"name": "reconfigure",
			"outputs": [],
			"stateMutability": "nonpayable",
			"type": "function"
		},
		{
			"inputs": [
				{
					"internalType": "address",
					"name": "to",
					"type": "address"
				},
				{
					"internalType": "string",
					"name": "domain",
					"type": "string"
				},
				{
					"internalType": "string",
					"name": "tld",
					"type": "string"
				}
			],
			"name": "registerDomain",
			"outputs": [],
			"stateMutability": "nonpayable",
			"type": "function"
		},
		{
			"inputs": [
				{
					"internalType": "address",
					"name": "to",
					"type": "address"
				},
				{
					"internalType": "uint256",
					"name": "tokenId",
					"type": "uint256"
				},
				{
					"internalType": "string",
					"name": "sub",
					"type": "string"
				}
			],
			"name": "registerSubDomain",
			"outputs": [],
			"stateMutability": "nonpayable",
			"type": "function"
		},
		{
			"inputs": [
				{
					"internalType": "string",
					"name": "name",
					"type": "string"
				}
			],
			"name": "removeBookingList",
			"outputs": [],
			"stateMutability": "nonpayable",
			"type": "function"
		},
		{
			"inputs": [
				{
					"internalType": "string",
					"name": "domain",
					"type": "string"
				}
			],
			"name": "removeResolver",
			"outputs": [],
			"stateMutability": "nonpayable",
			"type": "function"
		},
		{
			"inputs": [
				{
					"internalType": "uint256",
					"name": "tokenId",
					"type": "uint256"
				}
			],
			"name": "removeResolver",
			"outputs": [],
			"stateMutability": "nonpayable",
			"type": "function"
		},
		{
			"inputs": [],
			"name": "removeReverse",
			"outputs": [],
			"stateMutability": "nonpayable",
			"type": "function"
		},
		{
			"inputs": [],
			"name": "renounceOwnership",
			"outputs": [],
			"stateMutability": "nonpayable",
			"type": "function"
		},
		{
			"inputs": [
				{
					"internalType": "uint256",
					"name": "tokenId",
					"type": "uint256"
				}
			],
			"name": "reset",
			"outputs": [],
			"stateMutability": "nonpayable",
			"type": "function"
		},
		{
			"inputs": [
				{
					"internalType": "string",
					"name": "domain",
					"type": "string"
				}
			],
			"name": "resolverOf",
			"outputs": [
				{
					"internalType": "address",
					"name": "",
					"type": "address"
				}
			],
			"stateMutability": "view",
			"type": "function"
		},
		{
			"inputs": [
				{
					"internalType": "uint256",
					"name": "tokenId",
					"type": "uint256"
				}
			],
			"name": "resolverOf",
			"outputs": [
				{
					"internalType": "address",
					"name": "",
					"type": "address"
				}
			],
			"stateMutability": "view",
			"type": "function"
		},
		{
			"inputs": [
				{
					"internalType": "address",
					"name": "account",
					"type": "address"
				}
			],
			"name": "reverseOf",
			"outputs": [
				{
					"internalType": "string",
					"name": "",
					"type": "string"
				}
			],
			"stateMutability": "view",
			"type": "function"
		},
		{
			"inputs": [
				{
					"internalType": "address",
					"name": "account",
					"type": "address"
				}
			],
			"name": "revokeMinterRole",
			"outputs": [],
			"stateMutability": "nonpayable",
			"type": "function"
		},
		{
			"inputs": [
				{
					"internalType": "address",
					"name": "from",
					"type": "address"
				},
				{
					"internalType": "address",
					"name": "to",
					"type": "address"
				},
				{
					"internalType": "uint256",
					"name": "tokenId",
					"type": "uint256"
				}
			],
			"name": "safeTransferFrom",
			"outputs": [],
			"stateMutability": "nonpayable",
			"type": "function"
		},
		{
			"inputs": [
				{
					"internalType": "address",
					"name": "from",
					"type": "address"
				},
				{
					"internalType": "address",
					"name": "to",
					"type": "address"
				},
				{
					"internalType": "uint256",
					"name": "tokenId",
					"type": "uint256"
				},
				{
					"internalType": "bytes",
					"name": "_data",
					"type": "bytes"
				}
			],
			"name": "safeTransferFrom",
			"outputs": [],
			"stateMutability": "nonpayable",
			"type": "function"
		},
		{
			"inputs": [
				{
					"internalType": "string",
					"name": "key",
					"type": "string"
				},
				{
					"internalType": "string",
					"name": "value",
					"type": "string"
				},
				{
					"internalType": "uint256",
					"name": "tokenId",
					"type": "uint256"
				}
			],
			"name": "set",
			"outputs": [],
			"stateMutability": "nonpayable",
			"type": "function"
		},
		{
			"inputs": [
				{
					"internalType": "address",
					"name": "operator",
					"type": "address"
				},
				{
					"internalType": "bool",
					"name": "approved",
					"type": "bool"
				}
			],
			"name": "setApprovalForAll",
			"outputs": [],
			"stateMutability": "nonpayable",
			"type": "function"
		},
		{
			"inputs": [
				{
					"internalType": "string",
					"name": "_uri",
					"type": "string"
				}
			],
			"name": "setBaseURI",
			"outputs": [],
			"stateMutability": "nonpayable",
			"type": "function"
		},
		{
			"inputs": [],
			"name": "setBookingListActive",
			"outputs": [],
			"stateMutability": "nonpayable",
			"type": "function"
		},
		{
			"inputs": [
				{
					"internalType": "uint256",
					"name": "keyHash",
					"type": "uint256"
				},
				{
					"internalType": "string",
					"name": "value",
					"type": "string"
				},
				{
					"internalType": "uint256",
					"name": "tokenId",
					"type": "uint256"
				}
			],
			"name": "setByHash",
			"outputs": [],
			"stateMutability": "nonpayable",
			"type": "function"
		},
		{
			"inputs": [
				{
					"internalType": "string[]",
					"name": "keys",
					"type": "string[]"
				},
				{
					"internalType": "string[]",
					"name": "values",
					"type": "string[]"
				},
				{
					"internalType": "uint256",
					"name": "tokenId",
					"type": "uint256"
				}
			],
			"name": "setMany",
			"outputs": [],
			"stateMutability": "nonpayable",
			"type": "function"
		},
		{
			"inputs": [
				{
					"internalType": "uint256[]",
					"name": "keyHashes",
					"type": "uint256[]"
				},
				{
					"internalType": "string[]",
					"name": "values",
					"type": "string[]"
				},
				{
					"internalType": "uint256",
					"name": "tokenId",
					"type": "uint256"
				}
			],
			"name": "setManyByHash",
			"outputs": [],
			"stateMutability": "nonpayable",
			"type": "function"
		},
		{
			"inputs": [
				{
					"internalType": "address",
					"name": "to",
					"type": "address"
				},
				{
					"internalType": "uint256",
					"name": "tokenId",
					"type": "uint256"
				}
			],
			"name": "setOwner",
			"outputs": [],
			"stateMutability": "nonpayable",
			"type": "function"
		},
		{
			"inputs": [
				{
					"internalType": "uint256",
					"name": "price",
					"type": "uint256"
				}
			],
			"name": "setPrice",
			"outputs": [],
			"stateMutability": "nonpayable",
			"type": "function"
		},
		{
			"inputs": [
				{
					"internalType": "uint256",
					"name": "tokenId",
					"type": "uint256"
				},
				{
					"internalType": "address",
					"name": "resolver",
					"type": "address"
				}
			],
			"name": "setResolver",
			"outputs": [],
			"stateMutability": "nonpayable",
			"type": "function"
		},
		{
			"inputs": [
				{
					"internalType": "uint256",
					"name": "tokenId",
					"type": "uint256"
				}
			],
			"name": "setReverse",
			"outputs": [],
			"stateMutability": "nonpayable",
			"type": "function"
		},
		{
			"inputs": [
				{
					"internalType": "string",
					"name": "domain",
					"type": "string"
				}
			],
			"name": "setReverse",
			"outputs": [],
			"stateMutability": "nonpayable",
			"type": "function"
		},
		{
			"inputs": [],
			"name": "setSaleState",
			"outputs": [],
			"stateMutability": "nonpayable",
			"type": "function"
		},
		{
			"inputs": [],
			"name": "setSaleStateTwoChar",
			"outputs": [],
			"stateMutability": "nonpayable",
			"type": "function"
		},
		{
			"inputs": [
				{
					"internalType": "string",
					"name": "_tld",
					"type": "string"
				}
			],
			"name": "setTLD",
			"outputs": [],
			"stateMutability": "nonpayable",
			"type": "function"
		},
		{
			"inputs": [
				{
					"internalType": "uint256",
					"name": "_2chartimenew",
					"type": "uint256"
				},
				{
					"internalType": "uint256",
					"name": "_3chartimenew",
					"type": "uint256"
				},
				{
					"internalType": "uint256",
					"name": "_4chartimenew",
					"type": "uint256"
				}
			],
			"name": "setTimes",
			"outputs": [],
			"stateMutability": "nonpayable",
			"type": "function"
		},
		{
			"inputs": [
				{
					"internalType": "bool",
					"name": "_isWhiteListActive",
					"type": "bool"
				}
			],
			"name": "setWhiteListActive",
			"outputs": [],
			"stateMutability": "nonpayable",
			"type": "function"
		},
		{
			"inputs": [
				{
					"internalType": "uint256",
					"name": "tokenId",
					"type": "uint256"
				},
				{
					"internalType": "uint256",
					"name": "index",
					"type": "uint256"
				}
			],
			"name": "subTokenIdByIndex",
			"outputs": [
				{
					"internalType": "uint256",
					"name": "",
					"type": "uint256"
				}
			],
			"stateMutability": "view",
			"type": "function"
		},
		{
			"inputs": [
				{
					"internalType": "uint256",
					"name": "tokenId",
					"type": "uint256"
				}
			],
			"name": "subTokenIdCount",
			"outputs": [
				{
					"internalType": "uint256",
					"name": "",
					"type": "uint256"
				}
			],
			"stateMutability": "view",
			"type": "function"
		},
		{
			"inputs": [
				{
					"internalType": "bytes4",
					"name": "interfaceId",
					"type": "bytes4"
				}
			],
			"name": "supportsInterface",
			"outputs": [
				{
					"internalType": "bool",
					"name": "",
					"type": "bool"
				}
			],
			"stateMutability": "view",
			"type": "function"
		},
		{
			"inputs": [],
			"name": "symbol",
			"outputs": [
				{
					"internalType": "string",
					"name": "",
					"type": "string"
				}
			],
			"stateMutability": "view",
			"type": "function"
		},
		{
			"inputs": [
				{
					"internalType": "uint256",
					"name": "index",
					"type": "uint256"
				}
			],
			"name": "tokenByIndex",
			"outputs": [
				{
					"internalType": "uint256",
					"name": "",
					"type": "uint256"
				}
			],
			"stateMutability": "view",
			"type": "function"
		},
		{
			"inputs": [
				{
					"internalType": "address",
					"name": "owner",
					"type": "address"
				},
				{
					"internalType": "uint256",
					"name": "index",
					"type": "uint256"
				}
			],
			"name": "tokenOfOwnerByIndex",
			"outputs": [
				{
					"internalType": "uint256",
					"name": "",
					"type": "uint256"
				}
			],
			"stateMutability": "view",
			"type": "function"
		},
		{
			"inputs": [
				{
					"internalType": "uint256",
					"name": "tokenId",
					"type": "uint256"
				}
			],
			"name": "tokenURI",
			"outputs": [
				{
					"internalType": "string",
					"name": "",
					"type": "string"
				}
			],
			"stateMutability": "view",
			"type": "function"
		},
		{
			"inputs": [],
			"name": "totalSupply",
			"outputs": [
				{
					"internalType": "uint256",
					"name": "",
					"type": "uint256"
				}
			],
			"stateMutability": "view",
			"type": "function"
		},
		{
			"inputs": [
				{
					"internalType": "address",
					"name": "from",
					"type": "address"
				},
				{
					"internalType": "address",
					"name": "to",
					"type": "address"
				},
				{
					"internalType": "uint256",
					"name": "tokenId",
					"type": "uint256"
				}
			],
			"name": "transferFrom",
			"outputs": [],
			"stateMutability": "nonpayable",
			"type": "function"
		},
		{
			"inputs": [
				{
					"internalType": "address",
					"name": "newOwner",
					"type": "address"
				}
			],
			"name": "transferOwnership",
			"outputs": [],
			"stateMutability": "nonpayable",
			"type": "function"
		},
		{
			"inputs": [],
			"name": "withdraw",
			"outputs": [],
			"stateMutability": "payable",
			"type": "function"
		}
	]
}